:020000040000fa
:080000000002040000000000f2
:020000040000fa
:100008004e1600004e1600004e1600004e16000058
:100018004e1600004e1600004e1600004e16000048
:100028008a5e0000220500004e160000cc02000087
:100038004e1600001e0600004e1600000c130000ad
:10004800ca0300004e160000d2d7000016ba0000fe
:10005800a2b700000a1000004e1600004e1600005d
:100068004e1600004e1600004e1600004e160000f8
:10007800c05f00002c1000004e1600004e16000055
:100088004e1600004e1600004e160000c65d000019
:10009800e21100004e160000b6cd00004e1600001a
:1000a8004e1600004e1600004e1600004e160000b8
:1000b8004e160000520700004e1600004e160000b3
:1000c8004e1600004e1600004e1600004e16000098
:1000d8004e1600004e1600004e160000fa7800007a
:1000e800debe00004e1600004e16000038790000f3
:1000f8004e1600004e1600004e1600004e16000068
:100108004e1600004e1600004e1600004e16000057
:100118004e1600004e1600004e1600004e16000047
:100128004e16000034ba00004e1600004e160000ad
:100138004e1600004e1600004e1600004e16000027
:100148004e1600004e1600004e1600004e16000017
:100158004e1600004e1600004e1600004e16000007
:100168004e1600004e1600004e1600004e160000f7
:100178004e1600004e1600004e1600004e160000e7
:100188004e1600004e1600004e1600004e160000d7
:100198004e1600004e1600007abf00004e160000f2
:1001a8004e1600004e1600004e1600004e160000b7
:1001b8004e1600004e1600004e1600004e160000a7
:1001c8004e1600004e1600004e1600004e16000097
:1001d8004e1600004e1600004e1600004e16000087
:1001e8004e1600004e1600004e1600004e16000077
:1001f8004e1600004e1600004e1600004e16000067
:100208004e1600004e1600004e1600004e16000056
:100218004e1600004e1600004e1600004e16000046
:100228004e1600004e1600004e1600004e16000036
:100238004e1600004e1600004e1600004e16000026
:100248004e1600004e1600004e1600004e16000016
:100258004e1600004e1600004e1600004e16000006
:100268004e1600004e1600004e1600004e160000f6
:0c0278004e1600004e1600004e1600004e
:020000040000fa
:100400008fc921000eff2c000e01880000000000a3
:1004100000012000200288000c000700a05d2c00d5
:10042000010020000f000700000020000000e00095
:100430000200320000000200000000006cd3020045
:10044000000000000040da000000fe0040612000d3
:100450000000e0000200320000202000900188002f
:1004600000000600a1028800800078000000eb0078
:100470001a003700e280400054a0b4009101ba0095
:10048000e280400054a0b4009102ba00e280400033
:1004900054a0b4000002eb00472bde00f507b200c9
:1004a000a6018800602ce10008003a000049eb003a
:1004b0000201e800020039003420ec0002f0a00044
:1004c0008301e900f9ff3e00040037006128e100e4
:1004d000010032000082eb00040007001101ba00a5
:1004e0000200e000e3ff3a000000060004d0a30091
:1004f000e20f49001c003900810278003549ba003a
:100500000201e800020039003420ec0002f0a000f3
:100510008301e9000f0032002549ba000201e8001a
:10052000020039003420ec0002f0a0008301e90051
:10053000080032000400e0000600320015c9ba00cd
:100540000201e800020039003420ec0002f0a000b3
:100550008301e9008180e80054a0b4000300e000ba
:10056000e2ff3a00000006009102ba000559780047
:100570008301e900f7ff3200c82ade000559780040
:100580008301e900f3ff32000400e000f1ff3200d4
:1005900011d9ba00eeff37003600f800809fbe0088
:1005a000829fbe00849fbe00869fbe000200fa00ac
:1005b0000068a9001004070085e28000a400200064
:1005c000110009008402d80001027800e00f5200f7
:1005d0000e003a0094a4210014427800e04f52002b
:1005e0000400320094a4210014427800e14f52002c
:1005f00006003a007700070000027800040f780038
:100600001e02780004007800a402070084e2800043
:10061000ea0f5200020034000002eb00f4d8880018
:1006200094a4210014427800e14f52003f003a00a8
:1006300084a4210014427800e14f52003b003a00ac
:10064000c4b3210014427800e04f520011003a0078
:10065000f4d880008402780084922100144278004b
:100660000483fb0094922100144278000482fb0072
:100670004822dd0006027200441fb000848f520041
:100680003100360014c0b300044078003cfbb700d2
:1006900032003700c4b3210014427800e14f520009
:1006a0002b003a00f4d88000840278008492210064
:1006b000144278000483fb009492210014427800d5
:1006c0000482fb004822dd0006027200441fb000d5
:1006d000848f5200070031000042eb000440780094
:1006e0003cfbb7000042eb00044078003dfbb70044
:1006f0001a003700d4b32100144278000442e80005
:10070000044078003dfbb700d4b3210014427800c8
:10071000e74f420010003600aa98a8000d310700ec
:10072000f4ff2700f4e288000c0037000042eb00e1
:10073000044078003cfbb7000042eb000440780026
:100740003dfbb70005003700000000000300370044
:1007500000000000010037000000000024a5210077
:10076000144278000442b200e04f5200010032000f
:1007700025040700380007000080fa004f03be0080
:100780004f02be004f01be004f00be003600f90010
:1007900000400600849fbe00869fbe000000fa0055
:1007a0000108a900740880006123b80064d98000a2
:1007b00075d980000602420087824a0064d9880009
:1007c00075d988000080fa004f03be004f02be00ba
:1007d000004006000000fa00147080004822de008d
:1007e000614262008482fb00147180004622de00b8
:1007f000614262000482fb000402420084824200e3
:100800009472800004427800614262000482fb001e
:100810004222dd0004824200a4d88800a5d88000ce
:1008200024c5210004824200144278000402fb0027
:10083000b4d88800b4d88000e10f420002003a002a
:10084000c4d88000b4d88800b4d8800004007800f0
:100850000080fa00000006000000fa0024a5210034
:100860001442780062426200e04f520039003a00c0
:1008700024a521001442780064426200e04f520037
:1008800034003a0094a4210014427800e04f520052
:1008900013003a0095d98000a4d98000848f5200bb
:1008a0000b003a000002eb0084d9880094d9800044
:1008b0000402e800a4d98800a4d98000e50f520002
:1008c000190034000002eb00a4d98800160037009c
:1008d00084d980000402e80084d98800120037001f
:1008e00095d98000b4d98000848f52000b003a0063
:1008f0000002eb0084d9880094d980000402e9004a
:10090000b4d98800b4d98000e00f520006003d0041
:1009100054002000b4d988000300370084d9800037
:100920000402e80084d9880085d98000c412200020
:10093000848f52000500340086300700f4ff270042
:10094000f4e28800a6b8a80004003700a6b8a90001
:10095000020037000002eb0084d988000080fa0012
:10096000000006000000fa0085a4210095427800ee
:1009700094a421001442780084cf52000c003a0065
:1009800094a4210014427800e14f520004003a0080
:100990000042eb000440780008f4b700270037005d
:1009a0000042eb000440780009f4b7002300370050
:1009b00094a4210014427800e14f520006003a004e
:1009c00084402100144278000442e800044078008a
:1009d00008f4b70005003700944021001442780065
:1009e0000442e8000440780009f4b7008540210083
:1009f00095427800a4b321001442780084cf5200bd
:100a0000040036008440210014427800044078003d
:100a10003afbb7009540210095427800b4b321001d
:100a20001442780084cf5200040036009440210024
:100a300014427800044078003bfbb7000080fa00c5
:100a4000000006003600f800809fbe00829fbe00b6
:100a5000849fbe00869fbe000400fa000042eb00a7
:100a6000044f78000028a9000002eb0084e288000f
:100a700058ff070000027800140798009e029000bb
:100a8000c4d88000848f520065003200b4d8800042
:100a9000e10f4200620032000002eb0074d48800d3
:100aa0001e029000e00f5200030032001e02900070
:100ab000e30f52002a003a000042eb0004407800a5
:100ac00048fab70094d980009e029000848f5200ab
:100ad000060034001e0290008442780094d9800001
:100ae0000442780004cf5200060037001e02900036
:100af0008442780094d980000442780004c25200f5
:100b0000664f4200e5e280001e4378000682fb004b
:100b100004825200e4e288001e00900090d9880010
:100b200024a521001442780062426200e04f520086
:100b300008003a0024a521001442780064426200b3
:100b4000e04f520003003a001e02900004007800bb
:100b5000520107001e029000c4d888002f00370001
:100b60001e029000e50f5200030032001e029000aa
:100b7000e20f520029003a0014c0b300044078008c
:100b800048fab70095d980001e029000848f520069
:100b90000600340094d98000844278001e02900040
:100ba0000442780004cf52000600370094d9800038
:100bb000844278001e0290000442780004c2520071
:100bc000664f42001e4278008482fb00e4e280000f
:100bd00004824200e4e288001e03900096d9880057
:100be00024a521001442780062426200e04f5200c6
:100bf00008003a0024a521001442780064426200f3
:100c0000e04f520003003a001e02900004007800fa
:100c1000220107001e029000c4d8880051ff07007f
:100c20000080fa004f03be004f02be004f01be001d
:100c30004f00be003600f900004006003600f80004
:100c4000809fbe00829fbe00849fbe00869fbe0024
:100c50000400fa000042eb00044f780000a8a9004d
:100c60000002eb0084e28800dafe07000002780050
:100c7000140798009e029000c4d88000848f520010
:100c800081003200b4d88000e10f42007e003200c3
:100c90000002eb0074d488001e029000e50f5200a1
:100ca000030032001e029000e20f520038003a00aa
:100cb0000042eb000440780048fab70094d9800065
:100cc0009e029000848f5200060034001e029000a5
:100cd0008442780094d980000442780004cf520006
:100ce000060037001e0290008442780094d98000ec
:100cf0000442780004c25200664f4200e5e28000e0
:100d00001e4378000682fb0004825200e4e2880061
:100d100013e1a900540880006123b80064d9800061
:100d200075d980000602420087824a0064d9880093
:100d300075d988000002eb005408880013e1a80070
:100d40001400200054d988001e00900090d988001b
:100d500024a521001442780062426200e04f520054
:100d600008003a0024a52100144278006442620081
:100d7000e04f520003003a001e0290000400780089
:100d8000c60007001e029000c4d888003d0037004e
:100d90001e029000e40f5200030032001e02900079
:100da000e10f520037003a0014c0b300044078004d
:100db00048fab70095d980001e029000848f520037
:100dc0000600340094d98000844278001e0290000e
:100dd0000442780004cf52000600370094d9800006
:100de000844278001e0290000442780004c252003f
:100df000664f42001e4278008482fb00e4e28000dd
:100e000004824200e4e2880013e1a9005408800053
:100e10006123b80064d9800075d9800006024200c1
:100e200087824a0064d9880075d988000002eb00e7
:100e30005408880013e1a8001400200054d9880049
:100e40001e03900096d9880024a521001442780042
:100e500062426200e04f520008003a0024a52100df
:100e60001442780064426200e04f520003003a00ee
:100e70001e02900004007800880007001e02900007
:100e8000c4d88800b7fe07000080fa004f03be00f8
:100e90004f02be004f01be004f00be003600f900f9
:100ea000004006003600f800809fbe00829fbe0012
:100eb000849fbe00869fbe000400fa000042eb0043
:100ec000044f780004a8a9000002eb0084e2880027
:100ed00040fe070000027800140798009e02900070
:100ee000c4d88000848f520065003200b4d88000de
:100ef000e10f4200620032000002eb0074d488006f
:100f00001e029000e10f5200030032001e0290000a
:100f1000e40f52002a003a000042eb00044078003f
:100f200048fab70094d980009e029000848f520046
:100f3000060034001e0290008442780094d980009c
:100f40000442780004cf5200060037001e029000d1
:100f50008442780094d980000442780004c2520090
:100f6000664f4200e5e280001e4378000682fb00e7
:100f700004825200e4e288001e00900090d98800ac
:100f800024a521001442780062426200e04f520022
:100f900008003a0024a5210014427800644262004f
:100fa000e04f520003003a001e0290000400780057
:100fb0003a0007001e029000c4d888002f003700b6
:100fc0001e029000e00f5200030032001e0290004b
:100fd000e30f520029003a0014c0b3000440780027
:100fe00048fab70095d980001e029000848f520005
:100ff0000600340094d98000844278001e029000dc
:101000000442780004cf52000600370094d98000d3
:10101000844278001e0290000442780004c252000c
:10102000664f42001e4278008482fb00e4e28000aa
:1010300004824200e4e288001e03900096d98800f2
:1010400024a521001442780062426200e04f520061
:1010500008003a0024a5210014427800644262008e
:10106000e04f520003003a001e0290000400780096
:101070000a0007001e029000c4d8880039fe07004d
:101080000080fa004f03be004f02be004f01be00b9
:101090004f00be003600f900004006000400fa00d0
:1010a00010079800e0e28000000f7800f48921002a
:1010b0001442780062426200e04f52000a003a0097
:1010c000f48921001442780064426200e04f52002b
:1010d00005003a00f4892100144278006842620059
:1010e000e04f52001700320094a42100144278000f
:1010f000e04f52000a003a00f5d880003406200084
:10110000848f520003003c0024d8200064e2880051
:10111000c7003700045b200064e28800c400370089
:1011200094a4210014427800e14f5200bb003a0021
:10113000047d220074e28800640b200064e28800d1
:10114000bb00370094a4210014427800e04f520005
:101150006e003a009e027800648e210014427800ee
:101160000483fb00748e2100144278000482fb008b
:101170004822dd0006027200848f520046003600cd
:1011800054d28000e40f520023003a009e027800ff
:10119000a4892100144278000483fb00b489210053
:1011a000144278000482fb004822dd00060272002f
:1011b00004037800648e2100144278008483fb00cd
:1011c000748e2100144278000482fb004822dd0066
:1011d0000702720004024300848f52000e003100a7
:1011e00065e28000842d2000848f520003003400cb
:1011f00064e280002403b10064e2880065e28000bc
:10120000842d2000848f520089003c00842d200012
:1012100064e2880086003700f5d88000341f200083
:10122000848f52000e003c0065e28000d4a42100af
:10123000848f520003003c0064e280007e02420082
:1012400064e2880065e28000d4a42100848f52000b
:1012500074003400e4a4210064e2880074003700c4
:1012600065e28000d4a42100848f520003003c007a
:1012700064e280007e02420064e2880065e2800051
:10128000d4a42100848f520068003400e4a421001b
:1012900064e288006600370084a4210014427800cc
:1012a000e14f52000b003a006466200064e28800bf
:1012b00004d98000843eb00004d9880005d980009c
:1012c00004772100848f52000200340004fa2000c9
:1012d00004d9880065e28000842d2000848f5200ac
:1012e0000300340064e280002403b10064e288005b
:1012f00065e28000842d2000848f52004c003c0069
:10130000842d200064e288004900370094a4210065
:1013100014427800e14f520045003a009e027800e6
:10132000c48e2100144278000483fb00d48e210077
:10133000144278000482fb004822dd00060272009d
:10134000848f520027003100f5d880003406200039
:10135000848f520003003c00047d220074e2880068
:1013600033003700f5d88000341f2000848f5200ee
:101370000e003c0075e2800044662200848f52001b
:101380000300340074e280000402e90074e2880083
:1013900075e2800044662200848f520024003c00e5
:1013a0004466220074e288002100370075e2800064
:1013b00044662200848f52000300340074e28000ef
:1013c0002403b10074e2880075e2800044662200c4
:1013d000848f520016003c004466220074e28800ac
:1013e0001300370075e2800034662200848f5200bb
:1013f00003003c0074e280007e02420074e2880038
:1014000075e2800034662200848f520008003400a8
:101410004466220074e288000500370000000000e6
:10142000030037000000000001003700000000004a
:1014300004d98000e00f52000400350094a421007c
:1014400014427800e04f52000700320004d98000b7
:10145000e00f52002e003d0094a4210014427800b9
:10146000e14f52002a003a001e02900005002000c1
:101470006600200027c621001100090046aad800f6
:10148000810b78000002780004e3880094a4210016
:1014900014427800e04f520010003a0024a52100c9
:1014a0001442780062426200e04f52000b003a00a2
:1014b00014e380008402420004342a0004824200c3
:1014c0009402780064e280000482420074d88800ac
:1014d00074d8800084d888000a00370014e38000a4
:1014e0008402420004342a000482420094027800fc
:1014f00064e280000482420074d8880074d88000be
:1015000084d888002400200094d888003800370050
:1015100004d98000e00f52000400350094a421009b
:1015200014427800e14f52000700320004d98000d5
:10153000e00f52002e003d0094a4210014427800d8
:10154000e04f52002a003a001e029000630242005f
:10155000050020006600200027c6210011000900b8
:1015600046aad800810b78000002780004e38800c6
:1015700094a4210014427800e04f520010003a0079
:1015800024a521001442780062426200e04f52001c
:101590000b003a0014e380008402420004342a0065
:1015a000048242009402780074e2800004824200c7
:1015b00074d8880074d8800084d888000a00370066
:1015c00014e380008402420004342a0004824200b2
:1015d0009402780074e280000482420074d888008b
:1015e00074d8800084d888001400200094d8880023
:1015f0000080fa00000006000000fa002200f80057
:101600002400f8002600f80054d98000e00f5200b2
:101610000900320064d9800075d98000d4d88800d0
:10162000e5d888006022b80064d9880075d98800a0
:101630000002eb0054d98800d6d88000e7d880009b
:10164000a42a200005002000840f5300858f5b0032
:1016500005003e00b42a200005002000d4d88800f0
:10166000e5d888000b003700d6d88000e7d8800086
:10167000f4592d0005002000840f5300858f5b0076
:1016800004003600f4592d0005002000d4d888004d
:10169000e5d88800d6d88000e7d88000b4d780008d
:1016a000c5d780000403530085835b0024d98000e4
:1016b000050020008438b8008629b8008200780030
:1016c0000100400006037800040278000432b800ec
:1016d000050040008002780036d9800047d980009c
:1016e0000402430085824b0034d9880045d9880024
:1016f00034d9800045d98000412bdd004f22de0027
:1017000004027300cf2ade00b4d78800c5d7880052
:10171000b4d78000c5d780000403780074922b00f2
:10172000950220001100090046aad80000027800a6
:10173000f4d88800b4d78000c5d7800004037800af
:1017400004802500b50120001100090046aad80038
:1017500000027800c4d98800f5d88000c4032000b6
:10176000110009008402d80000027800cfa2de0038
:101770000400be00690607000002be00020020004f
:10178000030424000400be00bc0607000002be00e3
:1017900002002000433b24000400be00b7060700ff
:1017a0000002be0002002000a34724000400be0087
:1017b000f30507000002be000400be003606070065
:1017c0000002be0084027800640b20001301c000f8
:1017d0000400cc00a4d7880094a42100144278000f
:1017e000e14f520003003a00a4d780000402ea004f
:1017f000a4d788002600f9002400f9002200f9008f
:101800000080fa00000006000200fa00e0e280001a
:10181000000f7800e5e28000f40f200004836200ee
:1018200004a5210014427800604262000642720062
:101830000440780050fab700c82ade0014a5210041
:101840001442780060426200054272000440780051
:1018500051fab70005dd800004712200848f520028
:101860000500360024e38000e00f520002003a0039
:101870001400200024e3880044a4210014427800ce
:1018800061426200e04f520005003200f4892100fd
:101890001442780068426200e04f520002003200b9
:1018a0000002eb0024e3880024e38000e10f5200f3
:1018b00015003a0094a4210014427800e04f520031
:1018c00007003a00f5d88000341f2000848f5200b2
:1018d0000d003c0024d8200064e288000a00370094
:1018e00094a4210014427800e14f520006003a000f
:1018f000f5d88000341f2000848f520002003c0085
:101900004466220074e2880094a421001442780006
:10191000e04f520006003a0084a4210014427800ef
:10192000e14f520002003a000002eb00f4d88800b8
:1019300094a4210014427800e14f520006003a00be
:1019400084a4210014427800e04f520002003a00c3
:101950000002eb00f4d8880034e280000402ea00c0
:1019600034d88800d4e2800044d88800f4d88000bd
:1019700054d8880024e38000e00f52002100320098
:1019800005dd8000f4f92000848f520013003e0032
:101990000002eb0024e38800b4e38000e00f520073
:1019a00007003200f4d88000e622b80084027800f4
:1019b00084b521000482420024d888002100370029
:1019c000f4d88000e622b800840278008438210030
:1019d0000482420024d888001a00370005dd800008
:1019e00084a92300848f520003003600843821002c
:1019f00024d888001300370004ee220024d8880081
:101a000010003700b4e38000e00f520007003200fe
:101a1000f4d88000e622b8008402780084b5210062
:101a20000482420024d8880006003700f4d88000e1
:101a3000e622b80084027800843821000482420043
:101a400024d8880034a52100144278007042620036
:101a5000e04f520005003a0085d98000640920005b
:101a6000848f520001003400539aa80034a521004d
:101a70001442780070426200e04f52008100320050
:101a800094a4210014427800e14f52004c003a0027
:101a900004a52100144278008482fb0014a52100d3
:101aa000144278000482fb004822dd000502720027
:101ab0008402780004892100144278000483fb002a
:101ac00014892100144278000482fb004822dd00c2
:101ad0000602720004037800648c2100144278002e
:101ae0000482fb0004025300848f52001100350071
:101af00085d98000840c2000848f52000d003400b2
:101b0000230ea9000002eb0004d98800712407000d
:101b1000539aa9000042eb00044078004ffab70046
:101b2000527aa900529aa800525aa8000002eb006b
:101b300014a08800f5d88000b4122000848f5200d1
:101b40000a003c0004d980006f02420004d98800da
:101b500005d9800074382100848f5200540034006d
:101b60008438210004d9880051003700539aa90015
:101b700004d980006123b9004f3add00c132de0094
:101b8000850272004f32dd00d4d78800e5d7880087
:101b900004d9800064d88800a0af2100cf6007007e
:101ba00044a421001442780068426200e04f5200d1
:101bb0003f00320064d8800004d988003c00370020
:101bc000f5d8800034062000848f520018003c00b5
:101bd00004d980007e02420004d9880024e38000fa
:101be000e00f52000b00320005dd800084a92300c5
:101bf000848f52000700360005d980008438210008
:101c0000848f52002a0034008438210004d98800cf
:101c10002700370005d9800004772100848f520007
:101c20002200340004fa200004d988002000370084
:101c3000539aa90004d980006123b9004f3add000e
:101c4000c132de00850272004f32dd00d4d7880039
:101c5000e5d7880004d9800064d88800a0af2100af
:101c60009e60070044a4210014427800684262008c
:101c7000e04f52000e00320064d8800004d9880082
:101c80000b003700a0af21009460070044a421009e
:101c90001442780068426200e04f520004003200b3
:101ca00064d8800004d988000100370000000000db
:101cb00004d98000cfa2de0046062000862bb800a3
:101cc000e021b80082037800070343008402780013
:101cd00044062000042ab800050343008602780069
:101ce000869927001100090046aad8000002780052
:101cf00014d988000080fa00000006000600fa00ef
:101d00000002eb0054d988006022b80064d9880032
:101d100075d988000002eb00f4d888000002eb00bf
:101d200024e3880004c8200004d98800f4592d0059
:101d300005002000d4d88800e5d88800f4592d008b
:101d400005002000b4d78800c5d78800047d200096
:101d500024d9880004002800f5ac260034d9880076
:101d600045d98800b4d78000c5d780000403780027
:101d700004802500b50120001100090046aad80002
:101d800000027800c4d98800147080004822de0068
:101d9000614262008482fb00147180004622de00f2
:101da000614262000482fb0004024200848242001d
:101db0009472800004427800614262000482fb0059
:101dc0004222dd0004824200a4d88800a5d8800009
:101dd00024c5210004824200144278000402fb0062
:101de000b4d88800b4d88000c4d88800c4d8800093
:101df00094d9880094d9800004007800a7fc0700db
:101e000094d980000402e800a4d98800a4d98000f5
:101e1000e50f5200020034000002eb00a4d9880054
:101e200094d980000402e900b4d98800b4d98000b4
:101e3000e00f520002003d0054002000b4d9880099
:101e40000002eb0084d988000002eb0074d4880003
:101e500094a4210014427800e04f520017003a0089
:101e6000348f2100144278008482fb00448f2100cb
:101e7000144278000482fb004822dd000502720053
:101e8000e00f520003003a0004712200040f7800b2
:101e900020003700348f2100144278008482fb0038
:101ea000448f2100144278000482fb004822dd00a8
:101eb00005027200040f780016003700548f2100cd
:101ec000144278008482fb00648f21001442780061
:101ed0000482fb004822dd0005027200e00f520080
:101ee00003003a0084382100040f7800090037000d
:101ef000548f2100144278008482fb00648f2100fb
:101f0000144278000482fb004822dd0005027200c2
:101f1000040f780094a4210014427800e04f52008e
:101f20001b003a0064902100144278008482fb0078
:101f300074902100144278000482fb004822dd00e6
:101f4000050272008402780044062000842ab8004a
:101f50001407980084902100144278000482fb004a
:101f6000ea22b8002407980034e280008402ea00e4
:101f700034e280000003eb00f3ff27002e01900005
:101f80009e009000a0af2100695f07001b00370092
:101f900094902100144278008482fb00a4902100d8
:101fa000144278000482fb004822dd000502720022
:101fb0008402780044062000842ab80014079800a0
:101fc000b4902100144278000482fb00ea22b80099
:101fd0002407980034e280000402ea000003eb00ca
:101fe0008402780084382100f3ff27002e0190003e
:101ff0009e009000a0af21004d5f07000080fa0016
:10200000000006000000fa003cff07000080fa0014
:10201000000006003600f800809fbe00829fbe00d0
:10202000849fbe00869fbe000000fa0001a8a900a0
:102030000418800094dc88008d0107000080fa00fd
:102040004f03be004f02be004f01be004f00be0056
:102050003600f900004006003600f800809fbe0000
:10206000829fbe00849fbe00869fbe00881f7800ae
:102070000400fa006022b800048fbe0002a8a90084
:10208000041a8000050020000400be00260407009a
:102090000002be0002002000030124000400be0074
:1020a000b70307000002be00048fbe0018c0b300d3
:1020b00002002000d33824001e00be00f2030700f7
:1020c00000027800e00f5200010035000044eb00f0
:1020d000e04f54000300320014002000b4e38800f5
:1020e000020037000002eb00b4e3880084c6210040
:1020f00014427800e04f520010003a0094e3800050
:10210000a5e3800018c0b3000401be001e00be009d
:10211000df03070000027800e00f520001003c00de
:102120000044eb00e04f54002100320014c0b30023
:102130000440780068fcb7001d00370094e380007d
:10214000a5e3800018c0b3000401be001e00be005d
:10215000cf03070000027800e00f520001003c00ae
:102160000044eb00e04f54000a00320084c6210016
:1021700014427800f94f52000d003e0084c6210041
:10218000144278000442e8000440780068fcb7007c
:102190000700370084c6210014427800f94f52002e
:1021a00003003e000042eb000440780068fcb700ea
:1021b00074e3800085e3800018c0b3000401be0012
:1021c0001e00be00b203070000027800e00f5200bc
:1021d00001003c000044eb00e04f54000c003200d2
:1021e00034c9210014427800e04f520008003a0040
:1021f00004da800044de880014c0b3000440780094
:1022000093fcb7000042eb000440780092fcb7005a
:1022100034c9210014427800e14f52001a003a00fc
:1022200024c9210014427800e04f520016003a0001
:1022300045de8000047122008482420004da8000be
:10224000848f520010003e0024c0b3000440780088
:1022500093fcb70014718000044278006142620070
:1022600004c2ea00614262000482fb006102620073
:1022700016718000e5ff2f00850263000482720062
:1022800014718800aa38a90054e3800065e3800037
:1022900018c0b3000401be001e00be007a03070090
:1022a00000027800e00f5200010034000044eb000f
:1022b000e04f54001000320034c92100144278006d
:1022c000e04f52000c00320004da800054de880037
:1022d00024c9210014427800e04f520006003a0061
:1022e00014c0b3000440780092fcb7000042eb0039
:1022f0000440780093fcb70034c9210014427800f0
:10230000e04f52000a003a0024c92100144278002c
:10231000e14f520006003a0055de800004712200b1
:102320008482420004da8000848f5200100036005c
:1023300018c0b30002002000832c24001e00be0041
:102340005103070000027800e00f52000100340042
:102350000044eb00e04f540012003200a48a210038
:102360001442780062426200e04f52000d003a00d1
:1023700014718000044278006142620004c2ea00e5
:10238000614262000482fb006102620016718000fb
:10239000e5ff2f008502630004827200147188003b
:1023a000aa38a8000080fa004f0478004f03be004e
:1023b0004f02be004f01be004f00be003600f900c4
:1023c00000400600841f78000000fa000388a9007e
:1023d00004dc80000402e80004dc88000080fa00cd
:1023e0004f027800004006000000fa00d9290700db
:1023f000e5e28000f40f200004836200848921005c
:102400001442780060426200064272000440780084
:1024100098f8b700c82ade00948921001442780099
:1024200060426200054272000440780099f8b700eb
:10243000f48921001442780068426200e04f5200a3
:102440002c003200e4882100144278008482fb00d2
:10245000f4882100144278000482fb004822dd0049
:1024600005027200840078000000eb00a93d07001f
:1024700004892100144278008482fb001489210021
:10248000144278000482fb004822dd00050272003d
:1024900084007800200020009e3d07002489210050
:1024a000144278008482fb003489210014427800b1
:1024b0000482fb004822dd000502720084007800df
:1024c00040002000933d0700448921001442780019
:1024d0008482fb0054892100144278000482fb00ae
:1024e0004822dd00050272008400780060002000b0
:1024f000883d070084892100144278008482fb0013
:1025000094892100144278000482fb004822dd00f7
:102510000502720084007800a00020007d3d0700c5
:1025200064892100144278008482fb0074892100b0
:10253000144278000482fb004822dd00050272008c
:102540008400780080002000723d070028450700c5
:10255000468d2100164378008683fb00568d2100ae
:10256000164378000683fb004833dd000703730041
:1025700006027800668d2100164378008683fb00f2
:10258000768d2100164378000683fb004833dd007a
:1025900007037300860278000401be007006200065
:1025a000763d0700968d2100164378008683fb0058
:1025b000a68d2100164378000683fb004833dd001a
:1025c0000703730006027800b68d210016437800d9
:1025d0008683fb00c68d2100164378000683fb002e
:1025e0004833dd0007037300860278000401be0053
:1025f000c0062000613d0700448c21001442780091
:1026000084407800700520001f3d07001545070035
:102610000080fa00000006003600f800809fbe002f
:10262000829fbe00849fbe00869fbe000000fa000d
:1026300000e8a9006f0007001f61070024a5210022
:10264000144278000444b200e04f5200010032000e
:10265000dd0007000080fa004f03be004f02be00fd
:102660004f01be004f00be003600f90000400600da
:102670000000fa0064b82100144278006142620050
:10268000e04f520022003a0094dc80006123b90040
:1026900054dc800065dc80000602420087824a002c
:1026a00054dc880065dc880044dc80000402e8001b
:1026b00044dc880044dc8000e30f52001f0034003b
:1026c00044dc80000403780054dc800065dc80007a
:1026d0001100090046aad8000002780074dc8800c6
:1026e00074dc80000540200004825200040378005e
:1026f00004532700050020001100090046aad80055
:102700000002780084dc8800861ba8000b003700dc
:1027100094dc8000a4dc8800a5dc800074dc8000f0
:10272000848f520005003400a5dc800074dc80003a
:1027300004825200a4dc8800020007000080fa0036
:10274000000006000000fa00a4dc80006123b9004c
:10275000e4dc8000f5dc80000403530085835b002b
:10276000b4dc8000050020008438b8008629b80059
:10277000820078000100400006037800040278001f
:102780000432b8000500400080027800c6dc8000fa
:10279000d7dc80000402430085824b00c4dc880043
:1027a000d5dc8800c4dc8000d5dc8000412bdd0056
:1027b0004f22de0004027300cf2ade00e4dc880032
:1027c000f5dc880084dc8000cfa2de000403780002
:1027d000e4dc8000f5dc8000040278008432b8007c
:1027e00004dd880004dd800024e288000080fa0017
:1027f000000006000200fa000002eb00040f78005f
:1028000004dd800004de880005de8000c4122000a4
:10281000848f52003a00360005de800014de80000e
:102820000482520024de880024de8000e00f520083
:102830001a003d0025de8000e4ee2f00848f520058
:1028400031003d0024de80000402ea0024de88001e
:1028500024de8000cfa2de00361120001100090026
:1028600046aad80000027800040f780034de800009
:10287000e00f52000600320035de80001e037800b3
:10288000640b20008432b8000482520034de8800d9
:1028900004de800014de88001b00370025de800087
:1028a00024112000848f52001700340024de8000a1
:1028b000cfa2de00361120001100090046aad80080
:1028c00000027800040f780035de8000d45a220020
:1028d000848f520007003e009e027800640b2000a7
:1028e000842ab8008402780034de8000048242002a
:1028f00034de880004de800014de88000200370029
:102900000002eb0034de88000080fa0000000600c0
:102910000000fa00020007000080fa000000060034
:102920000000fa000002eb0094dc88001400200094
:10293000a4dc8800441f2000b4dc880004002800c8
:1029400005002000c4dc8800d5dc880014002000cd
:1029500005002000e4dc8800f5dc88006022b80077
:1029600024dd880035dd88000002eb0044dd8800ae
:102970000002eb0054dd88000002eb0004dd88005b
:102980000002eb0004de8800c412200014de880080
:102990000002eb0024de88000002eb0034de880039
:1029a00034e280000003eb008002eb00f3ff27001d
:1029b00042382000812c2300c0ba2100dc5c0700d3
:1029c0000080fa00000006000000fa0014dd80001c
:1029d000d4dd880004dd8000e4dd880034e280007e
:1029e000b4dd88000002eb00c4dd880034a52100be
:1029f0001442780070426200e04f52004100320001
:102a0000f5d88000b4122000848f520004003c00ee
:102a100004d980006f02420004d9880062003700a8
:102a2000539aa90004dd8000d4dd880004dd800015
:102a3000e4dd880004d980006123b9004f3add004d
:102a4000c132de00850272004f32dd0064dd880095
:102a500075dd880004d98000f4dd8800c0ba21004b
:102a60001e5d070044a421001442780070426200f9
:102a7000e04f52004c003200f4dd800004d98800a1
:102a800064dd800075dd8000f60f200086036200a3
:102a9000a6af21001643780060436300074373002c
:102aa00006407800fafab700c823de00b6af21006e
:102ab00016437800604363000743730006407800c4
:102ac000fbfab700f60f200086836200c6af210034
:102ad00016437800604363000743730006407800a4
:102ae000fcfab700c82ade00d4af210014427800f7
:102af000604262000542720004407800fdfab700af
:102b000029003700c0ba2100f45c070044a421006a
:102b10001442780070426200e04f520022003200fe
:102b2000f4dd800004d9880064dd800075dd80005c
:102b3000f60f200086036200a6af2100164378003e
:102b4000604363000743730006407800fafab70059
:102b5000c823de00b6af210016437800604363004f
:102b60000743730006407800fbfab700f60f200019
:102b700086836200c6af210016437800604363007d
:102b80000743730006407800fcfab700c82ade004d
:102b9000d4af210014427800604262000542720006
:102ba00004407800fdfab70004d98000cfa2de000f
:102bb00046062000862bb800e021b800820378008a
:102bc000070343008402780044062000042ab8006a
:102bd000050343008602780086992700110009004a
:102be00046aad8000002780014d988000080fa00b4
:102bf000000006000000fa0049ff0700861ba9003c
:102c00000002eb0074dc88000002eb0044dc88006a
:102c10006022b80054dc880065dc8800e91f0700ea
:102c20000002eb003408880011e1a80000e8a900c8
:102c300020e8a800446180000402d10034618800cb
:102c4000446280000402d100346288004463800042
:102c50000402d100346388000bc8a9002bc8a80067
:102c600001eca80021e3a800a00020008e6007006e
:102c700001eca9002fe1a90011e1a9000002eb007d
:102c80003408880020e8a9000002eb00340988001d
:102c90002608a9000080fa00000006000040da00c3
:102ca0000000fe000000fa00001020003202b60012
:102cb0000000e9004f00de000080fa00000006007e
:102cc0000000fa0021e2a9002168a9002188a900da
:102cd0000168a9000188a9000080fa000000060030
:102ce0000000fa0031e2a90023c8a90023e8a900e6
:102cf00003c8a90003e8a9000080fa00000006004c
:102d00000000fa000168a9000188a900e70260003c
:102d1000cc2add00f4ff2800264280000602620073
:102d20000502720024428800800278000507b20084
:102d3000c42ade0084ff2f003642800006026200b3
:102d40000502720034428800e8026000c32ade00f7
:102d5000e1826200cb2add00f47f2f000641800073
:102d60000602620005027200044188000008b200f9
:102d70004700de00610060004c00dd00f4ff2e0023
:102d800005418000050262000002720004418800d3
:102d90000080fa00000006000000fa0003c8a90045
:102da00003e8a900e7026000c82add00f48f2f00c5
:102db00076428000060262000502720074428800ba
:102dc000800278000507b200c82add00f4ff280061
:102dd000764280000602620005027200744288009a
:102de000e8026000c32ade00e1826200ce2add0034
:102df000f4ff2b00164180000602620005027200fb
:102e0000144188000008b2004700de006100600045
:102e10004f00dd00f4ff270015418000050262002d
:102e200000027200144188000080fa0000000600d1
:102e30000000fa0010118000614060000080fa007c
:102e4000000006000000fa00901180006140600060
:102e50000080fa00000006000000fa00421188001d
:102e600000118800111188000080fa00000006009f
:102e70000000fa00c21188008011880091118800ba
:102e80000080fa00000006000000fa0084118000b3
:102e900066026200e60f52000c003a0003003700a1
:102ea0003322ab00feff3a00a5118800b002780083
:102eb000e08f5200faff3a00070037003322ab00e0
:102ec000feff3a008502fb00a5118800b0427800a1
:102ed000e0cf5200f9ff3a000080fa00000006003f
:102ee0000000fa000411800066026200e60f520042
:102ef00002003a00301180000200370030118000db
:102f0000f00fb2000080fa00000006000000fa0096
:102f10008411800066026200e60f520002003a004f
:102f2000b011800002003700b0118000f00fb20035
:102f30000080fa00000006000000fa000411800082
:102f400066026200e60f520001003200f00fb2008c
:102f5000201188000080fa00000006000000fa003e
:102f60008411800066026200e60f52000100320008
:102f7000f00fb200a01188000080fa0000000600e7
:102f8000889fbe008a9fbe008c1f7800a3000700a8
:102f9000aa00330003866c006450e1002e0032006a
:102fa0006420e100330032006150e1002f00320064
:102fb0006120e1003100320085855500eb07b0004b
:102fc0000900200008042000050037000804440020
:102fd00089844c000a0031000603430087834b00bc
:102fe0000001530081815b00f8ff33000203be0043
:102ff0000800a0000804440089844c00f6ff390052
:10300000c639dd0083017300010032001300200087
:103010008904d1000884d3000998a3000500320078
:103020000800a7000300a0008904d1000884d30091
:103030008b05e8008904d1000884d3000001eb006f
:103040000281d2003a00070001f0a1000cf0a700b5
:1030500001f0a000820037006420e100840032000b
:103060000801be000200be00f7ff37006120e1004a
:103070007f0032006000b800f3ff3700000020003e
:1030800001f82700f0ff370014002000ea013700a4
:10309000f4ff2f00e80137000001be004a000700de
:1030a0000470a70003f0a1006509b100160032000a
:1030b0000d0035006828e10006003500f0ff2f0004
:1030c000f1ff27000300e00013003b00010028008f
:1030d0000000050000004000818048008502e900f2
:1030e000fcff3a0008003700f88f420002003c0065
:1030f0008000eb00000005008100d1000080d300bb
:103100008502e800fcff3a000300e00002003b00fb
:1031100060001000e0801800000006004f89de000b
:1031200082017800df0137006011b800ed0137003f
:1031300081002000618055000b003d000b00200045
:1031400061fe2f000100e1001d003400828171004a
:10315000610164008904d1000884d3000000e80004
:10316000faff3a0071002000610064000300700063
:10317000020060000900320061044400e0844c0059
:103180000988a500050032008b05e8006808e10009
:1031900002003a008904d1000884d300f20f200015
:1031a0000258e10005003d00c75ddd00f907b200ef
:1031b0008980750008007800000006000bf82700e1
:1031c0008b00780000000500c70ade00f107b2009e
:1031d000f50fb20008003200e1cf420002003200d9
:1031e0000170a00024000500810f70000100320072
:1031f0000408050044000500810f700002003a0039
:10320000140005008502e9000000400081c048006c
:10321000fcff3b000170a000240005000004be007c
:10322000e9ff07000003be000405be000200be0067
:10323000e5ff0700844f7500000006000200be0095
:103240006450e100050036006420e1000200360011
:103250000968a30001003a000800be000160a00058
:103260004f0678004f05be004f04be000000060068
:10327000f0ff2f00f1ff2700f9ff3700889fbe0005
:103280008a9fbe008c1f7800e4ff0700ebff33002d
:1032900003866c006450e100240032006420e100e9
:1032a000270032006150e100220032006120e1007d
:1032b000210032008b854200eb07b1000134b800d9
:1032c000003ab8000804420089844a00013ab80074
:1032d0000030b8008880400009014a000400330033
:1032e0000000400081804800020149008b05e90090
:1032f000c909dd00830170000100320013002000c5
:10330000c814de004814dd004709de001200b200d8
:10331000c808de000884700085ff070001f0a100e6
:103320000cf0a70001f0a000cdff37006120e10004
:10333000cfff32000801be000200be00f7ff3700d9
:103340006150e100fcff3a00c9ff37000000fa00bd
:10335000889fbe008a9fbe003004be002005be00cc
:103360000404440085844c0006054d0087854d000b
:103370000898be000a90be000440e10005c8e100c4
:1033800006d0e10007d8e1000200310068004000eb
:103390001008e8004f05be004f04be000080fa0090
:1033a000000006001000fa00889fbe008a9fbe0041
:1033b0000605be000404be003002be002003be00ad
:1033c000049fbe000697be000802520089825a0080
:1033d0000a035b008b835b00440798005507980045
:1033e00066079800770798000498be000698be000c
:1033f000110020003e02be002e03be000820e100a6
:1034000009a8e1000ab0e1000bb8e10001003900b1
:103410008000eb00108810004f05be004f04be0076
:103420000080fa00000006001400fa00889fbe0029
:103430008a9fbe008c9fbe00590007000605be0093
:103440000404be000006eb004c0798003c079800ff
:103450002c0798001c0798000c0f78000d04200022
:103460004e039000be029000860343002e0290009f
:10347000e00f530003003d002a000700b3ff0700e0
:103480000200370027000700c6ff0700ce029000a9
:10349000150f9800e08f5200090035004500070025
:1034a00014002000050020006033b8000000720006
:1034b000818072000201730083817300380007006d
:1034c0000c06e8008d0f5600e5ff3a001e0a90003a
:1034d000e00f520004003d000802be000a03be00d7
:1034e0000e00780099ff07004eba9700e00f5200d7
:1034f00006003a003e04be002e05be0058079800a4
:10350000690798007a0798000b0f980029000700b8
:103510004f06be004f05be004f04be000080fa00fb
:10352000000006004f2bde0087037300470798005a
:103530004f23de0085824200850273003507980024
:103540009e0290004f2bde00040242000402730032
:10355000240798001e0278004f23de008582420077
:103560008502730015079800120007004f18de004f
:1035700004024200000f72000e000700000040002d
:10358000818048000201490083814900040007004e
:103590000802be000a03be000e007800000006000c
:1035a000500798006107980072079800030f980071
:1035b000000006005e009000ee0090007e0190008a
:1035c0008e099000000006000000fa00881f7800b5
:1035d00018002000881f780093ff07008f87e900fc
:1035e0004f0478000080fa00000006000000fa0096
:1035f000801feb008cff07008f87e9000080fa0036
:10360000000006000000fa00889fbe008a9fbe00ee
:10361000e00f5000e08f5800e00f5900e08f590094
:103620000c003d006044b8006055b8000000540034
:1036300081805c0002015d0083815d001800200034
:103640001600070008003d00190007000004eb0009
:10365000050037000004eb001000070002003d00e9
:103660001300070018002000d7ff0700e00f5400e8
:10367000060032006022b8006033b800000052003b
:1036800081805a0002015b0083815b004f05be0010
:103690004f04be000080fa0000000600e00f520058
:1036a000e08f5a00e00f5b00e08f5b000000060037
:1036b0006044b8006055b8000402540085825c0084
:1036c00006035d0087835d00000006000000fa002d
:1036d000889fbe008a9fbe008c1f7800e00f5000bc
:1036e000e08f5800e00f5900e08f59000d003d00b9
:1036f0006044b8006055b8000000540081805c0050
:1037000002015d0083815d001c0020000820e100b3
:1037100009a8e1000ab0e1000bb8e1000d003d008e
:10372000080037000006eb00e00f5200e08f5a005f
:10373000e00f5b00e08f5b0006003d006044b800d6
:103740006055b8000402540085825c0006035d00e9
:1037500087835d00a5ff0700e00f560006003200da
:103760006022b8006033b8000000520081805a0027
:1037700002015b0083815b004f0678004f05be00ad
:103780004f04be000080fa00000006000000fa00ae
:10379000889fbe008a9fbe008c1f78000006eb0049
:1037a000e00f5000e08f5800e00f5900e08f590003
:1037b00007003d006044b8006055b80000005400a8
:1037c00081805c0002015d0083815d001c0020009f
:1037d000e00f5200e08f5a00e00f5b00e08f5b00cb
:1037e00007003d006044b8006055b8000402540072
:1037f00085825c0006035d0087835d000c00a200eb
:1038000067000700e00f5600060032006022b80093
:103810006033b8000000520081805a0002015b0052
:1038200083815b004f0678004f05be004f04be0049
:103830000080fa0000000600889fbe008a9fbe003c
:10384000841f780075fe07004f00780011003300d8
:10385000f0ff2f00838f6c0006003b00040565001d
:103860000a00a7000800370009f0a6001000200099
:1038700008003700820f5400838f5c00030039007a
:103880001000200001003e000000200009f0a70009
:103890000000ea004f05be004f04be000000e0003b
:1038a00000000600881f7800030478000300e00091
:1038b00007003d0060001000e08018006001190062
:1038c000e081190002003b0001f02d0003003700e9
:1038d0000400070008f0a70001f0a0004f047800e2
:1038e00000000600889fbe008a9fbe000082700014
:1038f0000402710004827100260032000004be0040
:103900000200be006011b8006b0920009502200083
:103910000182cf000a0039000541b1000082cf00ca
:10392000070039000541b1000982cf0004003900c9
:103930000541b1000882cf00010039000541b10006
:1039400005425200120032000a003b0082817100e1
:10395000610164008100d1000080d3008984d3001c
:103960000884d3008b05e8000442e800f7ff3a0022
:10397000070037000804440089844c000000480018
:10398000818048008b05e9000442e900f9ff3a0014
:10399000e7fd07004f05be004f04be000000060013
:1039a000889fbe008a9fbe008c9fbe000404b800a2
:1039b0000506b8008904460060854e000606b8007a
:1039c0000a054600e0854e000706b8008b05460054
:1039d000040eb800890446000a854e00e0854d00bb
:1039e000050eb8000a0546008b854e00060eb8008d
:1039f0008b0546000416b8000a0546008b854e006c
:103a00000516b8008b054600041eb8008b0546005d
:103a10000800be000a01be004f06be004f05be00f2
:103a20004f04be00000006000000fa00000278000b
:103a300002003700315a78000201e900e00f51001e
:103a4000fcff3a000080fa00000006000000fa00c7
:103a50000002780002003700015a78000201e900f4
:103a6000e00f5100fcff3a000080fa000000060061
:020000040000fa
:103a70007f4600000000000000000000c1c0000000
:103a800081c100004001000001c30000c00300002c
:103a90008002000041c2000001c60000c006000014
:103aa0008007000041c7000000050000c1c50000fc
:103ab00081c400004004000001cc0000c00c0000e4
:103ac000800d000041cd0000000f0000c1cf0000bc
:103ad00081ce0000400e0000000a0000c1ca0000b4
:103ae00081cb0000400b000001c90000c0090000ac
:103af0008008000041c8000001d80000c018000084
:103b00008019000041d90000001b0000c1db00004b
:103b100081da0000401a0000001e0000c1de000033
:103b200081df0000401f000001dd0000c01d00001b
:103b3000801c000041dc000000140000c1d4000023
:103b400081d500004015000001d70000c01700001b
:103b50008016000041d6000001d20000c012000013
:103b60008013000041d3000000110000c1d100000b
:103b700081d000004010000001f00000c0300000c3
:103b80008031000041f1000000330000c1f300006b
:103b900081f200004032000000360000c1f6000053
:103ba00081f700004037000001f50000c03500003b
:103bb0008034000041f40000003c0000c1fc000023
:103bc00081fd0000403d000001ff0000c03f0000fb
:103bd000803e000041fe000001fa0000c03a0000f3
:103be000803b000041fb000000390000c1f90000eb
:103bf00081f800004038000000280000c1e8000003
:103c000081e900004029000001eb0000c02b00000a
:103c1000802a000041ea000001ee0000c02e0000f2
:103c2000802f000041ef0000002d0000c1ed0000da
:103c300081ec0000402c000001e40000c0240000e2
:103c40008025000041e5000000270000c1e70000da
:103c500081e600004026000000220000c1e20000d2
:103c600081e300004023000001e10000c0210000ca
:103c70008020000041e0000001a00000c0600000c2
:103c80008061000041a1000000630000c1a30000aa
:103c900081a200004062000000660000c1a6000092
:103ca00081a700004067000001a50000c06500007a
:103cb0008064000041a40000006c0000c1ac000062
:103cc00081ad0000406d000001af0000c06f00003a
:103cd000806e000041ae000001aa0000c06a000032
:103ce000806b000041ab000000690000c1a900002a
:103cf00081a800004068000000780000c1b8000002
:103d000081b900004079000001bb0000c07b0000c9
:103d1000807a000041ba000001be0000c07e0000b1
:103d2000807f000041bf0000007d0000c1bd000099
:103d300081bc0000407c000001b40000c0740000a1
:103d40008075000041b5000000770000c1b7000099
:103d500081b600004076000000720000c1b2000091
:103d600081b300004073000001b10000c071000089
:103d70008070000041b0000000500000c1900000c1
:103d8000819100004051000001930000c0530000e9
:103d9000805200004192000001960000c0560000d1
:103da000805700004197000000550000c1950000b9
:103db0008194000040540000019c0000c05c0000a1
:103dc000805d0000419d0000005f0000c19f000079
:103dd000819e0000405e0000005a0000c19a000071
:103de000819b0000405b000001990000c059000069
:103df000805800004198000001880000c048000081
:103e00008049000041890000004b0000c18b000088
:103e1000818a0000404a0000004e0000c18e000070
:103e2000818f0000404f0000018d0000c04d000058
:103e3000804c0000418c000000440000c184000060
:103e4000818500004045000001870000c047000058
:103e5000804600004186000001820000c042000050
:103e6000804300004183000000410000c181000048
:103e700081800000404000000001000006010000b9
:103e800093a00000000000000000000000000000ff
:103e90000000000000000000000000000000000022
:103ea0000000000000000000010600000203000006
:103eb000a100000000000000000000000000000061
:103ec00000000000000000000000000000000000f2
:103ed0000000000000010000060300001261000065
:103ee00000000000000000000000000000000000d2
:103ef00000000000000000000000000000000000c2
:103f0000000000000106000004530000a3000000b0
:103f100000000000000000000000000000000000a1
:103f20000000000000000000000000000000000091
:103f30000001000006050000926300000000000080
:103f40000000000000000000000000000000000071
:103f50000000000000000000000000000000000061
:103f60000106000006d20000620000000000000010
:103f70000000000000000000000000000000000041
:103f80000000000000000000000000000001000030
:103f90000707000073cd00000000000000000000d3
:103fa0000000000000000000000000000000000011
:103fb00000000000000000000000000001060000fa
:103fc00008530000a60000000000000000000000f0
:103fd00000000000000000000000000000000000e1
:103fe00000000000000000000001000006090000c1
:103ff00092660000000000000000000000000000c9
:1040000000000000000000000000000000000000b0
:104010000000000000000000010700000a77000017
:104020005d00000000000000000000000000000033
:104030000000000000000000000000000000000080
:104040000000000000010000060b000013a70000a4
:104050000000000000000000000000000000000060
:104060000000000000000000000000000000000050
:1040700000000000010600000c5200006500000076
:104080000000000000000000000000000000000030
:104090000000000000000000000000000000000020
:1040a00000010000060d000093a5000000000000c4
:1040b0000000000000000000000000000000000000
:1040c00000000000000000000000000000000000f0
:1040d000010800000ed30000a40000000000000052
:1040e00000000000000000000000000000000000d0
:1040f00000000000000000000000000000010000bf
:104100000c0f00001264000000000000000000001e
:10411000000000000000000000000000000000009f
:104120000000000000000000000000000106000088
:1041300010930000bb000000000000000000000021
:10414000000000000000000000000000000000006f
:104150000000000000000000000100000612000046
:10416000926c000000000000000000000000000051
:10417000000000000000000000000000000000003f
:104180000000000000000000010600003592000061
:1041900077000000000000000000000000000000a8
:1041a000000000000000000000000000000000000f
:1041b000000000000001000006360000d27600007a
:1041c00000000000000000000000000000000000ef
:1041d00000000000000000000000000000000000df
:1041e000000000000106000038530000b20000008b
:1041f00000000000000000000000000000000000bf
:1042000000000000000000000000000000000000ae
:10421000000100000639000092720000000000005a
:10422000000000000000000000000000000000008e
:10423000000000000000000000000000000000007e
:104240000000000090010000fa000000960000004d
:10425000fa00000096000000640000001400000056
:10426000000000000000000000000000000000004e
:10427000000000000000000000000000000000003e
:1042800000000000640000004664000000460000da
:10429000000000000900000000f400000100000020
:1042a000005800000200000000d600000690000048
:1042b000015e00000103000000000000000000009b
:1042c00000000000000000008403000090010000d6
:1042d000c800000003000000000000000000000013
:1042e00000000000000000000000000000000000ce
:1042f0000000000000000000540b0000000000005f
:1043000000000000000f000000000000000000009e
:104310005e010000fa000000960000005e0100004f
:10432000fa000000960000003200000000000000cb
:10433000000000000000000000000000000000007d
:10434000000000000000000000000000000000006d
:104350006400000046640000002800000000000027
:104360000900000000f400000100000000580000f7
:104370000200000000aa00000590000001c8000033
:10438000000300000000000000000000000000002a
:1043900000000000aa05000090010000c800000015
:1043a0000300000001000000000000000000000009
:1043b00000000000000000000000000000000000fd
:1043c00000000000540b000000000000000000008e
:1043d000000f0000000000000000000000000000ce
:1043e000f40100007e00000000000000000000005a
:1043f000640000000000000000000000002c00002d
:104400000100000000000000003200000000000079
:10441000f4010000010000000000000000010000a5
:10442000000000000000000000000000000a000082
:104430000000000000000000007b00000000000001
:10444000000000000000000000000000000000006c
:10445000000000000000000000000000000000005c
:10446000000000000000000000000000000000004c
:10447000000000000000000000000000000000003c
:10448000000000000000000000000000000000002c
:104490000000000000640000850000000000000033
:1044a000000000007b72000066e70000fd9800003d
:1044b000fd00000000000000640000006500000036
:1044c00066000000800000007d0200008100000006
:1044d00082000000830000000800000015000000ba
:1044e000190000007c020000500000005100000094
:1044f00070000000780000007d0000007e000000d9
:104500007f00000025020000260200005802000083
:104510005b0200005c020000140000001c000000b0
:104520005d0200005e0200005f0200006002000009
:1045300061020000620200006302000068020000e5
:10454000690200006a0200006b0200006c020000b9
:104550006d0200006e0200006f0200007002000099
:104560007102000023030000270300000b0000007d
:104570000b000000670000006800000069000000f8
:104580006a0000006b0000006c0000006e0000007c
:10459000f4010000f5010000f8010000f90100003d
:1045a000fa010000fb010000fc010000fd01000019
:1045b000fe010000ff0100000002000001020000f7
:1045c00002020000030200000402000005020000d5
:1045d00006020000070200000802000009020000b5
:1045e0000a0200000b0200000c0200000d02000095
:1045f0000e0200000f020000100200001102000075
:10460000120200001302000018020000190200004c
:104610001a0200001b0200001c0200001d02000024
:104620001e0200001f020000200200002102000004
:1046300022020000230200002402000027020000e2
:1046400052540000444d0000002b00002452000092
:10465000544400004d2300001b860000002b000086
:10466000244f00004b2300004c080000002d0000e8
:104670002445000001230000d36a00000000000070
:1046800000000000aa2a000054550000fe7f000030
:08469000a8aa000052d50000a9
:020000040000fa
:104698000000fa000042eb000440780048fab70036
:1046a8000042eb000440780049fab70054002000ab
:1046b80064d28800523aa900525aa800527aa90036
:1046c800529aa80052baa90052daa9000002eb00d7
:1046d800b4d288000002eb00a4d38800e4e2800092
:1046e800c4d388000002eb00d4d388000002eb009a
:1046f800e4d388000002eb00f4d388000002eb004a
:1047080004d48800e4e2800084d288000042eb00f0
:10471800044078004ffab70084a4210014427800be
:10472800044078004efab7008400200054d2880074
:104738000002eb0014d488000002eb0024d48800a7
:10474800230ea900533aa900535aa900537aa90085
:10475800539aa90053baa9000002eb0034d4880088
:104768000002eb0044d488000002eb0054d4880017
:104778000002eb0064d48800541aa900543aa80037
:10478800545aa900547aa800549aa9000080fa0043
:10479800000006000000fa00169121001643780078
:1047a8008683fb0026912100164378000683fb00d0
:1047b8004833dd00070373000602780036912100b4
:1047c800164378008683fb00469121001643780043
:1047d8000683fb004833dd00070373008602780078
:1047e8008403780094912100144278008482fb00ad
:1047f800a4912100144278000482fb004822dd00c5
:10480800050272000500200026032000862bb80050
:10481800e020b8000003430084027800240320004d
:10482800042ab80005034300860278001100090035
:1048380047aad8000002780034d488005691210095
:10484800164378008683fb006691210016437800a2
:104858000683fb004833dd00070373000602780077
:1048680076912100164378008683fb00869121000b
:10487800164378000683fb004833dd000703730006
:10488800860278008403780094912100144278000d
:104898008482fb00a4912100144278000482fb006a
:1048a8004822dd00050272000500200026032000d2
:1048b800862bb800e020b80000034300840278008b
:1048c80024032000042ab800050343008602780068
:1048d8001100090047aad8000002780044d48800d3
:1048e80016912100164378008683fb00269121004b
:1048f800164378000683fb004833dd000703730086
:104908000602780036912100164378008683fb0062
:1049180046912100164378000683fb004833dd00ea
:1049280007037300860278008403780084922100cc
:10493800144278008482fb0094922100144278008b
:104948000482fb004822dd000502720005002000f9
:1049580026032000862bb800e020b800000343009f
:104968008402780024032000042ab80005034300c9
:10497800860278001100090047aad80000027800d2
:1049880054d4880056912100164378008683fb0092
:1049980066912100164378000683fb004833dd004a
:1049a8000703730006027800769121001643780009
:1049b8008683fb0086912100164378000683fb005e
:1049c8004833dd000703730086027800840378000b
:1049d80084922100144278008482fb009492210082
:1049e800144278000482fb004822dd0005027200b0
:1049f8000500200026032000862bb800e020b80020
:104a0800000343008402780024032000042ab8002d
:104a180005034300860278001100090047aad80060
:104a28000002780064d48800050007006f090700b9
:104a380050110700920d07000080fa0000000600e0
:104a48000e00fa001e0290000400a000140798004f
:104a58001e0290000410a100140798001e02900086
:104a68000420a100140798001e0290000430a10041
:104a7800140798001e0290000440a1001407980033
:104a88001e0290000450a000140798001e02900017
:104a98000460a100140798001e0290000470a00092
:104aa800140798001e0290000480a00014079800c4
:104ab8001e0290000490a100140798009e02900026
:104ac800f43f200004826200140798002e02900030
:104ad8000400a000240798002e0290000410a100f2
:104ae800240798002e0290000420a10024079800b3
:104af8002e0290000430a100240798002e02900096
:104b08000440a000240798002e0290000450a10041
:104b1800240798002e0290000460a0002407980043
:104b28002e0290000470a100240798002e02900025
:104b38000480a000240798002e0290000490a10091
:104b480024079800ae029000f43f2000048262001f
:104b5800240798003e0290000400a0003407980043
:104b68003e0290000410a100340798003e02900015
:104b78000420a100340798003e0290000430a100f0
:104b8800340798003e0290000440a10034079800c2
:104b98003e0290000450a100340798003e029000a5
:104ba8000460a100340798003e0290000470a10040
:104bb800340798003e0290000480a0003407980053
:104bc8003e0290000490a10034079800be029000b5
:104bd800f43f200004826200340798004e029000df
:104be8000400a000440798004e0290000410a100a1
:104bf800440798004e0290000420a1004407980042
:104c08004e0290000430a100440798004e02900024
:104c18000440a100440798004e0290000450a000f0
:104c2800440798004e0290000460a10044079800d1
:104c38004e0290000470a000440798004e029000b5
:104c48000480a100440798004e0290000490a00040
:104c580044079800ce029000f43f200004826200ce
:104c6800440798005e0290000400a00054079800d2
:104c78005e0290000410a100540798005e029000a4
:104c88000420a100540798005e0290000430a1009f
:104c9800540798005e0290000440a0005407980052
:104ca8005e0290000450a100540798005e02900034
:104cb8000460a000540798005e0290000470a100f0
:104cc800540798005e0290000480a10054079800e1
:104cd8005e0290000490a00054079800de02900045
:104ce800f43f200004826200540798006e0290008e
:104cf8000400a000640798006e0290000410a10050
:104d0800640798006e0290000420a10064079800d0
:104d18006e0290000430a100640798006e029000b3
:104d28000440a100640798006e0290000450a1009e
:104d3800640798006e0290000460a1006407980060
:104d48006e0290000470a100640798006e02900043
:104d58000480a100640798006e0290000490a000ef
:104d680064079800ee029000f43f2000048262007d
:104d7800640798000002eb00040f78001e02780018
:104d8800fc22b80084027800041521000482420045
:104d9800ae429000054a78003e43900016429800c3
:104da80004892100144278008482fb0014892100c0
:104db800144278000482fb004822dd0005027200dc
:104dc800040378001e027800fc22b80084027800f0
:104dd8002415210004824200f50f2000850363009a
:104de80094427800e0c2620087c27200054a7800e7
:104df8004833de0094429000e0c2620086c272002e
:104e080015429800648e2100144278008482fb00c9
:104e1800748e2100144278000482fb004822dd00d1
:104e280005027200040378001e027800fc22b80014
:104e3800840278004415210004824200f50f200006
:104e48008503630094427800e0c2620087c2720062
:104e5800054a78004833de0094429000e0c26200c0
:104e680086c27200154298001e027800fc22b80023
:104e7800840278006415210004824200944278007c
:104e8800e0c26200054a780094429000e0c26200e5
:104e98001542980094912100144278008482fb0006
:104ea800a4912100144278000482fb004822dd000e
:104eb80005027200040378001e027800fc22b80084
:104ec800840278008415210004824200f50f200036
:104ed8008503630094427800e0c2620087c27200d2
:104ee800054a78004833de0094429000e0c2620030
:104ef80086c272001542980036d480001e027800df
:104f0800fc22b80084027800a41521000482420023
:104f1800f50f20008503630094427800e0c2620028
:104f280087c27200054a78004833de009442900038
:104f3800e0c2620086c27200154298001e02780024
:104f4800fc22b80084027800c415210004824200c3
:104f58009442780060c3620085ceb3008542730036
:104f6800054a780094429000e0c262003540b300e0
:104f7800154298001e027800fc22b80084027800ce
:104f8800e4152100048242009442780060c3620064
:104f980085c8b30085427300054a780094429000a2
:104fa800e0c262003541b300154298001e02780045
:104fb800fc22b80084027800041621000482420012
:104fc8009442780060c3620045cfb3008542730005
:104fd800054a780094429000e0c262000504a000ef
:104fe800154298001e0fe8001e027800fc22b80047
:104ff800840278000415210004824200ee429000e9
:10500800054a78007e439000164298001e02e90087
:10501800fc22b8008482e8000415210004824200c2
:10502800144378008682fb00144290000482fb003f
:105038004822dd0005027200040378001e02780091
:10504800fc22b80084027800241521000482420062
:10505800f50f20008503630094427800e0c26200e7
:1050680087c27200054a78004833de0094429000f7
:10507800e0c2620086c27200154298001e02e90072
:10508800fc22b800e4024200041521000482420018
:10509800144378008682fb00144290000482fb00cf
:1050a8004822dd0005027200040378001e02780021
:1050b800fc22b800840278004415210004824200d2
:1050c800f50f20008503630094427800e0c2620077
:1050d80087c27200054a78004833de009442900087
:1050e800e0c2620086c27200154298001e02e90002
:1050f800fc22b800e80242000415210004824200a4
:10510800144378008682fb00144290000482fb005e
:105118004822dd0005027200040378001e027800b0
:10512800fc22b80084027800641521000482420041
:10513800f50f20008503630094427800e0c2620006
:1051480087c27200054a78004833de009442900016
:10515800e0c2620086c27200154298001e02e90091
:10516800fc22b800e8024200041521000482420033
:10517800144378008682fb00144290000482fb00ee
:105188004822dd0005027200040378001e02780040
:10519800fc22b800840278008415210004824200b1
:1051a800f50f20008503630094427800e0c2620096
:1051b80087c27200054a78004833de0094429000a6
:1051c800e0c2620086c27200154298001e02780092
:1051d800fc22b80084027800a41521000482420051
:1051e80094427800e0c26200054a78009442900038
:1051f800e0c26200154298001e0fe8001e02780007
:10520800fc22b800840278000415210004824200c0
:10521800ee429000054a78007e43900016429800be
:105228001e02e900fc22b800e40242000415210035
:1052380004824200144378008682fb0014429000e6
:105248000482fb004822dd00050272000403780096
:105258001e027800fc22b800840278002415210080
:1052680004824200f50f2000850363009442780011
:10527800e0c2620087c27200054a78004833de0047
:1052880094429000e0c2620086c272001542980003
:10529800848e2100144278008482fb00948e2100c1
:1052a800144278000482fb004822dd0005027200e7
:1052b800040378001e027800fc22b80084027800fb
:1052c8004415210004824200f50f20008503630085
:1052d80094427800e0c2620087c27200054a7800f2
:1052e8004833de0094429000e0c2620086c2720039
:1052f800154298001e02e900fc22b800e8024200ac
:105308000415210004824200144378008682fb00c1
:10531800144290000482fb004822dd00050272005e
:10532800040378001e027800fc22b800840278008a
:105338006415210004824200f50f200085036300f4
:1053480094427800e0c2620087c27200054a780081
:105358004833de0094429000e0c2620086c27200c8
:1053680015429800b4912100144278008482fb0011
:10537800c4912100144278000482fb004822dd0019
:1053880005027200040378001e027800fc22b800af
:10539800840278008415210004824200f50f200061
:1053a8008503630094427800e0c2620087c27200fd
:1053b800054a78004833de0094429000e0c262005b
:1053c80086c272001542980046d480001e027800fa
:1053d800fc22b80084027800a4152100048242004f
:1053e800f50f20008503630094427800e0c2620054
:1053f80087c27200054a78004833de009442900064
:10540800e0c2620086c27200154298001e0fe800d2
:105418001e027800fc22b8008402780004152100de
:1054280004824200ee429000054a78007e439000d4
:10543800164298001e02e900fc22b8008482e800a7
:105448000415210004824200144378008682fb0080
:10545800144290000482fb004822dd00050272001d
:10546800040378001e027800fc22b8008402780049
:105478002415210004824200f50f200085036300f3
:1054880094427800e0c2620087c27200054a780040
:105498004833de0094429000e0c2620086c2720087
:1054a800154298001e02e900fc22b800e4024200fe
:1054b8000415210004824200144378008682fb0010
:1054c800144290000482fb004822dd0005027200ad
:1054d800040378001e027800fc22b80084027800d9
:1054e8004415210004824200f50f20008503630063
:1054f80094427800e0c2620087c27200054a7800d0
:105508004833de0094429000e0c2620086c2720016
:10551800154298001e02e900fc22b800e802420089
:105528000415210004824200144378008682fb009f
:10553800144290000482fb004822dd00050272003c
:10554800040378001e027800fc22b8008402780068
:105558006415210004824200f50f200085036300d2
:1055680094427800e0c2620087c27200054a78005f
:105578004833de0094429000e0c2620086c27200a6
:10558800154298001e02e900fc22b800e802420019
:105598000415210004824200144378008682fb002f
:1055a800144290000482fb004822dd0005027200cc
:1055b800040378001e027800fc22b80084027800f8
:1055c8008415210004824200f50f20008503630042
:1055d80094427800e0c2620087c27200054a7800ef
:1055e8004833de0094429000e0c2620086c2720036
:1055f800154298001e027800fc22b8008402780048
:10560800a41521000482420094427800e0c262009e
:10561800054a780094429000e0c262001542980062
:105628001e0fe800f491210014427800e24f520066
:10563800b1003a001e027800fc22b800840278000b
:105648000415210004824200ce429000054a7800e9
:105658005e439000164298001e02e900fc22b80042
:10566800e402420004152100048242001443780039
:105678008682fb00144290000482fb004822dd0071
:1056880005027200040378001e027800fc22b800ac
:10569800840278002415210004824200f50f2000be
:1056a8008503630094427800e0c2620087c27200fa
:1056b800054a78004833de0094429000e0c2620058
:1056c80086c2720015429800e488210014427800ce
:1056d8008482fb00f4882100144278000482fb00d5
:1056e8004822dd0005027200040378001e027800db
:1056f800fc22b8008402780044152100048242008c
:10570800f50f20008503630094427800e0c2620030
:1057180087c27200054a78004833de009442900040
:10572800e0c2620086c27200154298001e02e900bb
:10573800fc22b800e802420004152100048242005d
:10574800144378008682fb00144290000482fb0018
:105758004822dd0005027200040378001e0278006a
:10576800fc22b800840278006415210004824200fb
:10577800f50f20008503630094427800e0c26200c0
:1057880087c27200054a78004833de0094429000d0
:10579800e0c2620086c27200154298001e027800bc
:1057a800fc22b8008402780084152100048242009b
:1057b8009442780060c3620085ccb30085427300d0
:1057c800054a780094429000e0c2620015429800b1
:1057d80046d480001e027800fc22b80084027800bb
:1057e800a415210004824200f50f20008503630000
:1057f80094427800e0c2620087c27200054a7800cd
:105808004833de0094429000e0c2620086c2720013
:10581800154298001e82e800fc22b800f8024200f7
:105828000415210004824200144378008682fb009c
:10583800144290000482fb004822dd000502720039
:10584800040378001e027800fc22b8008402780065
:105858008416210004824200f50f200085036300ae
:1058680094427800e0c2620087c27200054a78005c
:105878004833de0094429000e0c2620086c27200a3
:10588800154298001e82e800fc22b800fa02420085
:105898000415210004824200144378008682fb002c
:1058a800144290000482fb004822dd0005027200c9
:1058b800040378001e027800fc22b80084027800f5
:1058c800a416210004824200f50f2000850363001e
:1058d80094427800e0c2620087c27200054a7800ec
:1058e8004833de0094429000e0c2620086c2720033
:1058f80015429800820137001e027800fc22b80089
:10590800840278000415210004824200ee429000cf
:10591800054a78007e439000164298001e02e9006e
:10592800fc22b800e402420004152100048242006f
:10593800144378008682fb00144290000482fb0026
:105948004822dd0005027200040378001e02780078
:10595800fc22b80084027800241521000482420049
:10596800f50f20008503630094427800e0c26200ce
:1059780087c27200054a78004833de0094429000de
:10598800e0c2620086c2720015429800a48e21000f
:10599800144278008482fb00b48e210014427800ff
:1059a8000482fb004822dd0005027200040378002f
:1059b8001e027800fc22b8008402780044152100f9
:1059c80004824200f50f20008503630094427800aa
:1059d800e0c2620087c27200054a78004833de00e0
:1059e80094429000e0c2620086c27200154298009c
:1059f8001e02e900fc22b800e8024200041521005a
:105a080004824200144378008682fb00144290000e
:105a18000482fb004822dd000502720004037800be
:105a28001e027800fc22b800840278006415210068
:105a380004824200f50f2000850363009442780039
:105a4800e0c2620087c27200054a78004833de006f
:105a580094429000e0c2620086c27200154298002b
:105a6800d4912100144278008482fb00e491210043
:105a7800144278000482fb004822dd00050272000f
:105a8800040378001e027800fc22b8008402780023
:105a98008415210004824200f50f2000850363006d
:105aa80094427800e0c2620087c27200054a78001a
:105ab8004833de0094429000e0c2620086c2720061
:105ac8001542980046d480001e027800fc22b800d7
:105ad80084027800a415210004824200f50f2000fa
:105ae8008503630094427800e0c2620087c27200b6
:105af800054a78004833de0094429000e0c2620014
:105b080086c27200154298001e0fe8001e02780037
:105b1800fc22b800840278000415210004824200a7
:105b2800ee429000054a78007e43900016429800a5
:105b38001e02e900fc22b8008482e8000415210056
:105b480004824200144378008682fb0014429000cd
:105b58000482fb004822dd0005027200040378007d
:105b68001e027800fc22b800840278002415210067
:105b780004824200f50f20008503630094427800f8
:105b8800e0c2620087c27200054a78004833de002e
:105b980094429000e0c2620086c2720015429800ea
:105ba8001e02e900fc22b800e402420004152100ac
:105bb80004824200144378008682fb00144290005d
:105bc8000482fb004822dd0005027200040378000d
:105bd8001e027800fc22b8008402780044152100d7
:105be80004824200f50f2000850363009442780088
:105bf800e0c2620087c27200054a78004833de00be
:105c080094429000e0c2620086c272001542980079
:105c18001e02e900fc22b800e80242000415210037
:105c280004824200144378008682fb0014429000ec
