:020000040000fa
:080000000002040000000000f2
:020000040000fa
:100008005812000058120000581200005812000040
:100018005812000058120000581200005812000030
:100028007e5900001005000058120000cc020000a4
:10003800581200000806000058120000140f0000b3
:10004800a403000058120000f4cc000050af0000d8
:10005800dcac00009e0c0000581200005812000092
:1000680058120000581200005812000058120000e0
:10007800b45a0000c00c00005812000058120000ca
:10008800581200005812000058120000c45800000e
:10009800f40d000058120000e8c2000058120000d9
:1000a80058120000581200005812000058120000a0
:1000b800581200003c0700005812000058120000b7
:1000c8005812000058120000581200005812000080
:1000d800581200005812000058120000ce7200009a
:1000e80018b4000058120000581200000c730000e9
:1000f8005812000058120000581200005812000050
:10010800581200005812000058120000581200003f
:10011800581200005812000058120000581200002f
:10012800581200006eaf000058120000581200006c
:10013800581200005812000058120000581200000f
:1001480058120000581200005812000058120000ff
:1001580058120000581200005812000058120000ef
:1001680058120000581200005812000058120000df
:1001780058120000581200005812000058120000cf
:1001880058120000581200005812000058120000bf
:100198005812000058120000b4b4000058120000b1
:1001a800581200005812000058120000581200009f
:1001b800581200005812000058120000581200008f
:1001c800581200005812000058120000581200007f
:1001d800581200005812000058120000581200006f
:1001e800581200005812000058120000581200005f
:1001f800581200005812000058120000581200004f
:10020800581200005812000058120000581200003e
:10021800581200005812000058120000581200002e
:10022800581200005812000058120000581200001e
:10023800581200005812000058120000581200000e
:1002480058120000581200005812000058120000fe
:1002580058120000581200005812000058120000ee
:1002680058120000581200005812000058120000de
:0c0278005812000058120000581200003c
:020000040000fa
:10040000cfc521000eff2c000e0188000000000067
:1004100000012000200288000c000700c0b12b0062
:10042000010020000f000700000020000000e00095
:100430000200320000000200000000009ec802001e
:10044000000000000040da000000fe00c05f200055
:100450000000e0000200320000202000900188002f
:1004600000000600a1028800800078000000eb0078
:100470001a003700e280400054a0b4009101ba0095
:10048000e280400054a0b4009102ba00e280400033
:1004900054a0b4000002eb00472bde00f507b200c9
:1004a000a6018800602ce10008003a000049eb003a
:1004b0000201e800020039003420ec0002f0a00044
:1004c0008301e900f9ff3e00040037006128e100e4
:1004d000010032000082eb00040007001101ba00a5
:1004e0000200e000e3ff3a000000060004d0a30091
:1004f000e20f49001c003900810278003549ba003a
:100500000201e800020039003420ec0002f0a000f3
:100510008301e9000f0032002549ba000201e8001a
:10052000020039003420ec0002f0a0008301e90051
:10053000080032000400e0000600320015c9ba00cd
:100540000201e800020039003420ec0002f0a000b3
:100550008301e9008180e80054a0b4000300e000ba
:10056000e2ff3a00000006009102ba000559780047
:100570008301e900f7ff3200c82ade000559780040
:100580008301e900f3ff32000400e000f1ff3200d4
:1005900011d9ba00eeff37003600f800809fbe0088
:1005a000829fbe00849fbe00869fbe000000fa00ae
:1005b0000068a9004303070014e180000402e8007a
:1005c00014e1880015e1800084022000848f52002d
:1005d000020034000002eb0054d6880084a42100fd
:1005e00014427800e14f52003d003a0074a421000b
:1005f00014427800e14f520039003a0084ae2100e5
:1006000014427800e04f520011003a0054d68000a6
:100610008402780084922100144278000483fb0055
:1006200094922100144278000482fb004822dd00ed
:1006300006027200441fb000848f52002f00360063
:1006400014c0b30004407800e8fab7003000370067
:1006500084ae210014427800e14f520029003a0094
:1006600054d68000840278008492210014427800dd
:100670000483fb0094922100144278000482fb0062
:100680004822dd0006027200441fb000848f520031
:10069000070031000042eb0004407800e8fab700a0
:1006a0000042eb0004407800e9fab7001800370078
:1006b00094ae2100144278000442e800044078001f
:1006c000e9fab70094ae210014427800e74f4200e7
:1006d0000e003600aa98a800602e07000c00370014
:1006e0000042eb0004407800e8fab7000042eb005b
:1006f00004407800e9fab700050037000000000068
:100700000300370000000000010037000000000077
:1007100024a52100144278000442b200e04f5200a8
:10072000010032006b030700380007000080fa0068
:100730004f03be004f02be004f01be004f00be007f
:100740003600f90000400600849fbe00869fbe0070
:100750000000fa000108a900740880006123b800b5
:10076000c4d68000d5d680000602420087824a00a7
:10077000c4d68800d5d688000080fa004f03be009a
:100780004f02be00004006000000fa001470800016
:100790004822de00614262008482fb001471800006
:1007a0004622de00614262000482fb000402420035
:1007b00084824200947280000442780061426200a8
:1007c0000482fb004222dd000482420004d688003d
:1007d00005d6800044c22100048242001442780001
:1007e0000402fb0014d6880014d68000e10f4200fa
:1007f00002003a0024d6800014d6880014d6800067
:10080000040078000080fa00000006000000fa00f2
:1008100024a521001442780062426200e04f520099
:1008200043003a0024a5210014427800644262008b
:10083000e04f52003e003a0084a4210014427800a8
:10084000e04f520013003a00f5d6800004d7800034
:10085000848f52000b003a000002eb00e4d68800bf
:10086000f4d680000402e80004d7880004d7800092
:10087000e50f5200190034000002eb0004d7880095
:1008800016003700e4d680000402e800e4d68800b1
:1008900012003700f5d6800014d78000848f5200f4
:1008a0000b003a000002eb00e4d68800f4d680008a
:1008b0000402e90014d7880014d78000e00f52002a
:1008c00006003d005400200014d7880003003700c4
:1008d000e4d680000402e800e4d68800e5d6800073
:1008e00004712200848f52000f0034004400200065
:1008f00064d288001400200024a0880064d6800000
:10090000c4e08800c4e08000cfa2de00860c200096
:100910001100090046aad80000027800e4e088002f
:10092000a6b8a80004003700a6b8a9000200370046
:100930000002eb00e4d688000080fa000000060008
:100940000000fa0075a421009542780084a42100db
:100950001442780084cf52000c003a0084a4210095
:1009600014427800e14f520004003a000042eb00cc
:100970000440780008f4b700270037000042eb007d
:100980000440780009f4b7002300370084a4210054
:1009900014427800e14f520006003a0084402100e2
:1009a000144278000442e8000440780008f4b700dc
:1009b0000500370094402100144278000442e8000a
:1009c0000440780009f4b700854021009542780082
:1009d00064ae21001442780084cf52000400360037
:1009e000844021001442780004407800e6fab70001
:1009f000954021009542780074ae210014427800a1
:100a000084cf520004003600944021001442780044
:100a100004407800e7fab7000080fa000000060002
:100a20003600f800809fbe00829fbe00849fbe00fb
:100a3000869fbe000400fa000042eb00044f7800dd
:100a40000028a90050ff0700000278001407980052
:100a50009e02900024d68000848f520065003200f0
:100a600014d68000e10f4200620032000002eb0069
:100a700074d488001e029000e00f52000300320080
:100a80001e029000e30f52002a003a000042eb00e1
:100a90000440780047fab700f4d680009e02900028
:100aa000848f5200060034001e02900084427800b9
:100ab000f4d680000442780004cf520006003700cc
:100ac0001e02900084427800f4d680000442780030
:100ad00004c25200664f420075e180001e43780058
:100ae0000682fb000482520074e188001e00900020
:100af000f0d6880024a521001442780062426200ea
:100b0000e04f520008003a0024a52100144278006a
:100b100064426200e04f520003003a001e0290005f
:100b200004007800500107001e02900024d68800bf
:100b30002f0037001e029000e50f52000300320024
:100b40001e029000e20f520029003a0014c0b300c8
:100b50000440780047fab700f5d680001e029000e6
:100b6000848f520006003400f4d68000844278005e
:100b70001e0290000442780004cf520006003700a5
:100b8000f4d68000844278001e029000044278006f
:100b900004c25200664f42001e4278008482fb006d
:100ba00074e180000482420074e188001e0390001a
:100bb000f6d6880024a52100144278006242620023
:100bc000e04f520008003a0024a5210014427800aa
:100bd00064426200e04f520003003a001e0290009f
:100be00004007800200107001e02900024d688002f
:100bf00053ff07000080fa004f03be004f02be0003
:100c00004f01be004f00be003600f9000040060054
:100c10003600f800809fbe00829fbe00849fbe0009
:100c2000869fbe000400fa000042eb00044f7800eb
:100c300000a8a9000002eb0014e18800d2fe070022
:100c400000027800140798009e02900024d68000cd
:100c5000848f52008100320014d68000e10f4200e0
:100c60007e0032000002eb0074d488001e02900067
:100c7000e50f5200030032001e029000e20f520006
:100c800038003a000042eb000440780047fab70011
:100c9000f4d680009e029000848f5200060034003b
:100ca0001e02900084427800f4d68000044278004e
:100cb00004cf5200060037001e02900084427800e4
:100cc000f4d680000442780004c25200664f42000d
:100cd00075e180001e4378000682fb00048252000a
:100ce00074e1880013e1a900540880006123b80072
:100cf000c4d68000d5d680000602420087824a0012
:100d0000c4d68800d5d688000002eb0054088800bd
:100d100013e1a80014002000b4d688001e00900043
:100d2000f0d6880024a521001442780062426200b7
:100d3000e04f520008003a0024a521001442780038
:100d400064426200e04f520003003a001e0290002d
:100d500004007800c40007001e02900024d688001a
:100d60003d0037001e029000e40f520003003200e5
:100d70001e029000e10f520037003a0014c0b30089
:100d80000440780047fab700f5d680001e029000b4
:100d9000848f520006003400f4d68000844278002c
:100da0001e0290000442780004cf52000600370073
:100db000f4d68000844278001e029000044278003d
:100dc00004c25200664f42001e4278008482fb003b
:100dd00074e180000482420074e1880013e1a900fc
:100de000540880006123b800c4d68000d5d68000a6
:100df0000602420087824a00c4d68800d5d6880001
:100e00000002eb005408880013e1a8001400200041
:100e1000b4d688001e039000f6d6880024a52100d1
:100e20001442780062426200e04f520008003a002b
:100e300024a521001442780064426200e04f520071
:100e400003003a001e0290000400780086000700ac
:100e50001e02900024d68800b9fe07000080fa0028
:100e60004f03be004f02be004f01be004f00be0048
:100e70003600f900004006003600f800809fbe00f2
:100e8000829fbe00849fbe00869fbe000400fa00c1
:100e90000042eb00044f780004a8a9003afe0700c6
:100ea00000027800140798009e02900024d680006b
:100eb000848f52006500320014d68000e10f42009a
:100ec000620032000002eb0074d488001e02900021
:100ed000e10f5200030032001e029000e40f5200a6
:100ee0002a003a000042eb000440780047fab700bd
:100ef000f4d680009e029000848f520006003400d9
:100f00001e02900084427800f4d6800004427800eb
:100f100004cf5200060037001e0290008442780081
:100f2000f4d680000442780004c25200664f4200aa
:100f300075e180001e4378000682fb0004825200a7
:100f400074e188001e009000f0d6880024a52100de
:100f50001442780062426200e04f520008003a00fa
:100f600024a521001442780064426200e04f520040
:100f700003003a001e029000040078003a000700c7
:100f80001e02900024d688002f0037001e02900019
:100f9000e00f5200030032001e029000e30f5200e7
:100fa00029003a0014c0b3000440780047fab700a3
:100fb000f5d680001e029000848f52000600340097
:100fc000f4d68000844278001e029000044278002b
:100fd00004cf520006003700f4d680008442780027
:100fe0001e0290000442780004c25200664f420084
:100ff0001e4278008482fb0074e18000048242007b
:1010000074e188001e039000f6d6880024a5210014
:101010001442780062426200e04f520008003a0039
:1010200024a521001442780064426200e04f52007f
:1010300003003a001e029000040078000a00070036
:101040001e02900024d688003dfe07000080fa00b2
:101050004f03be004f02be004f01be004f00be0056
:101060003600f900004006000200fa00000f780088
:1010700064d68000e00f520001003d0002eea9009e
:1010800055d68000b4122000848f52000a0034002c
:10109000f4e080000402e800f4e08800f5e080005d
:1010a000147d2000848f520010003400247d200025
:1010b000f4e088000d003700f5e08000d43820000f
:1010c000848f520003003400f4e080007402520068
:1010d000f4e08800f5e08000e4382000848f5200be
:1010e00002003c00e4382000f4e0880064d6800070
:1010f000e00f52000400350084a42100144278005f
:10110000e04f52000700320064d68000e00f52002a
:101110002e003d0084a4210014427800e14f5200cb
:101120002a003a001e027800050020006600200018
:1011300027c321001100090046aad800810b7800be
:101140000002780084e1880084a421001442780021
:10115000e04f520010003a0024a52100144278000c
:1011600062426200e04f52000b003a0094e18000be
:101170008402420024f32900048242009402780091
:10118000f4e0800004824200d4d58800d4d58000e9
:10119000e4d588000a00370094e180008402420010
:1011a00024f329000482420094027800f4e08000d5
:1011b00004824200d4d58800d4d58000e4d58800cc
:1011c00024002000f4d588003c00370064d680005d
:1011d000e00f52000400350084a42100144278007e
:1011e000e14f52000700320064d68000e00f520049
:1011f00032003d0084a4210014427800e04f5200e8
:101200002e003a009e027800638242000500200012
:101210006600200027c321001100090046aad8005b
:10122000810b78000002780084e1880084a421000a
:1012300014427800e04f520014003a0024a5210027
:101240001442780062426200e04f52000f003a0000
:1012500094e180008402420024f3290004824200c9
:10126000140278008402780004e18000040378000e
:1012700054d980000402530004824200d4d588006f
:10128000d4d58000e4d588000a00370094e18000be
:101290008402420024f32900048242009402780070
:1012a00004e1800004824200d4d58800d4d58000b7
:1012b000e4d5880014002000f4d588000080fa00ee
:1012c000000006000000fa002200f8002400f800e8
:1012d0002600f800b4d68000e00f5200090032006a
:1012e000c4d68000d5d6800034d6880045d6880084
:1012f0006022b800c4d68800d5d688000002eb0072
:10130000b4d6880036d6800047d68000a42a2000b4
:1013100005002000840f5300858f5b0005003e0010
:10132000b42a20000500200034d6880045d6880065
:101330000b00370036d6800047d68000f4592d00c8
:1013400005002000840f5300858f5b0004003600e9
:10135000f4592d000500200034d6880045d68800b9
:1013600036d6800047d6800014d5800025d5800071
:101370000403530085835b0084d6800005002000b1
:101380008438b8008629b800820078000100400047
:1013900006037800040278000432b800050040001b
:1013a0008002780096d68000a7d680000402430011
:1013b00085824b0094d68800a5d6880094d68000fc
:1013c000a5d68000412bdd004f22de000402730011
:1013d000cf2ade0014d5880025d5880014d58000da
:1013e00025d580000403780074922b00950220001c
:1013f0001100090046aad8000002780054d68800df
:1014000014d5800025d580000403780004802500d1
:10141000b50120001100090046aad800000278009a
:1014200024d7880055d68000c4032000110009008d
:101430008402d80000027800cfa2de000400be00c3
:101440003b0507000002be00020020000304240048
:101450000400be008e0507000002be00020020004e
:10146000433b24000400be00890507000002be00c3
:1014700002002000a34724000400be00c5040700aa
:101480000002be000400be00080507000002be0006
:1014900084027800640b20001301c0000400cc001b
:1014a00004d5880084a4210014427800e14f520042
:1014b00003003a0004d580000402ea0004d5880045
:1014c0002600f9002400f9002200f9000080fa004b
:1014d000000006000000fa0064e18000a4d5880046
:1014e00054d68000b4d588008426240084d5880092
:1014f000c4e080000402ea0094d5880034a52100ed
:101500001442780070426200e04f520005003a0039
:10151000e5d6800064092000848f52000100340069
:10152000539aa80034a5210014427800704262004a
:10153000e04f52002100320055d68000740c20008c
:10154000848f520004003c0064d680006a0242008e
:1015500064d6880022003700539aa90054d6800030
:10156000a4d5880054d68000b4d5880064d6800005
:101570006123b9004f3add00c132de0085027200fe
:101580004f32dd0034d5880045d5880064d6800010
:10159000c4d5880060aa2100e95c070044a42100aa
:1015a0001442780068426200e04f52000c003200a2
:1015b000c4d5800064d688000900370060aa2100e5
:1015c000df5c070044a421001442780068426200f6
:1015d000e04f520002003200c4d5800064d688007b
:1015e00064d68000cfa2de0046062000862bb8001d
:1015f000e020b800800378000703430084027800ed
:1016000044062000042ab80005034300860278003f
:10161000869927001100090046aad8000002780028
:1016200074d688000080fa00000006000600fa0068
:101630000002eb00b4d688006022b800c4d688004f
:10164000d5d688000002eb0054d6880004c82000dc
:1016500064d68800f4592d000500200034d6880097
:1016600045d68800f4592d000500200014d58800c7
:1016700025d58800047d200084d688000400280039
:10168000f5ac260094d68800a5d6880014d5800035
:1016900025d580000403780004802500b5012000d2
:1016a0001100090046aad8000002780024d788005b
:1016b000147080004822de00614262008482fb00d8
:1016c000147180004622de00614262000482fb0049
:1016d0000402420084824200947280000442780036
:1016e000614262000482fb004222dd00048242006b
:1016f00004d6880005d6800044c22100048242003e
:10170000144278000402fb0014d6880014d680002e
:1017100024d6880024d68000f4d68800f4d6800031
:101720000400780050fe0700f4d680000402e800b0
:1017300004d7880004d78000e50f5200020034006f
:101740000002eb0004d78800f4d680000402e90010
:1017500014d7880014d78000e00f520002003d002b
:101760005400200014d788000002eb00e4d6880063
:101770000002eb0074d4880084a421001442780095
:10178000e04f520017003a00348f210014427800d5
:101790008482fb00448f2100144278000482fb0005
:1017a0004822dd0005027200e00f520003003a00fb
:1017b00004712200040f780020003700348f2100cc
:1017c000144278008482fb00448f21001442780088
:1017d0000482fb004822dd0005027200040f78003d
:1017e00016003700548f2100144278008482fb00d9
:1017f000648f2100144278000482fb004822dd003f
:1018000005027200e00f520003003a008438210004
:10181000040f780009003700548f2100144278002b
:101820008482fb00648f2100144278000482fb0054
:101830004822dd0005027200040f780084a4210014
:1018400014427800e04f52001b003a0064902100df
:10185000144278008482fb007490210014427800c6
:101860000482fb004822dd00050272008402780039
:1018700044062000842ab8001407980084902100b0
:10188000144278000482fb00ea22b8002407980082
:10189000c4e080008402ea00c4e080000003eb00a2
:1018a000f3ff27002e0190009e00900060aa210007
:1018b000b85b07001b0037009490210014427800a9
:1018c0008482fb00a4902100144278000482fb0073
:1018d0004822dd00050272008402780044062000e0
:1018e000842ab80014079800b490210014427800ac
:1018f0000482fb00ea22b80024079800c4e08000bc
:101900000402ea000003eb0084027800843821001e
:10191000f3ff27002e0190009e00900060aa210096
:101920009c5b07000080fa00000006000000fa003f
:101930003eff07000080fa00000006003600f800b5
:10194000809fbe00829fbe00849fbe00869fbe0017
:101950000000fa0001a8a90004188000b4d788008c
:10196000470107000080fa004f03be004f02be008f
:101970004f01be004f00be003600f90000400600d7
:101980003600f800809fbe00829fbe00849fbe008c
:10199000869fbe00881f78000400fa006022b8000d
:1019a000048fbe0002a8a900041a800005002000d0
:1019b0000400be00e10307000002be000200200098
:1019c000030124000400be00720307000002be00f1
:1019d000048fbe0084e2800095e2800018c0b3004e
:1019e0000401be001e00be00ae0307000002780026
:1019f000e00f520001003c000044eb00e04f5400b7
:101a00000c00320074c5210014427800e04f5200ef
:101a100008003a00a4db800064d9880014c0b30039
:101a20000440780057fcb7000042eb000440780007
:101a300056fcb70074c5210014427800e14f5200f3
:101a40001a003a0064c5210014427800e04f5200a9
:101a500016003a0065d98000047122008482420099
:101a6000a4db8000848f520010003e0024c0b3002d
:101a70000440780057fcb7001471800004427800dd
:101a80006142620004c2ea00614262000482fb001b
:101a90006102620016718000e5ff2f00850263007d
:101aa0000482720014718800aa38a90064e28000e0
:101ab00075e2800018c0b3000401be001e00be0025
:101ac0007603070000027800e00f520001003400a6
:101ad0000044eb00e04f54001000320074c52100b8
:101ae00014427800e04f52000c003200a4db80006a
:101af00074d9880064c5210014427800e04f520078
:101b000006003a0014c0b3000440780056fcb70049
:101b10000042eb000440780057fcb70074c5210078
:101b200014427800e04f52000a003a0064c52100d8
:101b300014427800e14f520006003a0075d9800047
:101b40000471220084824200a4db8000848f520052
:101b50001000360018c0b30002002000832c2400bf
:101b60001e00be004d03070000027800e00f520087
:101b7000010034000044eb00e04f5400120032003a
:101b8000a48a21001442780062426200e04f5200b1
:101b90000d003a0014718000044278006142620036
:101ba00004c2ea00614262000482fb00610262003a
:101bb00016718000e5ff2f00850263000482720029
:101bc00014718800aa38a8000080fa004f04780039
:101bd0004f03be004f02be004f01be004f00be00cb
:101be0003600f900004006000000fa000388a90052
:101bf0000080fa00004006000000fa0017290700e4
:101c000075e18000f40f20000483620084892100c4
:101c1000144278006042620006427200044078007c
:101c200098f8b700c82ade00948921001442780091
:101c300060426200054272000440780099f8b700e3
:101c4000f48921001442780068426200e04f52009b
:101c50002c003200e4882100144278008482fb00ca
:101c6000f4882100144278000482fb004822dd0041
:101c700005027200840078000000eb002d3c070094
:101c800004892100144278008482fb001489210019
:101c9000144278000482fb004822dd000502720035
:101ca0008400780020002000223c070024892100c5
:101cb000144278008482fb003489210014427800a9
:101cc0000482fb004822dd000502720084007800d7
:101cd00040002000173c070044892100144278008e
:101ce0008482fb0054892100144278000482fb00a6
:101cf0004822dd00050272008400780060002000a8
:101d00000c3c070084892100144278008482fb0087
:101d100094892100144278000482fb004822dd00ef
:101d20000502720084007800a0002000013c07003a
:101d300064892100144278008482fb0074892100a8
:101d4000144278000482fb004822dd000502720084
:101d50008400780080002000f63b0700ac430700b9
:101d6000468d2100164378008683fb00568d2100a6
:101d7000164378000683fb004833dd000703730039
:101d800006027800668d2100164378008683fb00ea
:101d9000768d2100164378000683fb004833dd0072
:101da00007037300860278000401be00700620005d
:101db000fa3b0700968d2100164378008683fb00ce
:101dc000a68d2100164378000683fb004833dd0012
:101dd0000703730006027800b68d210016437800d1
:101de0008683fb00c68d2100164378000683fb0026
:101df0004833dd0007037300860278000401be004b
:101e0000c0062000e53b0700448c21001442780006
:101e10008440780070052000a33b07009943070029
:101e20000080fa00000006003600f800809fbe0027
:101e3000829fbe00849fbe00869fbe000000fa0005
:101e400000e8a90070000700ae5d070024a521008e
:101e5000144278000444b200e04f52000100320006
:101e6000de0007000080fa004f03be004f02be00f4
:101e70004f01be004f00be003600f90000400600d2
:101e80000000fa00a4ae2100144278006142620012
:101e9000e04f520023003a00b4d780006123b9001c
:101ea00074d7800085d780000602420087824a00ee
:101eb00074d7880085d7880064d780000402e800c2
:101ec00064d7880065d7800034062000848f5200d4
:101ed0001f00340064d780000403780074d78000aa
:101ee00085d780001100090046aad80000027800ba
:101ef00094d7880094d780000540200004825200c7
:101f00000403780004532700050020001100090095
:101f100046aad80000027800a4d78800ea1aa800d0
:101f20000b003700b4d78000c4d78800c5d7800025
:101f300094d78000848f520005003400c5d78000fc
:101f400094d7800004825200c4d7880002000700a2
:101f50000080fa00000006000000fa00c4d78000ec
:101f60006123b90004d8800015d880000403530011
:101f700085835b00d4d78000050020008438b8003a
:101f80008629b8008200780001004000060378002e
:101f9000040278000432b800050040008002780096
:101fa000e6d78000f7d780000402430085824b000b
:101fb000e4d78800f5d78800e4d78000f5d7800003
:101fc000412bdd004f22de0004027300cf2ade0029
:101fd00004d8880015d88800a4d78000cfa2de00de
:101fe0000403780004d8800015d88000040278002b
:101ff0008432b80024d8880024d88000b4e0880057
:102000000080fa00000006000200fa000002eb0067
:10201000040f780024d8800024d9880025d98000b6
:10202000c4122000848f52003a00360025d9800067
:1020300034d980000482520044d9880044d98000f9
:10204000e00f52001a003d0045d98000e4ee2f0059
:10205000848f520031003d0044d980000402ea0020
:1020600044d9880044d98000cfa2de003611200078
:102070001100090046aad80000027800040f780079
:1020800054d98000e00f52000600320055d980007c
:102090001e037800640b20008432b80004825200d2
:1020a00054d9880024d9800034d988001b00370017
:1020b00045d9800024112000848f5200170034007d
:1020c00044d98000cfa2de003611200011000900a3
:1020d00046aad80000027800040f780055d9800085
:1020e000d45a2200848f520007003e009e027800de
:1020f000640b2000842ab8008402780054d9800040
:102100000482420054d9880024d9800034d9880040
:10211000020037000002eb0054d988000080fa006a
:10212000000006000000fa00020007000080fa002c
:10213000000006000000fa000002eb00b4d788009f
:1021400014002000c4d7880064042000d4d788007d
:102150000400280005002000e4d78800f5d7880097
:10216000140020000500200004d8880015d888003d
:102170006022b80044d8880055d888000002eb00df
:1021800064d888000002eb0074d888000002eb00dd
:1021900024d888000002eb0024d98800c412200053
:1021a00034d988000002eb0044d988000002eb001b
:1021b00054d98800c4e080000003eb008002eb00eb
:1021c000f3ff270042382000812c230000b12100ba
:1021d000705907000080fa00000006000000fa00b5
:1021e00034d88000f4d8880024d8800004d988002e
:1021f000c4e08000d4d888000002eb00e4d8880056
:1022000034a521001442780070426200e04f520071
:102210004100320055d68000b4122000848f520055
:1022200004003c0064d680006a02420064d6880044
:1022300062003700539aa90024d88000f4d888009f
:1022400024d8800004d9880064d680006123b900b6
:102250004f3add00c132de00850272004f32dd00f0
:1022600084d8880095d8880064d6800014d9880066
:1022700000b12100b259070044a4210014427800a3
:1022800070426200e04f52004c00320014d98000ce
:1022900064d6880084d8800095d88000f60f20008e
:1022a0008603620066aa210016437800604363003b
:1022b0000743730006407800a6fab700c823de0083
:1022c00076aa210016437800604363000743730039
:1022d00006407800a7fab700f60f20008683620058
:1022e00086aa210016437800604363000743730009
:1022f00006407800a8fab700c82ade0094aa210098
:102300001442780060426200054272000440780086
:10231000a9fab7002900370000b121008859070049
:1023200044a421001442780070426200e04f520041
:102330002200320014d9800064d6880084d880003e
:1023400095d88000f60f20008603620066aa21005f
:10235000164378006043630007437300064078002b
:10236000a6fab700c823de0076aa2100164378003b
:10237000604363000743730006407800a7fab70084
:10238000f60f20008683620086aa2100164378009b
:10239000604363000743730006407800a8fab70063
:1023a000c82ade0094aa210014427800604262002c
:1023b0000542720004407800a9fab70064d6800094
:1023c000cfa2de0046062000862bb800e021b80030
:1023d000820378000703430084027800440620004b
:1023e000042ab80005034300860278008699270076
:1023f0001100090046aad8000002780074d68800af
:102400000080fa00000006000000fa0049ff070003
:10241000ea1aa9000002eb0094d788000002eb0042
:1024200064d788006022b80074d7880085d78800f8
:10243000d11f07000002eb003408880011e1a8005a
:1024400000e8a90020e8a800446180000402d1004f
:1024500034618800446280000402d1003462880044
:10246000446380000402d100346388000bc8a900d3
:102470002bc8a80001eca80021e3a800a0002000c0
:102480001a5d070001eca9002fe1a90011e1a900e4
:102490000002eb003408880020e8a9000002eb00ed
:1024a000340988002608a9000080fa000000060010
:1024b0000040da000000fe000000fa0000102000da
:1024c0003202b6000000e9004f00de000080fa0092
:1024d000000006000000fa0021e2a9002168a9001e
:1024e0002188a9000168a9000188a9000080fa00dc
:1024f000000006000000fa0031e2a90023c8a9008c
:1025000023e8a90003c8a90003e8a9000080fa0095
:10251000000006000000fa000168a9000188a90077
:10252000e7026000cc2add00f4ff2800264280008c
:1025300006026200050272002442880080027800d0
:102540000507b200c42ade0084ff2f003642800057
:10255000060262000502720034428800e802600050
:10256000c32ade00e1826200cb2add00f47f2f0067
:1025700006418000060262000502720004418800e4
:102580000008b2004700de00610060004c00dd0082
:10259000f4ff2e0005418000050262000002720077
:1025a000044188000080fa00000006000000fa00e4
:1025b00003c8a90003e8a900e7026000c82add00fb
:1025c000f48f2f007642800006026200050272003e
:1025d00074428800800278000507b200c82add0036
:1025e000f4ff2800764280000602620005027200b5
:1025f00074428800e8026000c32ade00e1826200c3
:10260000ce2add00f4ff2b00164180000602620096
:1026100005027200144188000008b2004700de0085
:10262000610060004f00dd00f4ff270015418000cd
:102630000502620000027200144188000080fa0066
:10264000000006000000fa001011800061406000e8
:102650000080fa00000006000000fa0090118000df
:10266000614060000080fa00000006000000fa00ef
:102670004211880000118800111188000080fa00c2
:10268000000006000000fa00c211880080118800d6
:10269000911188000080fa00000006000000fa0096
:1026a0008411800066026200e60f52000c003a00be
:1026b000030037003322ab00feff3a00a51188006b
:1026c000b0027800e08f5200faff3a0007003700ae
:1026d0003322ab00feff3a008502fb00a511880003
:1026e000b0427800e0cf5200f9ff3a000080fa00d3
:1026f000000006000000fa0004118000660262007b
:10270000e60f520002003a0030118000020037004c
:1027100030118000f00fb2000080fa0000000600c7
:102720000000fa008411800066026200e60f520089
:1027300002003a00b011800002003700b0118000a2
:10274000f00fb2000080fa00000006000000fa005e
:102750000411800066026200e60f520001003200a0
:10276000f00fb200201188000080fa00000006007f
:102770000000fa008411800066026200e60f520039
:1027800001003200f00fb200a01188000080fa00b2
:1027900000000600889fbe008a9fbe008c1f780044
:1027a000a3000700aa00330003866c006450e10018
:1027b0002e0032006420e100330032006150e1005d
:1027c0002f0032006120e100310032008585550084
:1027d000eb07b000090020000804200005003700c6
:1027e0000804440089844c000a00310006034300b9
:1027f00087834b000001530081815b00f8ff3300a9
:102800000203be000800a0000804440089844c00b4
:10281000f6ff3900c639dd00830173000100320084
:10282000130020008904d1000884d3000998a30074
:10283000050032000800a7000300a0008904d100b1
:102840000884d3008b05e8008904d1000884d300f4
:102850000001eb000281d2003a00070001f0a10064
:102860000cf0a70001f0a000820037006420e10016
:10287000840032000801be000200be00f7ff3700ee
:102880006120e1007f0032006000b800f3ff3700f4
:102890000000200001f82700f0ff3700140020009e
:1028a000ea013700f4ff2f00e80137000001be0005
:1028b0004a0007000470a70003f0a1006509b100f9
:1028c000160032000d0035006828e10006003500d2
:1028d000f0ff2f00f1ff27000300e00013003b0092
:1028e0000100280000000500000040008180480031
:1028f0008502e900fcff3a0008003700f88f42002b
:1029000002003c008000eb00000005008100d100c7
:102910000080d3008502e800fcff3a000300e000dd
:1029200002003b0060001000e0801800000006007c
:102930004f89de0082017800df0137006011b800a6
:10294000ed01370081002000618055000b003d0043
:102950000b00200061fe2f000100e1001d0034008b
:1029600082817100610164008904d1000884d30070
:102970000000e800faff3a007100200061006400e6
:10298000030070000200600009003200610444008e
:10299000e0844c000988a500050032008b05e800a2
:1029a0006808e10002003a008904d1000884d300dd
:1029b000f20f20000258e10005003d00c75ddd0078
:1029c000f907b20089807500080078000000060051
:1029d0000bf827008b00780000000500c70ade0016
:1029e000f107b200f50fb20008003200e1cf42005b
:1029f000020032000170a00024000500810f700069
:102a0000010032000408050044000500810f700039
:102a100002003a00140005008502e90000004000b1
:102a200081c04800fcff3b000170a00024000500ad
:102a30000004be00e9ff07000003be000405be005d
:102a40000200be00e5ff0700844f7500000006008d
:102a50000200be006450e100050036006420e10081
:102a6000020036000968a30001003a000800be0019
:102a70000160a0004f0678004f05be004f04be0065
:102a800000000600f0ff2f00f1ff2700f9ff3700dc
:102a9000889fbe008a9fbe008c1f7800e4ff07005d
:102aa000ebff330003866c006450e1002400320029
:102ab0006420e100270032006150e1002200320072
:102ac0006120e100210032008b854200eb07b1005c
:102ad0000134b800003ab8000804420089844a0072
:102ae000013ab8000030b8008880400009014a006f
:102af00004003300000040008180480002014900ca
:102b00008b05e900c909dd00830170000100320076
:102b100013002000c814de004814dd004709de0061
:102b20001200b200c808de000884700085ff0700ac
:102b300001f0a1000cf0a70001f0a000cdff3700cc
:102b40006120e100cfff32000801be000200be009c
:102b5000f7ff37006150e100fcff3a00c9ff370082
:102b60000000fa00889fbe008a9fbe003004be00ad
:102b70002005be000404440085844c0006054d0079
:102b800087854d000898be000a90be000440e10011
:102b900005c8e10006d0e10007d8e10002003100dd
:102ba000680040001008e8004f05be004f04be005a
:102bb0000080fa00000006001000fa00889fbe00a6
:102bc0008a9fbe000605be000404be003002be009f
:102bd0002003be00049fbe000697be0008025200fc
:102be00089825a000a035b008b835b0044079800cc
:102bf0005507980066079800770798000498be006c
:102c00000698be00110020003e02be002e03be004a
:102c10000820e10009a8e1000ab0e1000bb8e100da
:102c2000010039008000eb00108810004f05be0045
:102c30004f04be000080fa00000006001400fa00f5
:102c4000889fbe008a9fbe008c9fbe00590007006f
:102c50000605be000404be000006eb004c07980009
:102c60003c0798002c0798001c0798000c0f780070
:102c70000d0420004e039000be0290008603430026
:102c80002e029000e00f530003003d002a000700d1
:102c9000b3ff07000200370027000700c6ff070048
:102ca000ce029000150f9800e08f52000900350009
:102cb0004500070014002000050020006033b80024
:102cc0000000720081807200020173008381730032
:102cd000380007000c06e8008d0f5600e5ff3a00ab
:102ce0001e0a9000e00f520004003d000802be00e2
:102cf0000a03be000e00780099ff07004eba970045
:102d0000e00f520006003a003e04be002e05be0051
:102d100058079800690798007a0798000b0f9800e9
:102d2000290007004f06be004f05be004f04be003d
:102d30000080fa00000006004f2bde0087037300be
:102d4000470798004f23de0085824200850273000a
:102d5000350798009e0290004f2bde0004024200cf
:102d600004027300240798001e0278004f23de003f
:102d70008582420085027300150798001200070043
:102d80004f18de0004024200000f72000e00070020
:102d90000000400081804800020149008381490011
:102da000040007000802be000a03be000e007800ff
:102db000000006005007980061079800720798000d
:102dc000030f9800000006005e009000ee009000e7
:102dd0007e0190008e099000000006000000fa00bd
:102de000881f780018002000881f780093ff0700d4
:102df0008f87e9004f0478000080fa000000060089
:102e00000000fa00801feb008cff07008f87e900ad
:102e10000080fa00000006000000fa00889fbe0053
:102e20008a9fbe00e00f5000e08f5800e00f59006d
:102e3000e08f59000c003d006044b8006055b800b8
:102e40000000540081805c0002015d0083815d0010
:102e5000180020001600070008003d0019000700b8
:102e60000004eb00050037000004eb001000070031
:102e700002003d001300070018002000d7ff0700e4
:102e8000e00f5400060032006022b8006033b80042
:102e90000000520081805a0002015b0083815b00c8
:102ea0004f05be004f04be000080fa00000006007f
:102eb000e00f5200e08f5a00e00f5b00e08f5b00f4
:102ec000000006006044b8006055b80004025400d9
:102ed00085825c0006035d0087835d0000000600bc
:102ee0000000fa00889fbe008a9fbe008c1f7800f9
:102ef000e00f5000e08f5800e00f5900e08f5900bc
:102f00000d003d006044b8006055b800000054005a
:102f100081805c0002015d0083815d001c00200057
:102f20000820e10009a8e1000ab0e1000bb8e100c7
:102f30000d003d00080037000006eb00e00f5200d6
:102f4000e08f5a00e00f5b00e08f5b0006003d0061
:102f50006044b8006055b8000402540085825c00eb
:102f600006035d0087835d00a5ff0700e00f5600a4
:102f7000060032006022b8006033b8000000520042
:102f800081805a0002015b0083815b004f0678005c
:102f90004f05be004f04be000080fa00000006008e
:102fa0000000fa00889fbe008a9fbe008c1f780038
:102fb0000006eb00e00f5000e08f5800e00f5900d2
:102fc000e08f590007003d006044b8006055b8002c
:102fd0000000540081805c0002015d0083815d007f
:102fe0001c002000e00f5200e08f5a00e00f5b0051
:102ff000e08f5b0007003d006044b8006055b800fa
:103000000402540085825c0006035d0087835d0036
:103010000c00a20067000700e00f56000600320017
:103020006022b8006033b8000000520081805a006e
:1030300002015b0083815b004f0678004f05be00f4
:103040004f04be000080fa0000000600889fbe000a
:103050008a9fbe00841f780075fe07004f0078002d
:1030600011003300f0ff2f00838f6c0006003b003f
:10307000040565000a00a7000800370009f0a60053
:103080001000200008003700820f5400838f5c007e
:10309000030039001000200001003e000000200065
:1030a00009f0a7000000ea004f05be004f04be0073
:1030b0000000e00000000600881f7800030478008c
:1030c0000300e00007003d0060001000e0801800f1
:1030d00060011900e081190002003b0001f02d00a1
:1030e000030037000400070008f0a70001f0a0006b
:1030f0004f04780000000600889fbe008a9fbe0033
:103100000082700004027100048271002600320007
:103110000004be000200be006011b8006b09200070
:10312000950220000182cf000a0039000541b1005c
:103130000082cf00070039000541b1000982cf00ad
:10314000040039000541b1000882cf0001003900b8
:103150000541b10005425200120032000a003b0056
:1031600082817100610164008100d1000080d30080
:103170008984d3000884d3008b05e8000442e8006a
:10318000f7ff3a00070037000804440089844c0028
:1031900000004800818048008b05e9000442e900f6
:1031a000f9ff3a00e7fd07004f05be004f04be00df
:1031b00000000600889fbe008a9fbe008c9fbe0054
:1031c0000404b8000506b8008904460060854e0076
:1031d0000606b8000a054600e0854e000706b8005e
:1031e0008b054600040eb800890446000a854e008f
:1031f000e0854d00050eb8000a0546008b854e009f
:10320000060eb8008b0546000416b8000a054600f5
:103210008b854e000516b8008b054600041eb800cd
:103220008b0546000800be000a01be004f06be0026
:103230004f05be004f04be00000006000000fa006b
:103240000002780002003700315a78000201e900dc
:10325000e00f5100fcff3a000080fa000000060079
:103260000000fa000002780002003700015a7800de
:103270000201e900e00f5100fcff3a000080fa0073
:043280000000060044
:020000040000fa
:10328400000000000000000000000000c1c00000b9
:1032940081c100004001000001c30000c003000020
:1032a4008002000041c2000001c60000c006000008
:1032b4008007000041c7000000050000c1c50000f0
:1032c40081c400004004000001cc0000c00c0000d8
:1032d400800d000041cd0000000f0000c1cf0000b0
:1032e40081ce0000400e0000000a0000c1ca0000a8
:1032f40081cb0000400b000001c90000c0090000a0
:103304008008000041c8000001d80000c018000077
:103314008019000041d90000001b0000c1db00003f
:1033240081da0000401a0000001e0000c1de000027
:1033340081df0000401f000001dd0000c01d00000f
:10334400801c000041dc000000140000c1d4000017
:1033540081d500004015000001d70000c01700000f
:103364008016000041d6000001d20000c012000007
:103374008013000041d3000000110000c1d10000ff
:1033840081d000004010000001f00000c0300000b7
:103394008031000041f1000000330000c1f300005f
:1033a40081f200004032000000360000c1f6000047
:1033b40081f700004037000001f50000c03500002f
:1033c4008034000041f40000003c0000c1fc000017
:1033d40081fd0000403d000001ff0000c03f0000ef
:1033e400803e000041fe000001fa0000c03a0000e7
:1033f400803b000041fb000000390000c1f90000df
:1034040081f800004038000000280000c1e80000f6
:1034140081e900004029000001eb0000c02b0000fe
:10342400802a000041ea000001ee0000c02e0000e6
:10343400802f000041ef0000002d0000c1ed0000ce
:1034440081ec0000402c000001e40000c0240000d6
:103454008025000041e5000000270000c1e70000ce
:1034640081e600004026000000220000c1e20000c6
:1034740081e300004023000001e10000c0210000be
:103484008020000041e0000001a00000c0600000b6
:103494008061000041a1000000630000c1a300009e
:1034a40081a200004062000000660000c1a6000086
:1034b40081a700004067000001a50000c06500006e
:1034c4008064000041a40000006c0000c1ac000056
:1034d40081ad0000406d000001af0000c06f00002e
:1034e400806e000041ae000001aa0000c06a000026
:1034f400806b000041ab000000690000c1a900001e
:1035040081a800004068000000780000c1b80000f5
:1035140081b900004079000001bb0000c07b0000bd
:10352400807a000041ba000001be0000c07e0000a5
:10353400807f000041bf0000007d0000c1bd00008d
:1035440081bc0000407c000001b40000c074000095
:103554008075000041b5000000770000c1b700008d
:1035640081b600004076000000720000c1b2000085
:1035740081b300004073000001b10000c07100007d
:103584008070000041b0000000500000c1900000b5
:10359400819100004051000001930000c0530000dd
:1035a400805200004192000001960000c0560000c5
:1035b400805700004197000000550000c1950000ad
:1035c4008194000040540000019c0000c05c000095
:1035d400805d0000419d0000005f0000c19f00006d
:1035e400819e0000405e0000005a0000c19a000065
:1035f400819b0000405b000001990000c05900005d
:10360400805800004198000001880000c048000074
:103614008049000041890000004b0000c18b00007c
:10362400818a0000404a0000004e0000c18e000064
:10363400818f0000404f0000018d0000c04d00004c
:10364400804c0000418c000000440000c184000054
:10365400818500004045000001870000c04700004c
:10366400804600004186000001820000c042000044
:10367400804300004183000000410000c18100003c
:1036840081800000404000000001000006010000ad
:1036940093a00000000000000000000000000000f3
:1036a4000000000000000000000000000000000016
:1036b40000000000000000000106000002030000fa
:1036c400a100000000000000000000000000000055
:1036d40000000000000000000000000000000000e6
:1036e4000000000000010000060300001261000059
:1036f40000000000000000000000000000000000c6
:1037040000000000000000000000000000000000b5
:10371400000000000106000004530000a3000000a4
:103724000000000000000000000000000000000095
:103734000000000000000000000000000000000085
:103744000001000006050000926300000000000074
:103754000000000000000000000000000000000065
:103764000000000000000000000000000000000055
:103774000106000006d20000620000000000000004
:103784000000000000000000000000000000000035
:103794000000000000000000000000000001000024
:1037a4000707000073cd00000000000000000000c7
:1037b4000000000000000000000000000000000005
:1037c40000000000000000000000000001060000ee
:1037d40008530000a60000000000000000000000e4
:1037e40000000000000000000000000000000000d5
:1037f40000000000000000000001000006090000b5
:1038040092660000000000000000000000000000bc
:1038140000000000000000000000000000000000a4
:103824000000000000000000010700000a7700000b
:103834005d00000000000000000000000000000027
:103844000000000000000000000000000000000074
:103854000000000000010000060b000013a7000098
:103864000000000000000000000000000000000054
:103874000000000000000000000000000000000044
:1038840000000000010600000c520000650000006a
:103894000000000000000000000000000000000024
:1038a4000000000000000000000000000000000014
:1038b40000010000060d000093a5000000000000b8
:1038c40000000000000000000000000000000000f4
:1038d40000000000000000000000000000000000e4
:1038e400010800000ed30000a40000000000000046
:1038f40000000000000000000000000000000000c4
:1039040000000000000000000000000000010000b2
:103914000c0f000012640000000000000000000012
:103924000000000000000000000000000000000093
:10393400000000000000000000000000010600007c
:1039440010930000bb000000000000000000000015
:103954000000000000000000000000000000000063
:10396400000000000000000000010000061200003a
:10397400926c000000000000000000000000000045
:103984000000000000000000000000000000000033
:103994000000000000000000010600003592000055
:1039a400770000000000000000000000000000009c
:1039b4000000000000000000000000000000000003
:1039c400000000000001000006360000d27600006e
:1039d40000000000000000000000000000000000e3
:1039e40000000000000000000000000000000000d3
:1039f400000000000106000038530000b20000007f
:103a040000000000000000000000000000000000b2
:103a140000000000000000000000000000000000a2
:103a240000000000c2010000fa000000960000003f
:103a3400fa0000009600000064000000320000005c
:103a44000000000000000000000000000000000072
:103a54000000000000000000000000000000000062
:103a6400000000006400000046640000002800001c
:103a7400000000000900000000f400000100000044
:103a8400005800000200000000d60000069000006c
:103a940001c8000000030000000000000000000056
:103aa40000000000000000008403000090010000fa
:103ab400c800000003000000000000000000000037
:103ac40000000000000000000000000000000000f2
:103ad4000000000000000000540b00000000000083
:103ae40000000000000f00000000000000000000c3
:103af4005e010000fa000000960000009001000042
:103b0400fa000000960000003200000000000000ef
:103b140000000000000000000000000000000000a1
:103b24000000000000000000000000000000000091
:103b3400640000004664000000280000000000004b
:103b44000900000000f4000001000000005800001b
:103b54000200000000aa00000590000001c8000057
:103b6400000300000000000000000000000000004e
:103b740000000000aa05000090010000c800000039
:103b8400030000000100000000000000000000002d
:103b94000000000000000000000000000000000021
:103ba40000000000540b00000000000000000000b2
:103bb400000f0000000000000000000000000000f2
:103bc400f40100007e00000000000000000000007e
:103bd40064000000000000000000000000f4000089
:103be4000100000000000000000a000000000000c6
:103bf400f4010000000000000000000000010000cb
:103c0400000000000000000000000000000a0000a6
:103c14000000000000000000007b00000000000025
:103c24000000000000000000000000000000000090
:103c34000000000000000000000000000000000080
:103c44000000000000000000000000000000000070
:103c54000000000000000000000000000000000060
:103c64000000000000000000000000000000000050
:103c74000000000000640000850000000000000057
:103c8400000000007b72000066e70000fd98000061
:103c9400fd0000000000000064000000650000005a
:103ca40066000000800000007d020000810000002a
:103cb40082000000830000000800000015000000de
:103cc400190000007c0200005000000051000000b8
:103cd40070000000780000007d0000007e000000fd
:103ce4007f000000250200002602000058020000a8
:103cf4005b0200005c020000140000001c000000d5
:103d04005d0200005e0200005f020000600200002d
:103d14006102000062020000630200006802000009
:103d2400690200006a0200006b0200006c020000dd
:103d34006d0200006e0200006f02000070020000bd
:103d44007102000023030000270300000b000000a1
:103d54000b0000006700000068000000690000001c
:103d64006a0000006b0000006c0000006e000000a0
:103d7400f4010000f5010000f8010000f901000061
:103d8400fa010000fb010000fc010000fd0100003d
:103d9400fe010000ff01000000020000010200001b
:103da40002020000030200000402000005020000f9
:103db40006020000070200000802000009020000d9
:103dc4000a0200000b0200000c0200000d020000b9
:103dd4000e0200000f020000100200001102000099
:103de4001202000013020000180200001902000071
:103df4001a0200001b0200001c0200001d02000049
:103e04001e0200001f020000200200002102000028
:103e14002202000023020000240200002702000006
:103e240052540000444d0000002b000024520000b6
:103e3400544400004d2300001b860000002b0000aa
:103e4400244f00004b2300004c080000002d00000c
:103e54002445000001230000d36a00000000000094
:103e640000000000aa2a000054550000fe7f000054
:083e7400a8aa000052d50000cd
:020000040000fa
:103e7c000000fa000042eb000440780047fab7005b
:103e8c000042eb000440780048fab70054002000d0
:103e9c0064d28800523aa900525aa800527aa9005a
:103eac00529aa80052baa90052daa9000002eb00fb
:103ebc00b4d288000002eb00a4d3880074e1800027
:103ecc00c4d388000002eb00d4d388000002eb00be
:103edc00e4d388000002eb00f4d388000002eb006e
:103eec0004d4880074e1800084d288000042eb0086
:103efc00044078004ffab70074a4210014427800f3
:103f0c00044078004efab7008400200054d2880098
:103f1c000002eb0014d488000002eb0024d48800cb
:103f2c00230ea900533aa900535aa900537aa900a9
:103f3c00539aa90053baa9000002eb0034d48800ac
:103f4c000002eb0044d488000002eb0054d488003b
:103f5c000002eb0064d48800541aa900543aa8005b
:103f6c00545aa900547aa800549aa9000080fa0067
:103f7c00000006000000fa0016912100164378009c
:103f8c008683fb0026912100164378000683fb00f4
:103f9c004833dd00070373000602780036912100d8
:103fac00164378008683fb00469121001643780067
:103fbc000683fb004833dd0007037300860278009c
:103fcc008403780094912100144278008482fb00d1
:103fdc00a4912100144278000482fb004822dd00e9
:103fec00050272000500200026032000862bb80075
:103ffc00e020b80000034300840278002403200072
:10400c00042ab80005034300860278001100090059
:10401c0047aad8000002780034d4880056912100b9
:10402c00164378008683fb006691210016437800c6
:10403c000683fb004833dd0007037300060278009b
:10404c0076912100164378008683fb00869121002f
:10405c00164378000683fb004833dd00070373002a
:10406c008602780084037800949121001442780031
:10407c008482fb00a4912100144278000482fb008e
:10408c004822dd00050272000500200026032000f6
:10409c00862bb800e020b8000003430084027800af
:1040ac0024032000042ab80005034300860278008c
:1040bc001100090047aad8000002780044d48800f7
:1040cc0016912100164378008683fb00269121006f
:1040dc00164378000683fb004833dd0007037300aa
:1040ec000602780036912100164378008683fb0087
:1040fc0046912100164378000683fb004833dd000f
:10410c0007037300860278008403780084922100f0
:10411c00144278008482fb009492210014427800af
:10412c000482fb004822dd0005027200050020001d
:10413c0026032000862bb800e020b80000034300c3
:10414c008402780024032000042ab80005034300ed
:10415c00860278001100090047aad80000027800f6
:10416c0054d4880056912100164378008683fb00b6
:10417c0066912100164378000683fb004833dd006e
:10418c00070373000602780076912100164378002d
:10419c008683fb0086912100164378000683fb0082
:1041ac004833dd000703730086027800840378002f
:1041bc0084922100144278008482fb0094922100a6
:1041cc00144278000482fb004822dd0005027200d4
:1041dc000500200026032000862bb800e020b80044
:1041ec00000343008402780024032000042ab80052
:1041fc0005034300860278001100090047aad80085
:10420c000002780064d48800050007006f090700dd
:10421c0044110700920d07000080fa000000060010
:10422c000e00fa001e0290000400a0001407980073
:10423c001e0290000410a100140798001e029000aa
:10424c000420a100140798001e0290000430a10065
:10425c00140798001e0290000440a1001407980057
:10426c001e0290000450a000140798001e0290003b
:10427c000460a100140798001e0290000470a000b6
:10428c00140798001e0290000480a00014079800e8
:10429c001e0290000490a100140798009e0290004a
:1042ac00f43f200004826200140798002e02900054
:1042bc000400a000240798002e0290000410a10016
:1042cc00240798002e0290000420a10024079800d7
:1042dc002e0290000430a100240798002e029000ba
:1042ec000440a000240798002e0290000450a10066
:1042fc00240798002e0290000460a0002407980068
:10430c002e0290000470a100240798002e02900049
:10431c000480a000240798002e0290000490a100b5
:10432c0024079800ae029000f43f20000482620043
:10433c00240798003e0290000400a0003407980067
:10434c003e0290000410a100340798003e02900039
:10435c000420a100340798003e0290000430a10014
:10436c00340798003e0290000440a10034079800e6
:10437c003e0290000450a100340798003e029000c9
:10438c000460a100340798003e0290000470a10064
:10439c00340798003e0290000480a0003407980077
:1043ac003e0290000490a10034079800be029000d9
:1043bc00f43f200004826200340798004e02900003
:1043cc000400a000440798004e0290000410a100c5
:1043dc00440798004e0290000420a1004407980066
:1043ec004e0290000430a100440798004e02900049
:1043fc000440a100440798004e0290000450a00015
:10440c00440798004e0290000460a10044079800f5
:10441c004e0290000470a000440798004e029000d9
:10442c000480a100440798004e0290000490a00064
:10443c0044079800ce029000f43f200004826200f2
:10444c00440798005e0290000400a00054079800f6
:10445c005e0290000410a100540798005e029000c8
:10446c000420a100540798005e0290000430a100c3
:10447c00540798005e0290000440a0005407980076
:10448c005e0290000450a100540798005e02900058
:10449c000460a000540798005e0290000470a10014
:1044ac00540798005e0290000480a1005407980005
:1044bc005e0290000490a00054079800de02900069
:1044cc00f43f200004826200540798006e029000b2
:1044dc000400a000640798006e0290000410a10074
:1044ec00640798006e0290000420a10064079800f5
:1044fc006e0290000430a100640798006e029000d8
:10450c000440a100640798006e0290000450a100c2
:10451c00640798006e0290000460a1006407980084
:10452c006e0290000470a100640798006e02900067
:10453c000480a100640798006e0290000490a00013
:10454c0064079800ee029000f43f200004826200a1
:10455c00640798000002eb00040f78001e0278003c
:10456c00fc22b80084027800041521000482420069
:10457c00ae429000054a78003e43900016429800e7
:10458c0004892100144278008482fb0014892100e4
:10459c00144278000482fb004822dd000502720000
:1045ac00040378001e027800fc22b8008402780014
:1045bc002415210004824200f50f200085036300be
:1045cc0094427800e0c2620087c27200054a78000b
:1045dc004833de0094429000e0c2620086c2720052
:1045ec0015429800648e2100144278008482fb00ee
:1045fc00748e2100144278000482fb004822dd00f6
:10460c0005027200040378001e027800fc22b80038
:10461c00840278004415210004824200f50f20002a
:10462c008503630094427800e0c2620087c2720086
:10463c00054a78004833de0094429000e0c26200e4
:10464c0086c27200154298001e027800fc22b80047
:10465c0084027800641521000482420094427800a0
:10466c00e0c26200054a780094429000e0c2620009
:10467c001542980094912100144278008482fb002a
:10468c00a4912100144278000482fb004822dd0032
:10469c0005027200040378001e027800fc22b800a8
:1046ac00840278008415210004824200f50f20005a
:1046bc008503630094427800e0c2620087c27200f6
:1046cc00054a78004833de0094429000e0c2620054
:1046dc0086c272001542980036d480001e02780003
:1046ec00fc22b80084027800a41521000482420048
:1046fc00f50f20008503630094427800e0c262004d
:10470c0087c27200054a78004833de00944290005c
:10471c00e0c2620086c27200154298001e02780048
:10472c00fc22b80084027800c415210004824200e7
:10473c009442780060c3620085ceb300854273005a
:10474c00054a780094429000e0c262003540b30004
:10475c00154298001e027800fc22b80084027800f2
:10476c00e4152100048242009442780060c3620088
:10477c0085c8b30085427300054a780094429000c6
:10478c00e0c262003541b300154298001e02780069
:10479c00fc22b80084027800041621000482420036
:1047ac009442780060c3620045cfb3008542730029
:1047bc00054a780094429000e0c262000504a00013
:1047cc00154298001e0fe8001e027800fc22b8006b
:1047dc00840278000415210004824200ee4290000d
:1047ec00054a78007e439000164298001e02e900ac
:1047fc00fc22b8008482e8000415210004824200e7
:10480c00144378008682fb00144290000482fb0063
:10481c004822dd0005027200040378001e027800b5
:10482c00fc22b80084027800241521000482420086
:10483c00f50f20008503630094427800e0c262000b
:10484c0087c27200054a78004833de00944290001b
:10485c00e0c2620086c27200154298001e02e90096
:10486c00fc22b800e402420004152100048242003c
:10487c00144378008682fb00144290000482fb00f3
:10488c004822dd0005027200040378001e02780045
:10489c00fc22b800840278004415210004824200f6
:1048ac00f50f20008503630094427800e0c262009b
:1048bc0087c27200054a78004833de0094429000ab
:1048cc00e0c2620086c27200154298001e02e90026
:1048dc00fc22b800e80242000415210004824200c8
:1048ec00144378008682fb00144290000482fb0083
:1048fc004822dd0005027200040378001e027800d5
:10490c00fc22b80084027800641521000482420065
:10491c00f50f20008503630094427800e0c262002a
:10492c0087c27200054a78004833de00944290003a
:10493c00e0c2620086c27200154298001e02e900b5
:10494c00fc22b800e8024200041521000482420057
:10495c00144378008682fb00144290000482fb0012
:10496c004822dd0005027200040378001e02780064
:10497c00fc22b800840278008415210004824200d5
:10498c00f50f20008503630094427800e0c26200ba
:10499c0087c27200054a78004833de0094429000ca
:1049ac00e0c2620086c27200154298001e027800b6
:1049bc00fc22b80084027800a41521000482420075
:1049cc0094427800e0c26200054a7800944290005c
:1049dc00e0c26200154298001e0fe8001e0278002b
:1049ec00fc22b800840278000415210004824200e5
:1049fc00ee429000054a78007e43900016429800e3
:104a0c001e02e900fc22b800e40242000415210059
:104a1c0004824200144378008682fb00144290000a
:104a2c000482fb004822dd000502720004037800ba
:104a3c001e027800fc22b8008402780024152100a4
:104a4c0004824200f50f2000850363009442780035
:104a5c00e0c2620087c27200054a78004833de006b
:104a6c0094429000e0c2620086c272001542980027
:104a7c00848e2100144278008482fb00948e2100e5
:104a8c00144278000482fb004822dd00050272000b
:104a9c00040378001e027800fc22b800840278001f
:104aac004415210004824200f50f200085036300a9
:104abc0094427800e0c2620087c27200054a780016
:104acc004833de0094429000e0c2620086c272005d
:104adc00154298001e02e900fc22b800e8024200d0
:104aec000415210004824200144378008682fb00e6
:104afc00144290000482fb004822dd000502720083
:104b0c00040378001e027800fc22b80084027800ae
:104b1c006415210004824200f50f20008503630018
:104b2c0094427800e0c2620087c27200054a7800a5
:104b3c004833de0094429000e0c2620086c27200ec
:104b4c0015429800b4912100144278008482fb0035
:104b5c00c4912100144278000482fb004822dd003d
:104b6c0005027200040378001e027800fc22b800d3
:104b7c00840278008415210004824200f50f200085
:104b8c008503630094427800e0c2620087c2720021
:104b9c00054a78004833de0094429000e0c262007f
:104bac0086c272001542980046d480001e0278001e
:104bbc00fc22b80084027800a41521000482420073
:104bcc00f50f20008503630094427800e0c2620078
:104bdc0087c27200054a78004833de009442900088
:104bec00e0c2620086c27200154298001e0fe800f7
:104bfc001e027800fc22b800840278000415210003
:104c0c0004824200ee429000054a78007e439000f8
:104c1c00164298001e02e900fc22b8008482e800cb
:104c2c000415210004824200144378008682fb00a4
:104c3c00144290000482fb004822dd000502720041
:104c4c00040378001e027800fc22b800840278006d
:104c5c002415210004824200f50f20008503630017
:104c6c0094427800e0c2620087c27200054a780064
:104c7c004833de0094429000e0c2620086c27200ab
:104c8c00154298001e02e900fc22b800e402420022
:104c9c000415210004824200144378008682fb0034
:104cac00144290000482fb004822dd0005027200d1
:104cbc00040378001e027800fc22b80084027800fd
:104ccc004415210004824200f50f20008503630087
:104cdc0094427800e0c2620087c27200054a7800f4
:104cec004833de0094429000e0c2620086c272003b
:104cfc00154298001e02e900fc22b800e8024200ae
:104d0c000415210004824200144378008682fb00c3
:104d1c00144290000482fb004822dd000502720060
:104d2c00040378001e027800fc22b800840278008c
:104d3c006415210004824200f50f200085036300f6
:104d4c0094427800e0c2620087c27200054a780083
:104d5c004833de0094429000e0c2620086c27200ca
:104d6c00154298001e02e900fc22b800e80242003d
:104d7c000415210004824200144378008682fb0053
:104d8c00144290000482fb004822dd0005027200f0
:104d9c00040378001e027800fc22b800840278001c
:104dac008415210004824200f50f20008503630066
:104dbc0094427800e0c2620087c27200054a780013
:104dcc004833de0094429000e0c2620086c272005a
:104ddc00154298001e027800fc22b800840278006c
:104dec00a41521000482420094427800e0c26200c3
:104dfc00054a780094429000e0c262001542980087
:104e0c001e0fe800f491210014427800e24f52008a
:104e1c00b1003a001e027800fc22b800840278002f
:104e2c000415210004824200ce429000054a78000d
:104e3c005e439000164298001e02e900fc22b80066
:104e4c00e40242000415210004824200144378005d
:104e5c008682fb00144290000482fb004822dd0095
:104e6c0005027200040378001e027800fc22b800d0
:104e7c00840278002415210004824200f50f2000e2
:104e8c008503630094427800e0c2620087c272001e
:104e9c00054a78004833de0094429000e0c262007c
:104eac0086c2720015429800e488210014427800f2
:104ebc008482fb00f4882100144278000482fb00f9
:104ecc004822dd0005027200040378001e027800ff
:104edc00fc22b800840278004415210004824200b0
:104eec00f50f20008503630094427800e0c2620055
:104efc0087c27200054a78004833de009442900065
:104f0c00e0c2620086c27200154298001e02e900df
:104f1c00fc22b800e8024200041521000482420081
:104f2c00144378008682fb00144290000482fb003c
:104f3c004822dd0005027200040378001e0278008e
:104f4c00fc22b8008402780064152100048242001f
:104f5c00f50f20008503630094427800e0c26200e4
:104f6c0087c27200054a78004833de0094429000f4
:104f7c00e0c2620086c27200154298001e027800e0
:104f8c00fc22b800840278008415210004824200bf
:104f9c009442780060c3620085ccb30085427300f4
:104fac00054a780094429000e0c2620015429800d5
:104fbc0046d480001e027800fc22b80084027800df
:104fcc00a415210004824200f50f20008503630024
:104fdc0094427800e0c2620087c27200054a7800f1
:104fec004833de0094429000e0c2620086c2720038
:104ffc00154298001e82e800fc22b800f80242001c
:10500c000415210004824200144378008682fb00c0
:10501c00144290000482fb004822dd00050272005d
:10502c00040378001e027800fc22b8008402780089
:10503c008416210004824200f50f200085036300d2
:10504c0094427800e0c2620087c27200054a780080
:10505c004833de0094429000e0c2620086c27200c7
:10506c00154298001e82e800fc22b800fa024200a9
:10507c000415210004824200144378008682fb0050
:10508c00144290000482fb004822dd0005027200ed
:10509c00040378001e027800fc22b8008402780019
:1050ac00a416210004824200f50f20008503630042
:1050bc0094427800e0c2620087c27200054a780010
:1050cc004833de0094429000e0c2620086c2720057
:1050dc0015429800820137001e027800fc22b800ad
:1050ec00840278000415210004824200ee429000f4
:1050fc00054a78007e439000164298001e02e90093
:10510c00fc22b800e4024200041521000482420093
:10511c00144378008682fb00144290000482fb004a
:10512c004822dd0005027200040378001e0278009c
:10513c00fc22b8008402780024152100048242006d
:10514c00f50f20008503630094427800e0c26200f2
:10515c0087c27200054a78004833de009442900002
:10516c00e0c2620086c2720015429800a48e210033
:10517c00144278008482fb00b48e21001442780023
:10518c000482fb004822dd00050272000403780053
:10519c001e027800fc22b80084027800441521001d
:1051ac0004824200f50f20008503630094427800ce
:1051bc00e0c2620087c27200054a78004833de0004
:1051cc0094429000e0c2620086c2720015429800c0
:1051dc001e02e900fc22b800e8024200041521007e
:1051ec0004824200144378008682fb001442900033
:1051fc000482fb004822dd000502720004037800e3
:10520c001e027800fc22b80084027800641521008c
:10521c0004824200f50f200085036300944278005d
:10522c00e0c2620087c27200054a78004833de0093
:10523c0094429000e0c2620086c27200154298004f
:10524c00d4912100144278008482fb00e491210067
:10525c00144278000482fb004822dd000502720033
:10526c00040378001e027800fc22b8008402780047
:10527c008415210004824200f50f20008503630091
:10528c0094427800e0c2620087c27200054a78003e
:10529c004833de0094429000e0c2620086c2720085
:1052ac001542980046d480001e027800fc22b800fb
:1052bc0084027800a415210004824200f50f20001e
:1052cc008503630094427800e0c2620087c27200da
:1052dc00054a78004833de0094429000e0c2620038
:1052ec0086c27200154298001e0fe8001e0278005c
:1052fc00fc22b800840278000415210004824200cc
:10530c00ee429000054a78007e43900016429800c9
:10531c001e02e900fc22b8008482e800041521007a
:10532c0004824200144378008682fb0014429000f1
:10533c000482fb004822dd000502720004037800a1
:10534c001e027800fc22b80084027800241521008b
:10535c0004824200f50f200085036300944278001c
:10536c00e0c2620087c27200054a78004833de0052
:10537c0094429000e0c2620086c27200154298000e
:10538c001e02e900fc22b800e402420004152100d0
:10539c0004824200144378008682fb001442900081
:1053ac000482fb004822dd00050272000403780031
:1053bc001e027800fc22b8008402780044152100fb
:1053cc0004824200f50f20008503630094427800ac
:1053dc00e0c2620087c27200054a78004833de00e2
:1053ec0094429000e0c2620086c27200154298009e
:1053fc001e02e900fc22b800e8024200041521005c
:10540c0004824200144378008682fb001442900010
:10541c000482fb004822dd000502720004037800c0
:10542c001e027800fc22b80084027800641521006a
:10543c0004824200f50f200085036300944278003b
:10544c00e0c2620087c27200054a78004833de0071
:10545c0094429000e0c2620086c27200154298002d
:10546c001e02e900fc22b800e802420004152100eb
:10547c0004824200144378008682fb0014429000a0
:10548c000482fb004822dd00050272000403780050
:10549c001e027800fc22b8008402780084152100da
:1054ac0004824200f50f20008503630094427800cb
:1054bc00e0c2620087c27200054a78004833de0001
:1054cc0094429000e0c2620086c2720015429800bd
:1054dc001e027800fc22b80084027800a41521007a
:1054ec000482420094427800e0c26200054a7800cf
:1054fc0094429000e0c26200154298001e0fe80032
:10550c001e027800fc22b8008402780004152100e9
:10551c0004824200ce429000054a78005e4390001f
:10552c00164298001e02e900fc22b800e402420078
:10553c000415210004824200144378008682fb008b
:10554c00144290000482fb004822dd000502720028
:10555c00040378001e027800fc22b8008402780054
:10556c002415210004824200f50f200085036300fe
:10557c0094427800e0c2620087c27200054a78004b
:10558c004833de0094429000e0c2620086c2720092
:10559c0015429800e4882100144278008482fb00b4
:1055ac00f4882100144278000482fb004822dd00bc
:1055bc0005027200040378001e027800fc22b80079
:1055cc00840278004415210004824200f50f20006b
:1055dc008503630094427800e0c2620087c27200c7
:1055ec00054a78004833de0094429000e0c2620025
:1055fc0086c27200154298001e02e900fc22b80017
:10560c00e802420004152100048242001443780091
:10561c008682fb00144290000482fb004822dd00cd
:10562c0005027200040378001e027800fc22b80008
:10563c00840278006415210004824200f50f2000da
:10564c008503630094427800e0c2620087c2720056
:10565c00054a78004833de0094429000e0c26200b4
:10566c0086c27200154298001e027800fc22b80017
:10567c008402780084152100048242009442780050
:10568c0060c3620085ccb30085427300054a780084
:10569c0094429000e0c262001542980046d480000b
:1056ac001e027800fc22b80084027800a4152100a8
:1056bc0004824200f50f20008503630094427800b9
:1056cc00e0c2620087c27200054a78004833de00ef
:1056dc0094429000e0c2620086c2720015429800ab
:1056ec000002eb00040f78001e027800fc22b800c8
:1056fc008402780044212100048242008e4a9000ea
:10570c00054a78001e4b900016429800e488210050
:10571c00144278008482fb00f48821001442780043
:10572c000482fb004822dd000502720004037800ad
:10573c001e027800fc22b80084027800642121004b
:10574c0004824200f50f2000850363009442780028
:10575c00e0c2620087c27200054a78004833de005e
:10576c0094429000e0c2620086c27200154298001a
:10577c00c48e2100144278008482fb00d48e210058
:10578c00144278000482fb004822dd0005027200fe
:10579c00040378001e027800fc22b8008402780012
:1057ac008421210004824200f50f20008503630050
:1057bc0094427800e0c2620087c27200054a780009
:1057cc004833de0094429000e0c2620086c2720050
:1057dc00154298001e027800fc22b8008402780062
:1057ec00a42121000482420094427800e0c26200ad
:1057fc00054a780094429000e0c26200154298007d
:10580c0084922100144278008482fb00949221003f
:10581c00144278000482fb004822dd00050272006d
:10582c00040378001e027800fc22b8008402780081
:10583c00c421210004824200f50f2000850363007f
:10584c0094427800e0c2620087c27200054a780078
:10585c004833de0094429000e0c2620086c27200bf
:10586c001542980056d480001e027800fc22b80025
:10587c0084027800e421210004824200f50f20000c
:10588c008503630094427800e0c2620087c2720014
:10589c00054a78004833de0094429000e0c2620072
:1058ac0086c27200154298001e0fe8001e02780096
:1058bc00fc22b800840278004421210004824200ba
:1058cc00ce4a9000054a78005e4b90001642980034
:1058dc001e02e900fc22b8008482e8004421210069
:1058ec0004824200144378008682fb00144290002c
:1058fc000482fb004822dd000502720004037800dc
:10590c001e027800fc22b800840278006421210079
:10591c0004824200f50f2000850363009442780056
:10592c00e0c2620087c27200054a78004833de008c
:10593c0094429000e0c2620086c272001542980048
:10594c001e02e900fc22b800e402420044212100be
:10595c0004824200144378008682fb0014429000bb
:10596c000482fb004822dd0005027200040378006b
:10597c001e027800fc22b8008402780084212100e9
:10598c0004824200f50f20008503630094427800e6
:10599c00e0c2620087c27200054a78004833de001c
:1059ac0094429000e0c2620086c2720015429800d8
:1059bc001e02e900fc22b800e8024200442121004a
:1059cc0004824200144378008682fb00144290004b
:1059dc000482fb004822dd000502720004037800fb
:1059ec001e027800fc22b80084027800a421210059
:1059fc0004824200f50f2000850363009442780076
:105a0c00e0c2620087c27200054a78004833de00ab
:105a1c0094429000e0c2620086c272001542980067
:105a2c001e02e900fc22b800e802420044212100d9
:105a3c0004824200144378008682fb0014429000da
:105a4c000482fb004822dd0005027200040378008a
:105a5c001e027800fc22b80084027800c4212100c8
:105a6c0004824200f50f2000850363009442780005
:105a7c00e0c2620087c27200054a78004833de003b
:105a8c0094429000e0c2620086c2720015429800f7
:105a9c001e027800fc22b80084027800e421210068
:105aac000482420094427800e0c26200054a780009
:105abc0094429000e0c26200154298001e0fe8006c
:105acc001e027800fc22b8008402780044212100d8
:105adc0004824200ce4a9000054a78005e4b90004a
:105aec00164298001e02e900fc22b800e4024200b3
:105afc004421210004824200144378008682fb007a
:105b0c00144290000482fb004822dd000502720062
:105b1c00040378001e027800fc22b800840278008e
:105b2c006421210004824200f50f200085036300ec
:105b3c0094427800e0c2620087c27200054a780085
:105b4c004833de0094429000e0c2620086c27200cc
:105b5c0015429800e48e2100144278008482fb00e8
:105b6c00f48e2100144278000482fb004822dd00f0
:105b7c0005027200040378001e027800fc22b800b3
:105b8c00840278008421210004824200f50f200059
:105b9c008503630094427800e0c2620087c2720001
:105bac00054a78004833de0094429000e0c262005f
:105bbc0086c27200154298001e02e900fc22b80051
:105bcc00e802420044212100048242001443780080
:105bdc008682fb00144290000482fb004822dd0008
:105bec0005027200040378001e027800fc22b80043
:105bfc0084027800a421210004824200f50f2000c9
:105c0c008503630094427800e0c2620087c2720090
:105c1c00054a78004833de0094429000e0c26200ee
:105c2c0086c2720015429800a4922100144278009a
