:020000040000fa
:080000000002040000000000f2
:020000040000fa
:100400002fc621000eff2c000e0188000000000006
:10041000000020000000e000020032000001200087
:10042000200288000c00070080ea2b000100200059
:100430001d000700000020000000e0000200320064
:10044000000002000000000002cc020000000000da
:100450000040da000000fe00406120000000e000e3
:1004600002003200002020009001880000000600f9
:10047000f03fb1000180b10006003500ee03090035
:1004800000000000403fb1000180b100fbff3d00d3
:100490001000b000203fb0000200350000800900cd
:1004a0000000000000000600a10288008000780023
:1004b0000000eb001a003700e280400054a0b400b6
:1004c0009101ba00e280400054a0b4009102ba0049
:1004d000e280400054a0b4000002eb00472bde0095
:1004e000f507b200a6018800602ce10008003a0080
:1004f0000049eb000201e800020039003420ec0062
:1005000002f0a0008301e900f9ff3e00040037007b
:100510006128e100010032000082eb0004000700c6
:100520001101ba000200e000e3ff3a0000000600fb
:1005300004d0a300e20f49001c00390081027800ba
:100540003549ba000201e800020039003420ec000d
:1005500002f0a0008301e9000f0032002549ba0033
:100560000201e800020039003420ec0002f0a00093
:100570008301e900080032000400e00006003200b8
:1005800015c9ba000201e800020039003420ec006d
:1005900002f0a0008301e9008180e80054a0b400cb
:1005a0000300e000e2ff3a00000006009102ba00fa
:1005b000055978008301e900f7ff3200c82ade0000
:1005c000055978008301e900f3ff32000400e000e0
:1005d000f1ff320011d9ba00eeff37006657040070
:1005e00000000000045d0400000000007c570400cf
:1005f00000000000125c040000000000be57040070
:10060000000000004e5b040000000000d45704000e
:1006100000000000945c040000000000e2570400a9
:10062000000000004a5a040000000000f2570400d5
:1006300000000000de5c0400000000000858040018
:10064000000000003600f800809fbe00829fbe00c0
:10065000849fbe00869fbe000000fa000068a900cb
:100660005303070004d88000ea0f52000200340050
:100670000002eb0034d98800949d210014427800d8
:10068000e14f520043003a00849d2100144278005b
:10069000e14f52003f003a00a4b421001442780018
:1006a000e04f520012003a0034d9800084027800f2
:1006b000e4912100144278000482fb00f6912100ad
:1006c000164378000683fb004833dd000602720003
:1006d000441fb000848f52003700360014c0b300ae
:1006e00004437800a5b42100864a7800370037001b
:1006f000a4b4210014427800e14f520030003a00c7
:1007000034d9800084027800e491210014427800fa
:100710000482fb00f6912100164378000683fb005b
:100720004833dd0006027200441fb000848f52007f
:10073000090031000042eb0004437800a5b4210019
:10074000864a78000042eb0004437800b5b42100eb
:10075000864a78001d003700b4b4210014427800a6
:100760000442e80004437800b5b42100864a7800ca
:10077000b4b4210014427800e74f42001200360062
:10078000a098a800102e0700f4ff2700a4e188001d
:100790000e0037000042eb0004437800a5b42100ae
:1007a000864a78000042eb0004437800b5b421008b
:1007b000864a78000500370000000000030037007b
:1007c000000000000100370000000000249e21000e
:1007d000144278000442b200e04f5200010032009f
:1007e00079030700380007000080fa004f03be00bd
:1007f0004f02be004f01be004f00be003600f900a0
:1008000000400600849fbe00869fbe000000fa00e4
:100810000108a900740880006123b800d4d98000c1
:10082000e5d980000602420087824a00d4d98800b8
:10083000e5d988000080fa004f03be004f02be00d9
:10084000004006000000fa00147080004822de001c
:10085000614262008482fb00147180004622de0047
:10086000614262000482fb00040242008482420072
:100870009472800004427800614262000482fb00ae
:100880004222dd0004824200e4d88800e5d88000de
:10089000a4c2210004824200144278000402fb003a
:1008a000f4d88800f4d88000e10f420002003a003a
:1008b00004d98000f4d88800f4d8800004007800bf
:1008c0000080fa00000006000000fa00249e2100cb
:1008d0001442780062426200e04f520043003a0046
:1008e000249e21001442780064426200e04f5200ce
:1008f0003e003a00949d210014427800e04f5200df
:1009000013003a0005da800014da8000848f520068
:100910000b003a000002eb00f4d9880004da8000f2
:100920000402e80014da880014da8000e50f5200af
:10093000190034000002eb0014da880016003700ba
:10094000f4d980000402e800f4d9880012003700ce
:1009500005da800024da8000848f52000b003a0010
:100960000002eb00f4d9880004da80000402e900f8
:1009700024da880024da8000e00f520006003d00ef
:100980005400200024da880003003700f4d98000e6
:100990000402e800f4d98800f5d98000047122002f
:1009a000848f52000f00340044002000e4ce880001
:1009b0001400200054d1880044d98000f4e088005d
:1009c000f4e08000cfa2de00860c200011000900b8
:1009d00046aad8000002780024e188009cb8a8004c
:1009e000040037009cb8a900020037000002eb00a9
:1009f000f4d988000080fa00000006000000fa0028
:100a0000859d210095427800949d21001442780034
:100a100084cf52000e003a00949d210014427800c9
:100a2000e14f520005003a000042eb000443780019
:100a300025a32100864a78002c0037000042eb00f5
:100a40000443780035a32100864a78002700370048
:100a5000949d210014427800e14f520007003a00b3
:100a600024a32100144278000442e80004437800e3
:100a700025a32100864a78000600370034a3210010
:100a8000144278000442e8000443780035a32100b2
:100a9000864a780025a321009542780084b421007d
:100aa0001442780084cf52000500360024a32100b0
:100ab000144278000443780085b42100864a780007
:100ac00035a321009542780094b4210014427800a7
:100ad00084cf52000500360034a321001442780070
:100ae0000443780095b42100864a78000080fa001b
:100af000000006003600f800809fbe00829fbe0006
:100b0000849fbe00869fbe000400fa000042eb00f6
:100b1000044f78000028a9004aff0700000278006f
:100b2000140798009e02900004d98000848f520020
:100b300067003200f4d88000e10f42006400320008
:100b40000002eb00f4d088001e029000e00f52007b
:100b5000030032001e029000e30f52002b003a0007
:100b60000042eb0004437800859d2100864a78000e
:100b700004da80009e029000848f52000600340048
:100b80001e0290008442780004da8000044278005b
:100b900004cf5200060037001e0290008442780005
:100ba00004da80000442780004c25200664f42001a
:100bb00095d980001e4378000682fb000482520013
:100bc00094d988001e02900004da8800249e210037
:100bd0001442780062426200e04f520008003a007e
:100be000249e21001442780064426200e04f5200cb
:100bf00003003a001e02900004007800550107002f
:100c00001e02900004d98800300037001e029000b8
:100c1000e50f5200030032001e029000e20f520066
:100c20002a003a0014c0b30004437800859d2100d7
:100c3000864a780005da80001e029000848f5200f8
:100c40000600340004da8000844278001e0290001e
:100c50000442780004cf52000600370004da800016
:100c6000844278001e0290000442780004c25200c0
:100c7000664f42001e4278008482fb0094d98000b7
:100c80000482420094d988009e02900005da880010
:100c9000249e21001442780062426200e04f52001c
:100ca00008003a00249e2100144278006442620049
:100cb000e04f520003003a001e029000040078004a
:100cc000240107001e02900004d988004bff070092
:100cd0000080fa004f03be004f02be004f01be006d
:100ce0004f00be003600f900004006003600f80054
:100cf000809fbe00829fbe00849fbe00869fbe0074
:100d00000400fa000042eb00044f780000a8a9009c
:100d10000002eb0004d88800cafe07000002780039
:100d2000140798009e02900004d98000848f52001e
:100d300083003200f4d88000e10f420080003200ce
:100d40000002eb00f4d088001e029000e50f520074
:100d5000030032001e029000e20f520039003a00f8
:100d60000042eb0004437800859d2100864a78000c
:100d700004da80009e029000848f52000600340046
:100d80001e0290008442780004da80000442780059
:100d900004cf5200060037001e0290008442780003
:100da00004da80000442780004c25200664f420018
:100db00095d980001e4378000682fb000482520011
:100dc00094d9880013e1a900540880006123b80079
:100dd000d4d98000e5d980000602420087824a000b
:100de000d4d98800e5d988000002eb0054088800b7
:100df00013e1a80014002000c4d988001e0290004e
:100e000004da8800249e21001442780062426200c5
:100e1000e04f520008003a00249e2100144278005e
:100e200064426200e04f520003003a001e0290004c
:100e300004007800c70007001e02900004d9880053
:100e40003e0037001e029000e40f52000300320003
:100e50001e029000e10f520038003a0014c0b300a7
:100e600004437800859d2100864a780005da8000d9
:100e70001e029000848f52000600340004da8000c5
:100e8000844278001e0290000442780004cf520091
:100e90000600370004da8000844278001e029000c9
:100ea0000442780004c25200664f42001e4278009d
:100eb0008482fb0094d980000482420094d9880087
:100ec00013e1a900540880006123b800d4d9800040
:100ed000e5d980000602420087824a00d4d9880002
:100ee000e5d988000002eb005408880013e1a8004f
:100ef00014002000c4d988009e02900005da880002
:100f0000249e21001442780062426200e04f5200a9
:100f100008003a00249e21001442780064426200d6
:100f2000e04f520003003a001e02900004007800d7
:100f3000880007001e02900004d98800affe070059
:100f40000080fa004f03be004f02be004f01be00fa
:100f50004f00be003600f900004006003600f800e1
:100f6000809fbe00829fbe00849fbe00869fbe0001
:100f70000400fa000042eb00044f780004a8a90026
:100f800030fe070000027800140798009e029000cf
:100f900004d98000848f520067003200f4d88000aa
:100fa000e10f4200640032000002eb00f4d0880040
:100fb0001e029000e10f5200030032001e0290005a
:100fc000e40f52002b003a000042eb00044378008b
:100fd000859d2100864a780004da80009e029000f8
:100fe000848f5200060034001e0290008442780074
:100ff00004da80000442780004cf52000600370073
:101000001e0290008442780004da800004427800d6
:1010100004c25200664f420095d980001e437800fa
:101020000682fb000482520094d988001e029000c0
:1010300004da8800249e2100144278006242620093
:10104000e04f520008003a00249e2100144278002c
:1010500064426200e04f520003003a001e0290001a
:10106000040078003b0007001e02900004d98800ad
:10107000300037001e029000e00f520003003200e3
:101080001e029000e30f52002a003a0014c0b30081
:1010900004437800859d2100864a780005da8000a7
:1010a0001e029000848f52000600340004da800093
:1010b000844278001e0290000442780004cf52005f
:1010c0000600370004da8000844278001e02900097
:1010d0000442780004c25200664f42001e4278006b
:1010e0008482fb0094d980000482420094d9880055
:1010f0009e02900005da8800249e210014427800a8
:1011000062426200e04f520008003a00249e210033
:101110001442780064426200e04f520003003a003b
:101120001e029000040078000a0007001e029000d2
:1011300004d9880031fe07000080fa004f03be008a
:101140004f02be004f01be004f00be003600f90046
:10115000004006000200fa00000f780044d9800029
:10116000e00f520001003d0002eea90035d98000d9
:10117000b4122000848f52000a00340034e1800051
:101180000402e80034e1880035e18000147d20008d
:10119000848f520010003400247d200034e1880048
:1011a0000d00370035e18000d4382000848f5200d4
:1011b0000300340034e180007402520034e18800fe
:1011c00035e18000e4382000848f520002003c00aa
:1011d000e438200034e1880044d98000e00f520058
:1011e00004003500949d210014427800e04f520025
:1011f0000700320044d98000e00f52002e003d006d
:10120000949d210014427800e14f52002a003a00d8
:101210001e027800050020006600200067b3210050
:101220001100090046aad800810b7800000278005e
:10123000a4d98800949d210014427800e04f520008
:1012400010003a00249e210014427800624262009d
:10125000e04f52000b003a00b4d9800084024200f3
:1012600044fc2900048242009402780034e18000aa
:1012700004824200b4d88800b4d88000c4d8880062
:101280000a003700b4d980008402420044fc2900df
:10129000048242009402780034e18000048242001b
:1012a000b4d88800b4d88000c4d8880024002000b6
:1012b000d4d888003c00370044d98000e00f5200a9
:1012c00004003500949d210014427800e14f520043
:1012d0000700320044d98000e00f520032003d0088
:1012e000949d210014427800e04f52002e003a00f5
:1012f0009e02780063824200050020006600200004
:1013000067b321001100090046aad800810b7800bc
:1013100000027800a4d98800949d2100144278002e
:10132000e04f520014003a00249e2100144278003d
:1013300062426200e04f52000f003a00b4d98000d0
:101340008402420044fc2900048242001402780016
:101350008402780044e180000403780064dc8000ab
:101360000402530004824200b4d88800b4d880003c
:10137000c4d888000a003700b4d980008402420033
:1013800044fc2900048242009402780044e1800079
:1013900004824200b4d88800b4d88000c4d8880041
:1013a00014002000d4d888000080fa000000060055
:1013b0000000fa002200f8002400f8002600f800df
:1013c000c4d98000e00f52000b003200d4d9800055
:1013d000e5d9800014d9880025d988006022b8009a
:1013e000d4d98800e5d988000002eb00c4d9880070
:1013f0000002eb0004d8880016d9800027d98000ad
:10140000a42a200005002000840f5300858f5b0074
:1014100005003e00b42a20000500200014d98800f1
:1014200025d988000b00370016d9800027d9800005
:10143000f4592d0005002000840f5300858f5b00b8
:1014400004003600f4592d000500200014d988004e
:1014500025d9880016d9800027d98000e4d78000dc
:10146000f5d780000403530085835b0064d98000b6
:101470000500200084b8b90086a9b9008200780070
:101480000100400006037800040278000432b8002e
:10149000050040008002780076d9800087d980005e
:1014a0000402430085824b0074d9880085d98800e6
:1014b00074d9800085d98000412bdd004f22de00e9
:1014c00004027300cf2ade00e4d78800f5d7880035
:1014d000e4d78000f5d780000403780074922b00d5
:1014e000950220001100090046aad80000027800e9
:1014f00034d98800e4d78000f5d780000403780051
:1015000004802500b50120001100090046aad8007a
:101510000002780034da880035d98000c403200046
:10152000110009008402d80000027800cfa2de007a
:101530000400be002a0407000002be0002002000d2
:10154000030424000400be00280407000002be00bb
:1015500002002000433b24000400be0023040700d7
:101560000002be0002002000a34724000400be00c9
:10157000520407000002be000400be0091040700f0
:101580000002be0084027800640b20001301c0003a
:101590000400cc00d4d78800949d21001442780028
:1015a000e14f520003003a00d4d780000402ea0061
:1015b000d4d788002600f9002400f9002200f900a1
:1015c0000080fa00000006000000fa0094e18000ac
:1015d00084d8880034d9800094d88800f4e0800052
:1015e00064d88800f4e080000402ea0074d888001f
:1015f000349e21001442780070426200e04f520095
:1016000005003a00f5d9800064092000848f52005b
:1016100001003400e399a800349e210014427800b0
:1016200070426200e04f52002100320035d9800044
:10163000740c2000848f520004003c0044d98000c8
:101640008402b00044d9880022003700e399a90041
:1016500034d9800084d8880034d9800094d8880098
:1016600044d980006123b9004f3add00c132de0069
:10167000850272004f32dd0014d8880025d888001a
:1016800044d98000a4d8880020b021005e5e070005
:10169000249d21001442780068426200e04f52000d
:1016a0000c003200a4d8800044d98800090037001b
:1016b00020b02100545e0700249d210014427800d0
:1016c00068426200e04f520002003200a4d880005d
:1016d00044d9880044d98000cfa2de00460620000d
:1016e00086abb900e020b90080037800070343000f
:1016f0008402780044062000042ab8000503430051
:1017000086027800869927001100090046aad800b1
:101710000002780054d988000080fa00000006001a
:101720000600fa000002eb00c4d988006022b8006d
:10173000d4d98800e5d988000002eb0034d98800ac
:1017400004c8200044d98800f4592d000500200069
:1017500014d9880025d98800f4592d0005002000ef
:10176000e4d78800f5d78800047d200064d988007c
:1017700004002800f5ac260074d9880085d98800bb
:10178000e4d78000f5d780000403780004802500aa
:10179000b50120001100090046aad8000002780017
:1017a00034da8800147080004822de006142620052
:1017b0008482fb00147180004622de0061426200d8
:1017c0000482fb0004024200848242009472800082
:1017d00004427800614262000482fb004222dd0084
:1017e00004824200e4d88800e5d88000a4c2210029
:1017f00004824200144278000402fb00f4d88800fe
:10180000f4d8800004d9880004d9800004da880064
:1018100004da8000040078004efe070004da80003d
:101820000402e80014da880014da8000e50f5200a0
:10183000020034000002eb0014da880004da8000b1
:101840000402e90024da880024da8000e00f520064
:1018500002003d005400200024da88000002eb0062
:10186000f4d988000002eb00f4d08800949d210098
:1018700014427800e04f520017003a00948e210085
:10188000144278000482fb00a58e21009542780066
:101890008582fb00c82add0005027200e00f5200bd
:1018a00003003a0004712200040f78002000370082
:1018b000948e2100144278000482fb00a58e210042
:1018c000954278008582fb00c82add00050272007f
:1018d000040f780016003700b48e210014427800ff
:1018e0000482fb00c58e2100954278008582fb00b2
:1018f000c82add0005027200e00f520003003a0022
:1019000084382100040f780009003700b48e2100cc
:10191000144278000482fb00c58e210095427800b5
:101920008582fb00c82add0005027200040f7800e2
:10193000949d210014427800e04f52001b003a00b1
:10194000c48f2100144278000482fb00d58f21004f
:10195000954278008582fb00c82add0005027200ee
:10196000840278004406200084aab9001407980075
:10197000e48f2100144278000482fb00ea22b900bf
:1019800024079800f4e080008402ea00f4e080007c
:101990000003eb00f3ff27002e0190009e00900053
:1019a00020b021002d5d07001b003700f48f2100bf
:1019b000144278000482fb000590210095427800d3
:1019c0008582fb00c82add000502720084027800cf
:1019d0004406200084aab90014079800149021003e
:1019e000144278000482fb00ea22b9002407980020
:1019f000f4e080000402ea000003eb0084027800b7
:101a000084382100f3ff27002e0190009e009000f3
:101a100020b02100115d07000080fa0000000600e0
:101a20000000fa003eff07000080fa0000000600f8
:101a30003600f800809fbe00829fbe00849fbe00db
:101a4000869fbe000000fa0001a8a90004188000cb
:101a5000c4da88004e0107000080fa004f03be0080
:101a60004f02be004f01be004f00be003600f9001d
:101a7000004006003600f800809fbe00829fbe0036
:101a8000849fbe00869fbe00881f78000400fa0075
:101a90006022b800048fbe0002a8a900041a8000ca
:101aa000050020000400be00950407000002be00ef
:101ab00002002000030124000400be00ff02070012
:101ac0000002be00048fbe00d4e28000e5e2800088
:101ad00018c0b3000401be001e00be008a04070047
:101ae00000027800e00f520001003c000044eb00cf
:101af000e04f54000e00320014c62100144278005a
:101b0000e04f52000a003a0014d5800074dc8800cf
:101b100014c0b3000443780015c62100864a78003b
:101b20000042eb000443780005c62100864a780095
:101b300014c6210014427800e14f52001b003a0005
:101b400004c6210014427800e04f520017003a000a
:101b500075dc8000047122008482420014d580006c
:101b6000848f520011003e0024c0b300044378006b
:101b700015c62100864a780014718000044278005e
:101b80006142620004c2ea00614262000482fb001a
:101b90006102620016718000e5ff2f00850263007c
:101ba0000502720014718800a038a900b4e2800018
:101bb000c5e2800018c0b3000401be001e00be00d4
:101bc0005304070000027800e00f520001003400c7
:101bd0000044eb00e04f54001200320014c6210014
:101be00014427800e04f52000e00320014d58000fd
:101bf00084dc880004c6210014427800e04f5200c3
:101c000008003a0014c0b3000443780005c6210060
:101c1000864a78000042eb000443780015c6210094
:101c2000864a780014c6210014427800e04f520022
:101c30000a003a0004c6210014427800e14f520025
:101c400006003a0085dc8000047122008482420094
:101c500014d58000848f52001000360018c0b300e5
:101c600002002000832c24001e00be002804070070
:101c700000027800e00f5200010034000044eb0045
:101c8000e04f540012003200048a21001442780010
:101c900062426200e04f52000d003a001471800071
:101ca000044278006142620004c2ea0061426200bc
:101cb0000482fb006102620016718000e5ff2f00c4
:101cc000850263000502720014718800a038a80024
:101cd0000080fa004f0478004f03be004f02be00a0
:101ce0004f01be004f00be003600f9000040060064
:101cf0000000fa000388a9000080fa0000400600f6
:101d00000000fa00b028070094d98000f50f2000e9
:101d100085026200e6882100164378006043630074
:101d20008542730085437800e6882100074b7800e0
:101d30004822de00f588210095427800e0c262006a
:101d400004c2720004437800f5882100864a7800b6
:101d5000548921001442780068426200e04f52002a
:101d60002c00320044882100144278000482fb00d9
:101d700055882100954278008582fb00c82add0045
:101d800005027200840078000000eb00813c07002f
:101d900064882100144278000482fb0075882100c9
:101da000954278008582fb00c82add00050272009a
:101db0008400780020002000763c07008488210001
:101dc000144278000482fb00958821009542780037
:101dd0008582fb00c82add000502720084007800bd
:101de000400020006b3c0700a488210014427800ca
:101df0000482fb00b5882100954278008582fb00b3
:101e0000c82add000502720084007800600020000e
:101e1000603c0700e4882100144278000482fb0043
:101e2000f5882100954278008582fb00c82add00f4
:101e30000502720084007800a0002000553c0700d5
:101e4000c4882100144278000482fb00d588210058
:101e5000954278008582fb00c82add0005027200e9
:101e600084007800800020004a3c070011440700ed
:101e7000a68c2100164378000683fb00b78c210056
:101e8000974378008783fb00c83bdd00070373009e
:101e900006027800c68c2100164378000683fb00fa
:101ea000d78c2100974378008783fb00c83bdd0077
:101eb00007037300860278000401be00700620004c
:101ec0004e3c0700f68c2100164378000683fb0089
:101ed000078d2100974378008783fb00c83bdd0016
:101ee0000703730006027800168d21001643780060
:101ef0000683fb00278d2100974378008783fb0032
:101f0000c83bdd0007037300860278000401be00b1
:101f1000c0062000393c0700a48b21001442780041
:101f20008440780070052000f73b0700004407005c
:101f30000080fa00000006003600f800809fbe0016
:101f4000829fbe00849fbe00869fbe000000fa00f4
:101f500000e8a900700007001d5f0700249e210013
:101f6000144278000444b200e04f520001003200f5
:101f7000de0007000080fa004f03be004f02be00e3
:101f80004f01be004f00be003600f90000400600c1
:101f90000000fa00c4b421001442780061426200db
:101fa000e04f520023003a00c4da80006123b900f8
:101fb00084da800095da80000602420087824a00b7
:101fc00084da880095da880074da80000402e80078
:101fd00074da880075da800034062000848f52009d
:101fe0001f00340074da80000403780084da800073
:101ff00095da80001100090046aad8000002780096
:10200000a4da8800a4da800005402000048252008f
:102010000403780004532700050020001100090084
:1020200046aad80000027800b4da88004c1ba80049
:102030000b003700c4da8000d4da8800d5da8000db
:10204000a4da8000848f520005003400d5da8000c5
:10205000a4da800004825200d4da8800020007006b
:102060000080fa00000006000000fa00d4da8000c8
:102070006123b90014db800025db800004035300da
:1020800085835b00e4da80000500200084b8b90095
:1020900086a9b9008200780001004000060378009c
:1020a000040278000432b800050040008002780085
:1020b000f6da800007db80000402430085824b00d3
:1020c000f4da880005db8800f4da800005db8000a4
:1020d000412bdd004f22de0004027300cf2ade0018
:1020e00014db880025db8800b4da8000cfa2de0094
:1020f0000403780014db800025db800004027800f4
:1021000084b2b90034db880034db8000e4e088006e
:102110000080fa00000006000200fa000002eb0056
:10212000040f780034db800034dc880035dc80006c
:10213000c4122000848f52003a00360035dc800043
:1021400044dc80000482520054dc880054dc8000af
:10215000e00f52001a003d0055dc8000e4ee2f0035
:10216000848f520031003d0054dc80000402ea00fc
:1021700054dc880054dc8000cfa2de003611200041
:102180001100090046aad80000027800040f780068
:1021900064dc8000e00f52000600320065dc800045
:1021a0001e037800640b200084b2b9000482520040
:1021b00064dc880034dc800044dc88001b003700cd
:1021c00055dc800024112000848f52001700340059
:1021d00054dc8000cfa2de0036112000110009007f
:1021e00046aad80000027800040f780065dc800061
:1021f000d45a2200848f520007003e009e027800cd
:10220000640b200084aab9008402780064dc80009a
:102210000482420064dc880034dc800044dc8800f6
:10222000020037000002eb0064dc88000080fa0046
:10223000000006000000fa00020007000080fa001b
:10224000000006000000fa000002eb00c4da88007b
:1022500014002000d4da880064042000e4da880046
:102260000400280005002000f4da880005db88005f
:10227000140020000500200014db880025db880006
:102280006022b80054db880065db88000002eb00a8
:1022900074db88000002eb0084db88000002eb00a6
:1022a00034db88000002eb0034dc8800c41220001c
:1022b00044dc88000002eb0054dc88000002eb00e4
:1022c00064dc8800f4e080000003eb008002eb0097
:1022d000f3ff270042382000812c230020b7210083
:1022e000de5a07000080fa00000006000000fa0035
:1022f00044db800004dc880034db800014dc8800d0
:10230000f4e08000e4db88000002eb00f4db8800ee
:10231000349e21001442780070426200e04f520067
:102320004500320035d98000b4122000848f52005d
:1023300004003c0044d980008402b00044d98800e5
:1023400068003700e399a90034db800004dc8800d2
:1023500034db800014dc880044d980006123b9009c
:102360004f3add00c132de00850272004f32dd00df
:1023700094db8800a5db880044d9800024dc880039
:1023800020b72100205b0700249d21001442780023
:1023900070426200e04f52005200320024dc8000a4
:1023a00044d9880094db8000a5db8000f60f200074
:1023b0000603620027b0210097437800e0c3630062
:1023c00006c373008640780020b0210001487800e1
:1023d0004823de0037b0210097437800e0c3630054
:1023e00006c373008643780032b0210007497800a5
:1023f000f60f20000683620047b021009743780063
:10240000e0c3630006c373008640780040b021003b
:1024100001487800482ade0055b021009542780036
:10242000e0c2620004c272008442780052b021000f
:10243000054978002b00370020b72100f25a070029
:10244000249d21001442780070426200e04f520047
:102450002400320024dc800044d9880094db800012
:10246000a5db8000f60f20000603620027b02100e4
:1024700097437800e0c3630006c37300064078000a
:1024800002fbb7004823de0037b0210097437800f5
:10249000e0c3630006c373000641780031b0210039
:1024a00082487800f60f20000683620047b02100c2
:1024b00097437800e0c3630006c3730006407800ca
:1024c00004fbb700482ade0055b021009542780091
:1024d000e0c2620004c272000441780051b02100e1
:1024e0008248780044d98000cfa2de004606200052
:1024f00086abb900e020b9008003780007034300f1
:102500008402780044062000042ab8000503430032
:1025100086027800869927001100090046aad80093
:102520000002780054d988000080fa0000000600fc
:102530000000fa0043ff07004c1ba9000002eb005b
:10254000a4da88000002eb0074da88006022b80088
:1025500084da880095da8800371f07000002eb0054
:102560003408880011e1a80000e8a90020e8a800cc
:10257000446180000402d10034618800446280001c
:102580000402d10034628800446380000402d10058
:10259000346388000bc8a9002bc8a80001eca80070
:1025a00021e3a800a0002000855e070001eca9003f
:1025b0002fe1a90011e1a9000002eb003408880016
:1025c00020e8a9000002eb00340988002608a900d1
:1025d0000080fa00000006000040da000000fe0063
:1025e0004f89de0082017800cb013700889fbe0052
:1025f0008a9fbe008c1f7800d7010700de013300e0
:1026000003866c006450e100240032006420e10085
:10261000270032006150e100220032006120e10019
:10262000210032008b854200eb07b1000134b80075
:10263000003ab8000804420089844a00013ab80010
:102640000030b8008880400009014a0004003300cf
:102650000000400081804800020149008b05e9002c
:10266000c909dd0083017000010032001300200061
:10267000c814de004814dd004709de001200b20075
:10268000c808de0008847000cb01070001f0a1003b
:102690000cf0a70001f0a000c00137006120e100ac
:1026a000c20132000801be000200be00f7ff370081
:1026b0006150e100fcff3a00bc013700889fbe007a
:1026c0008a9fbe008c1f7800a3010700aa01330077
:1026d00003866c006450e1002e0032006420e100ab
:1026e000330032006150e1002f0032006120e10030
:1026f0003100320085855500eb07b000090020004d
:1027000008042000050037000804440089844c00b8
:102710000a0031000603430087834b000001530089
:1027200081815b00f8ff33000203be000800a000b7
:102730000804440089844c00f6ff3900c639dd00e6
:102740008301730001003200130020008904d100ce
:102750000884d3000998a300050032000800a700f0
:102760000300a0008904d1000884d3008b05e80091
:102770008904d1000884d3000001eb000281d2005b
:102780008d01070001f0a1000cf0a70001f0a000ee
:10279000820137006420e100840132000801be009c
:1027a0000200be00f7ff37006120e1007f01320028
:1027b0006000b800f3ff37000000200001f8270098
:1027c000f0ff37000001be00a10107000470a70060
:1027d00003f0a1006509b100160032000d003500bc
:1027e0006828e10006003500f0ff2f00f1ff270008
:1027f0000300e00013003b0001002800000005007a
:1028000000004000818048008502e900fcff3a009a
:1028100008003700f88f420002003c008000eb0007
:10282000000005008100d1000080d3008502e8008f
:10283000fcff3a000300e00002003b0060001000d3
:10284000e0801800000006000000fa00889fbe002b
:102850008a9fbe008c1f78000006eb00e00f50003e
:10286000e08f5800e00f5900e08f590007003d004d
:102870006044b8006055b8001c00200000005400ff
:1028800081805c0002015d0083815d00e00f5200e9
:10289000e08f5a00e00f5b00e08f5b0007003d0017
:1028a0006044b8006055b8000c00a2000402540057
:1028b00085825c0006035d0087835d007901070067
:1028c000e00f5600060032006022b8006033b80006
:1028d0000000520081805a0002015b0083815b008e
:1028e0004f0678004f05be004f04be000080fa007e
:1028f000000006000000fa00889fbe008a9fbe000c
:102900003004be002005be000404440085844c0051
:1029100006054d0087854d000898be000a90be0050
:102920000440e10005c8e10006d0e10007d8e1005d
:1029300002003100680040001008e8004f05be00aa
:102940004f04be000080fa00000006001000fa00ec
:10295000889fbe008a9fbe000605be000404be001c
:102960003002be002003be00049fbe000697be00da
:10297000110020000802520089825a000a035b00fd
:102980008b835b0044079800550798006607980002
:10299000770798000498be000698be003e02be006d
:1029a0002e03be008f000700010039008000eb00fd
:1029b0004f05be00108810004f04be000080fa00d2
:1029c000000006001400fa00889fbe00bf00070048
:1029d0008a9fbe008c9fbe000006eb004c0798004b
:1029e0003c0798002c0798001c0798000c0f7800f3
:1029f0000605be000404be000d0420004e03900036
:102a0000be029000860343002e029000e00f5300a8
:102a100003003d0078000700b6ff07000200370002
:102a200075000700c9ff0700ce029000150f98003f
:102a3000e08f520009003500a900070014002000b3
:102a4000050020006033b800000072008180720031
:102a500002017300838173009c0007000c06e800ec
:102a60008d0f5600e5ff3a001e0a9000e00f52005d
:102a700004003d000802be000a03be000e007800fc
:102a80009cff07004eba9700e00f520006003a0084
:102a90003e04be002e05be00580798006907980046
:102aa0007a0798000b0f98004f06be008c000700b5
:102ab0004f05be004f04be000080fa000000060073
:102ac0000000fa00881f780018002000881f780096
:102ad000bcff07008f87e9004f0478000080fa00f0
:102ae000000006000000fa00801feb00b5ff0700a1
:102af0008f87e9000080fa00000006000000fa005d
:102b0000889fbe008a9fbe005a00070008003d0053
:102b1000780007005c000700180020005f00070035
:102b200008003d00290007000004eb000500370005
:102b30000004eb005900070002003d0023000700dd
:102b400018002000deff0700e00f540001003200f3
:102b5000570007004f05be004f04be000080fa007a
:102b6000000006000000fa00889fbe008a9fbe0099
:102b70008c1f78003f00070006003d005d00070045
:102b80001c002000400007001600070006003d0062
:102b9000040037000006eb004000070002003d0083
:102ba000540007000a000700ceff0700e00f5600a0
:102bb000010032003e0007004f0678004f05be00be
:102bc0004f04be000080fa00000006004900070024
:102bd0000402540085825c0006035d0087835d006b
:102be000000006000820e10009a8e1000ab0e100a9
:102bf0000bb8e100000006004f2bde003800070094
:102c000086837300858242004f23de0047079800c9
:102c10008682720004024200350798009e029000ee
:102c20004f2bde00858242000602720024079800c6
:102c30001e0278004f23de000402420086827200ea
:102c4000150798004f18de00000f720024000700df
:102c50000802be000a03be00000040008180480058
:102c60000201490083814900180007000e00780026
:102c700000000600e00f5000e08f5800e00f590000
:102c8000e08f5900000006000000540081805c00c5
:102c900002015d0083815d0000000600e00f52002c
:102ca000e08f5a00e00f5b00e08f5b000000060041
:102cb0006022b8006033b8000000520081805a00e2
:102cc00002015b0083815b00000006005007980052
:102cd0006107980072079800030f98000000060033
:102ce0005e009000ee0090007e0190008e09900042
:102cf000000006006044b8006055b80000000600ff
:102d00006011b80089003700f4ff2f00b6003700cb
:102d100014002000b4003700881f780003047800f6
:102d20000300e00007003d0060001000e080180094
:102d300060011900e081190002003b0001f02d0044
:102d4000030037007900070008f0a70001f0a00099
:102d50004f047800000006000004be003c0007009d
:102d60000003be000405be000200be0038000700dc
:102d7000844f7500000006000200be006450e100b0
:102d8000050036006420e100020036000968a30057
:102d900001003a000800be000160a0004f06780064
:102da0004f05be004f04be0000000600f0ff2f00dc
:102db000f1ff2700f9ff37008100200061805500f6
:102dc0000b003d000b00200061fe2f000100e10020
:102dd0001d00340082817100610164008904d1000a
:102de0000884d3000000e800faff3a0071002000d8
:102df00061006400030070000200600009003200fe
:102e000061044400e0844c000988a50005003200fc
:102e10008b05e8006808e10002003a008904d1004f
:102e20000884d300f20f20000258e10005003d00a5
:102e3000c75ddd00f907b2008980750008007800e1
:102e4000000006000bf827008b007800000005004a
:102e5000c70ade00f107b200f50fb2000800320029
:102e6000e1cf4200020032000170a0002400050002
:102e7000810f7000010032000408050044000500c5
:102e8000810f700002003a00140005008502e9007d
:102e90000000400081c04800fcff3b000170a00022
:102ea00024000500889fbe008a9fbe008c9fbe0044
:102eb0000404b8000506b8008904460060854e0089
:102ec0000606b8000a054600e0854e000706b80071
:102ed0008b054600040eb800890446000a854e00a2
:102ee000e0854d00050eb8000a0546008b854e00b2
:102ef000060eb8008b0546000416b8000a05460009
:102f00008b854e000516b8008b054600041eb800e0
:102f10008b0546000800be000a01be004f06be0039
:102f20004f05be004f04be0000000600889fbe0093
:102f30008a9fbe000082700004027100048271004a
:102f4000260032000004be000200be006011b8007e
:102f50006b092000950220000182cf000a00390091
:102f60000541b1000082cf00070039000541b100e2
:102f70000982cf00040039000541b1000882cf006a
:102f8000010039000541b100054252001200320033
:102f90000a003b0082817100610164008100d10060
:102fa0000080d3008984d3000884d3008b05e80017
:102fb0000442e800f7ff3a00070037000804440025
:102fc00089844c0000004800818048008b05e9009e
:102fd0000442e900f9ff3a0077ff07004f05be0001
:102fe0004f04be0000000600889fbe008a9fbe00fe
:102ff000841f780058ff07004f007800110033004d
:10300000f0ff2f00838f6c0006003b000405650075
:103010000a00a7000800370009f0a60010002000f1
:1030200008003700820f5400838f5c0003003900d2
:103030001000200001003e000000200009f0a70061
:103040000000ea004f05be004f04be000000e00093
:103050000000060031e2a9000000fa0023c8a90020
:103060000080fa0023e8a90003c8a90003e8a9002a
:103070000000060003c8a9006702600003e8a90079
:103080004822dd000000fa00f58f2f000080fa00d2
:10309000764280008682620085027200000278001b
:1030a000754288000407b200f5ff28004822dd00c1
:1030b00076428000868262008502720068026000ab
:1030c000754288004322de00f5ff2b00610262009a
:1030d00016418000868262004e22dd000008b200a8
:1030e000850272004700de00154188006100600023
:1030f000f4ff27004f00dd0015418000050262004b
:10310000040270001441880000000600c21188000b
:103110000000fa00801188000080fa0091118800f8
:1031200000000600841180000000fa0066026200c0
:10313000e60f52000c003a00030037003322ab00c8
:10314000feff3a00a5118800b0027800e08f52001f
:10315000faff3a00070037003322ab00feff3a00c7
:103160008502fb00a5118800b0427800e0cf520034
:10317000f9ff3a000080fa0000000600001020006d
:103180000000fa003202b6000080fa000000e900f8
:103190004f00de0000000600841180000000fa00ed
:1031a00066026200e60f520001003200f00fb2002a
:1031b000a01188000080fa00000006008411800041
:1031c0000000fa0066026200e60f520002003a00b8
:1031d000b011800002003700b0118000f00fb20083
:1031e0000080fa0000000600901180000000fa0044
:1031f000614060000080fa000000060021e2a900a2
:103200000000fa002168a9000080fa002188a900c6
:103210000168a9000188a900000006000168a90052
:10322000670260000188a9004c22dd000000fa005e
:10323000f5ff28000080fa002642800086826200a6
:103240008502720000027800254288000407b2005f
:1032500085ff2f004422de00364280008682620015
:103260008502720068026000354288004322de0059
:10327000f57f2f00610262000641800086826200b5
:103280004b22dd000008b200850272004700de001c
:103290000541880061006000f4ff2e004c00dd0055
:1032a00005418000050262000402700004418800ac
:1032b00000000600421188000000fa00001188009a
:1032c0000080fa001111880000000600041180003f
:1032d0000000fa0066026200e60f520001003200b0
:1032e000f00fb200201188000080fa0000000600f4
:1032f000041180000000fa0066026200e60f52002e
:1033000002003a00301180000200370030118000c6
:10331000f00fb2000080fa000000060010118000db
:103320000000fa00614060000080fa000000060022
:103330000000fa000002780002003700315a7800dd
:103340000201e900e00f5100fcff3a000080fa00a2
:10335000000006000000fa000002780002003700ba
:10336000015a78000201e900e00f5100fcff3a0029
:083370000080fa0000000600d5
:020000040000fa
:02000004000af0
:04afe000deff000090
:020000040000fa
:02000004000af0
:04afe400f7ff000073
:020000040000fa
:02000004000af0
:04afe800eaff00007c
:020000040000fa
:02000004000af0
:04afec007dff0000e5
:020000040000fa
:02000004000af0
:04aff00038ff000026
:020000040000fa
:02000004000af0
:04aff400cfff00008b
:020000040000fa
:10000800ec120000ec120000ec120000ec120000f0
:10001800ec120000ec120000ec120000ec120000e0
:10002800e05800007a050000ec12000022030000ee
:10003800ec12000076060000ec1200009c0f000095
:1000480002040000ec1200005ed00000dcb20000e8
:100058005cb00000180d0000ec120000ec1200006b
:10006800ec120000ec120000ec120000ec12000090
:100078001a5a00003a0d0000ec120000ec120000c1
:10008800ec120000ec120000ec1200001e580000f8
:10009800780e0000ec1200004cc60000ec120000c4
:1000a800ec120000ec120000ec120000ec12000050
:1000b800ec120000ae070000ec120000ec12000089
:1000c800ec120000ec120000ec120000ec12000030
:1000d800ec120000ec120000ec120000d0720000dc
:1000e800a4b70000ec120000ec1200000e73000030
:1000f800ec120000ec120000ec120000ec12000000
:10010800ec120000ec120000ec120000ec120000ef
:10011800ec120000ec120000ec120000ec120000df
:10012800ec120000fab20000ec120000ec12000021
:10013800ec120000ec120000ec120000ec120000bf
:10014800ec120000ec120000ec120000ec120000af
:10015800ec120000ec120000ec120000ec1200009f
:10016800ec120000ec120000ec120000ec1200008f
:10017800ec120000ec120000ec120000ec1200007f
:10018800ec120000ec120000ec120000ec1200006f
:10019800ec120000ec12000040b80000ec12000065
:1001a800ec120000ec120000ec120000ec1200004f
:1001b800ec120000ec120000ec120000ec1200003f
:1001c800ec120000ec120000ec120000ec1200002f
:1001d800ec120000ec120000ec120000ec1200001f
:1001e800ec120000ec120000ec120000ec1200000f
:1001f800ec120000ec120000ec120000ec120000ff
:10020800ec120000ec120000ec120000ec120000ee
:10021800ec120000ec120000ec120000ec120000de
:10022800ec120000ec120000ec120000ec120000ce
:10023800ec120000ec120000ec120000ec120000be
:10024800ec120000ec120000ec120000ec120000ae
:10025800ec120000ec120000ec120000ec1200009e
:10026800ec120000ec120000ec120000ec1200008e
:0c027800ec120000ec120000ec12000080
:020000040000fa
:10337800050400000000000000000000c1c00000bb
:1033880081c100004001000001c30000c00300002b
:103398008002000041c2000001c60000c006000013
:1033a8008007000041c7000000050000c1c50000fb
:1033b80081c400004004000001cc0000c00c0000e3
:1033c800800d000041cd0000000f0000c1cf0000bb
:1033d80081ce0000400e0000000a0000c1ca0000b3
:1033e80081cb0000400b000001c90000c0090000ab
:1033f8008008000041c8000001d80000c018000083
:103408008019000041d90000001b0000c1db00004a
:1034180081da0000401a0000001e0000c1de000032
:1034280081df0000401f000001dd0000c01d00001a
:10343800801c000041dc000000140000c1d4000022
:1034480081d500004015000001d70000c01700001a
:103458008016000041d6000001d20000c012000012
:103468008013000041d3000000110000c1d100000a
:1034780081d000004010000001f00000c0300000c2
:103488008031000041f1000000330000c1f300006a
:1034980081f200004032000000360000c1f6000052
:1034a80081f700004037000001f50000c03500003a
:1034b8008034000041f40000003c0000c1fc000022
:1034c80081fd0000403d000001ff0000c03f0000fa
:1034d800803e000041fe000001fa0000c03a0000f2
:1034e800803b000041fb000000390000c1f90000ea
:1034f80081f800004038000000280000c1e8000002
:1035080081e900004029000001eb0000c02b000009
:10351800802a000041ea000001ee0000c02e0000f1
:10352800802f000041ef0000002d0000c1ed0000d9
:1035380081ec0000402c000001e40000c0240000e1
:103548008025000041e5000000270000c1e70000d9
:1035580081e600004026000000220000c1e20000d1
:1035680081e300004023000001e10000c0210000c9
:103578008020000041e0000001a00000c0600000c1
:103588008061000041a1000000630000c1a30000a9
:1035980081a200004062000000660000c1a6000091
:1035a80081a700004067000001a50000c065000079
:1035b8008064000041a40000006c0000c1ac000061
:1035c80081ad0000406d000001af0000c06f000039
:1035d800806e000041ae000001aa0000c06a000031
:1035e800806b000041ab000000690000c1a9000029
:1035f80081a800004068000000780000c1b8000001
:1036080081b900004079000001bb0000c07b0000c8
:10361800807a000041ba000001be0000c07e0000b0
:10362800807f000041bf0000007d0000c1bd000098
:1036380081bc0000407c000001b40000c0740000a0
:103648008075000041b5000000770000c1b7000098
:1036580081b600004076000000720000c1b2000090
:1036680081b300004073000001b10000c071000088
:103678008070000041b0000000500000c1900000c0
:10368800819100004051000001930000c0530000e8
:10369800805200004192000001960000c0560000d0
:1036a800805700004197000000550000c1950000b8
:1036b8008194000040540000019c0000c05c0000a0
:1036c800805d0000419d0000005f0000c19f000078
:1036d800819e0000405e0000005a0000c19a000070
:1036e800819b0000405b000001990000c059000068
:1036f800805800004198000001880000c048000080
:103708008049000041890000004b0000c18b000087
:10371800818a0000404a0000004e0000c18e00006f
:10372800818f0000404f0000018d0000c04d000057
:10373800804c0000418c000000440000c18400005f
:10374800818500004045000001870000c047000057
:10375800804600004186000001820000c04200004f
:10376800804300004183000000410000c181000047
:1037780081800000404000000001000006010000b8
:1037880093a00000000000000000000000000000fe
:103798000000000000000000000000000000000021
:1037a8000000000000000000010600000203000005
:1037b800a100000000000000000000000000000060
:1037c80000000000000000000000000000000000f1
:1037d8000000000000010000060300001261000064
:1037e80000000000000000000000000000000000d1
:1037f80000000000000000000000000000000000c1
:10380800000000000106000004530000a3000000af
:1038180000000000000000000000000000000000a0
:103828000000000000000000000000000000000090
:10383800000100000605000092630000000000007f
:103848000000000000000000000000000000000070
:103858000000000000000000000000000000000060
:103868000106000006d2000062000000000000000f
:103878000000000000000000000000000000000040
:10388800000000000000000000000000000100002f
:103898000707000073cd00000000000000000000d2
:1038a8000000000000000000000000000000000010
:1038b80000000000000000000000000001060000f9
:1038c80008530000a60000000000000000000000ef
:1038d80000000000000000000000000000000000e0
:1038e80000000000000000000001000006090000c0
:1038f80092660000000000000000000000000000c8
:1039080000000000000000000000000000000000af
:103918000000000000000000010700000a77000016
:103928005d00000000000000000000000000000032
:10393800000000000000000000000000000000007f
:103948000000000000010000060b000013a70000a3
:10395800000000000000000000000000000000005f
:10396800000000000000000000000000000000004f
:1039780000000000010600000c5200006500000075
:10398800000000000000000000000000000000002f
:10399800000000000000000000000000000000001f
:1039a80000010000060d000093a5000000000000c3
:1039b80000000000000000000000000000000000ff
:1039c80000000000000000000000000000000000ef
:1039d800010800000ed30000a40000000000000051
:1039e80000000000000000000000000000000000cf
:1039f80000000000000000000000000000010000be
:103a08000c0f00001264000000000000000000001d
:103a1800000000000000000000000000000000009e
:103a28000000000000000000000000000106000087
:103a380010930000bb000000000000000000000020
:103a4800000000000000000000000000000000006e
:103a58000000000000000000000100000612000045
:103a6800926c000000000000000000000000000050
:103a7800000000000000000000000000000000003e
:103a88000000000000000000010600003592000060
:103a980077000000000000000000000000000000a7
:103aa800000000000000000000000000000000000e
:103ab800000000000001000006360000d276000079
:103ac80000000000000000000000000000000000ee
:103ad80000000000000000000000000000000000de
:103ae800000000000106000038530000b20000008a
:103af80000000000000000000000000000000000be
:103b080000000000000000000000000000000000ad
:103b18000001000006390000927200000000000059
:103b2800000000000000000000000000000000008d
:103b3800000000000000000000000000000000007d
:103b480000000000c2010000fa000000960000001a
:103b5800fa00000096000000640000003200000037
:103b6800000000000000000000000000000000004d
:103b7800000000000000000000000000000000003d
:103b880000000000640000004664000000280000f7
:103b9800000000000900000000f40000010000001f
:103ba800005800000200000000d600000690000047
:103bb80001c8000000030000000000000000000031
:103bc80000000000000000008403000090010000d5
:103bd800c800000003000000000000000000000012
:103be80000000000000000000000000000000000cd
:103bf8000000000000000000540b0000000000005e
:103c080000000000000f000000000000000000009d
:103c180090010000c800000064000000900100004e
:103c2800c80000006400000014000000000000004c
:103c3800000000000000000000000000000000007c
:103c4800000000000000000000000000000000006c
:103c58006400000046640000004600000000000008
:103c68000900000000f400000100000000580000f6
:103c78000200000000aa00000520000003900000d8
:103c88000103000000000000000000000000000028
:103c980000000000aa0500002003000090010000b9
:103ca8000300000001000000000000000000000008
:103cb80000000000000000000000000000000000fc
:103cc80000000000540b000000000000000000008d
:103cd800000f0000000000000000000000000000cd
:103ce800f40100007e000000000000000000000059
:103cf800640000000000000000000000002c00002c
:103d08000100000000000000003200000000000078
:103d1800f4010000010000000000000000010000a4
:103d2800000000000000000000000000000a000081
:103d38000000000000000000007b00000000000000
:103d4800000000000000000000000000000000006b
:103d5800000000000000000000000000000000005b
:103d6800000000000000000000000000000000004b
:103d7800000000000000000000000000000000003b
:103d8800000000000000000000000000000000002b
:103d98000000000000640000850000000000000032
:103da800000000007b72000066e70000fd9800003c
:103db800fd00000000000000640000006500000035
:103dc80066000000800000007d0200008100000005
:103dd80082000000830000000800000015000000b9
:103de800190000007c020000500000005100000093
:103df80070000000780000007d0000007e000000d8
:103e08007f00000025020000260200005802000082
:103e18005b0200005c020000140000001c000000af
:103e28005d0200005e0200005f0200006002000008
:103e380061020000620200006302000068020000e4
:103e4800690200006a0200006b0200006c020000b8
:103e58006d0200006e0200006f0200007002000098
:103e68007102000023030000270300000b0000007c
:103e78000b000000670000006800000069000000f7
:103e88006a0000006b0000006c0000006e0000007b
:103e9800f4010000f5010000f8010000f90100003c
:103ea800fa010000fb010000fc010000fd01000018
:103eb800fe010000ff0100000002000001020000f6
:103ec80002020000030200000402000005020000d4
:103ed80006020000070200000802000009020000b4
:103ee8000a0200000b0200000c0200000d02000094
:103ef8000e0200000f020000100200001102000074
:103f0800120200001302000018020000190200004b
:103f18001a0200001b0200001c0200001d02000023
:103f28001e0200001f020000200200002102000003
:103f380022020000230200002402000027020000e1
:103f480052540000444d0000002b00002452000091
:103f5800544400004d2300001b860000002b000085
:103f6800244f00004b2300004c080000002d0000e7
:103f78002445000001230000d36a0000000000006f
:103f880000000000aa2a000054550000fe7f00002f
:083f9800a8aa000052d50000a8
:020000040000fa
:103fa0000000fa000042eb0004437800859d2100e8
:103fb000864a78000042eb0004437800959d21007a
:103fc000864a780054002000e4ce8800e239a90037
:103fd000e259a800e279a900e299a800e2b9a90093
:103fe000e2d9a9000002eb0034cf88000002eb0008
:103ff00024d0880094d9800044d088000002eb00cf
:1040000054d088000002eb0064d088000002eb006e
:1040100074d088000002eb0084d0880094d980001e
:1040200004cf88000042eb0004437800f59d210096
:10403000864a7800849d2100144278000443780069
:10404000e59d2100864a780084002000d4ce8800b7
:104050000002eb0094d088000002eb00a4d088009e
:10406000230ea900e339a900e359a900e379a900c7
:10407000e399a900e3b9a9000002eb00b4d08800dd
:104080000002eb00c4d088000002eb00d4d088000e
:104090000002eb00e4d08800e419a900e439a8008c
:1040a000e459a900e479a800e499a9000080fa0085
:1040b000000006000000fa00769021001643780008
:1040c0000683fb0087902100974378008783fb00dd
:1040d000c83bdd00070373000602780096902100bc
:1040e000164378000683fb00a790210097437800d1
:1040f0008783fb00c83bdd0007037300860278005e
:1041000084037800f4902100144278000482fb00bc
:1041100005912100954278008582fb00c82add00c8
:1041200005027200050020002603200086abb900be
:10413000e020b9000003430084027800240320003b
:10414000042ab80005034300860278001100090024
:1041500047aad80000027800b4d08800b6902100a9
:10416000164378000683fb00c79021009743780030
:104170008783fb00c83bdd0007037300060278005d
:10418000d6902100164378000683fb00e7902100bb
:10419000974378008783fb00c83bdd00070373006b
:1041a0008602780084037800f4902100144278009d
:1041b0000482fb0005912100954278008582fb0076
:1041c000c82add0005027200050020002603200039
:1041d00086abb900e020b9000003430084027800f8
:1041e00024032000042ab800050343008602780057
:1041f0001100090047aad80000027800c4d0880046
:1042000076902100164378000683fb0087902100fa
:10421000974378008783fb00c83bdd0007037300ea
:104220000602780096902100164378000683fb0072
:10423000a7902100974378008783fb00c83bdd00ef
:10424000070373008602780084037800e49121005c
:10425000144278000482fb00f59121009542780019
:104260008582fb00c82add000502720005002000df
:104270002603200086abb900e020b900000343000c
:104280008402780024032000042ab80005034300b8
:10429000860278001100090047aad80000027800c1
:1042a000d4d08800b6902100164378000683fb0026
:1042b000c7902100974378008783fb00c83bdd004f
:1042c0000703730006027800d69021001643780099
:1042d0000683fb00e7902100974378008783fb006b
:1042e000c83bdd0007037300860278008403780072
:1042f000e4912100144278000482fb00f591210032
:10430000954278008582fb00c82add000502720014
:10431000050020002603200086abb900e020b9008c
:10432000000343008402780024032000042ab8001c
:1043300005034300860278001100090047aad8004f
:1043400000027800e4d08800050007002709070074
:10435000cb100700300d07000080fa0000000600b7
:104360000e00fa001e0290000400a000140798003e
:104370001e0290000410a100140798001e02900075
:104380000420a100140798001e0290000430a10030
:10439000140798001e0290000440a1001407980022
:1043a0001e0290000450a000140798001e02900006
:1043b0000460a100140798001e0290000470a00081
:1043c000140798001e0290000480a00014079800b3
:1043d0001e0290000490a100140798009e02900015
:1043e000f43f200004826200140798002e0290001f
:1043f0000400a000240798002e0290000410a100e1
:10440000240798002e0290000420a10024079800a1
:104410002e0290000430a100240798002e02900084
:104420000440a000240798002e0290000450a10030
:10443000240798002e0290000460a0002407980032
:104440002e0290000470a100240798002e02900014
:104450000480a000240798002e0290000490a10080
:1044600024079800ae029000f43f2000048262000e
:10447000240798003e0290000400a0003407980032
:104480003e0290000410a100340798003e02900004
:104490000420a100340798003e0290000430a100df
:1044a000340798003e0290000440a10034079800b1
:1044b0003e0290000450a100340798003e02900094
:1044c0000460a100340798003e0290000470a1002f
:1044d000340798003e0290000480a0003407980042
:1044e0003e0290000490a10034079800be029000a4
:1044f000f43f200004826200340798004e029000ce
:104500000400a000440798004e0290000410a1008f
:10451000440798004e0290000420a1004407980030
:104520004e0290000430a100440798004e02900013
:104530000440a100440798004e0290000450a000df
:10454000440798004e0290000460a10044079800c0
:104550004e0290000470a000440798004e029000a4
:104560000480a100440798004e0290000490a0002f
:1045700044079800ce029000f43f200004826200bd
:10458000440798005e0290000400a00054079800c1
:104590005e0290000410a100540798005e02900093
:1045a0000420a100540798005e0290000430a1008e
:1045b000540798005e0290000440a0005407980041
:1045c0005e0290000450a100540798005e02900023
:1045d0000460a000540798005e0290000470a100df
:1045e000540798005e0290000480a10054079800d0
:1045f0005e0290000490a00054079800de02900034
:10460000f43f200004826200540798006e0290007c
:104610000400a000640798006e0290000410a1003e
:10462000640798006e0290000420a10064079800bf
:104630006e0290000430a100640798006e029000a2
:104640000440a100640798006e0290000450a1008d
:10465000640798006e0290000460a100640798004f
:104660006e0290000470a100640798006e02900032
:104670000480a100640798006e0290000490a000de
:1046800064079800ee029000f43f2000048262006c
:10469000640798000002eb00040f78001e02780007
:1046a000fc22b90084027800041521000482420033
:1046b000ae429000054a78003e43900016429800b2
:1046c00064882100144278000482fb007588210070
:1046d000954278008582fb00c82add000502720041
:1046e000840278001e027800fc23b9002415210002
:1046f00004024300f60f2000068362009443780012
:10470000e0c3630006c37300064a7800c82ade00cf
:104710001443900060436300854273001542980083
:10472000c48d2100144278000482fb00d58d210045
:10473000954278008582fb00c82add0005027200e0
:10474000840278001e027800fc23b9004415210081
:1047500004024300f60f20000683620094437800b1
:10476000e0c3630006c37300064a7800c82ade006f
:104770001443900060436300854273001542980023
:104780001e027800fc22b900840278006415210022
:104790000482420094427800e0c26200054a780038
:1047a00094429000e0c2620015429800f49021000b
:1047b000144278000482fb000591210095427800a4
:1047c0008582fb00c82add000502720084027800a1
:1047d0001e027800fc23b900841521000402430066
:1047e000f60f20000683620094437800e0c3630064
:1047f00006c37300064a7800c82ade0014439000fe
:10480000604363008542730015429800b5d0800074
:104810001e027800fc23b900a41521000402430005
:10482000f60f20000683620094437800e0c3630023
:1048300006c37300064a7800c82ade0014439000bd
:104840006043630085427300154298001e027800a1
:10485000fc22b90084027800c415210004824200c1
:104860009442780060c3620085ceb3008542730035
:10487000054a780094429000e0c262003540b300df
:10488000154298001e027800fc22b90084027800cc
:10489000e4152100048242009442780060c3620063
:1048a00085c8b30085427300054a780094429000a1
:1048b000e0c262003541b300154298001e02780044
:1048c000fc22b90084027800041621000482420010
:1048d0009442780060c3620045cfb3008542730004
:1048e000054a780094429000e0c262000504a000ee
:1048f000154298001e0fe8001e027800fc22b90045
:10490000840278000415210004824200ee429000e7
:10491000054a78007e439000164298001e02e90086
:10492000fc22b9008482e8000415210004824200c0
:10493000144378008682fb00144290000482fb003e
:104940004822dd0004827200840278001e02780092
:10495000fc23b9002415210004024300f60f2000b7
:104960000683620094437800e0c3630006c37300cb
:10497000064a7800c82ade001443900060436300b2
:1049800085427300154298001e02e900fc22b9001e
:10499000e40242000415210004824200144378001e
:1049a0008682fb00144290000482fb004822dd0056
:1049b00004827200840278001e027800fc23b90091
:1049c0004415210004024300f60f20000683620014
:1049d00094437800e0c3630006c37300064a78007e
:1049e000c82ade00144390006043630085427300d0
:1049f000154298001e02e900fc22b900e8024200bc
:104a00000415210004824200144378008682fb00d2
:104a1000144290000482fb004822dd0004827200f0
:104a2000840278001e027800fc23b900641521007e
:104a300004024300f60f20000683620094437800ce
:104a4000e0c3630006c37300064a7800c82ade008c
:104a50001443900060436300854273001542980040
:104a60001e02e900fc22b900e80242000415210000
:104a700004824200144378008682fb0014429000b6
:104a80000482fb004822dd00048272008402780068
:104a90001e027800fc23b9008415210004024300a3
:104aa000f60f20000683620094437800e0c36300a1
:104ab00006c37300064a7800c82ade00144390003b
:104ac0006043630085427300154298001e0278001f
:104ad000fc22b90084027800a4152100048242005f
:104ae00094427800e0c26200054a78009442900047
:104af000e0c26200154298001e0fe8001e02780016
:104b0000fc22b900840278000415210004824200ce
:104b1000ee429000054a78007e43900016429800cd
:104b20001e02e900fc22b900e40242000415210043
:104b300004824200144378008682fb0014429000f5
:104b40000482fb004822dd000482720084027800a7
:104b50001e027800fc23b900241521000402430042
:104b6000f60f20000683620094437800e0c36300e0
:104b700006c37300064a7800c82ade00144390007a
:104b8000604363008542730015429800e48d210064
:104b9000144278000482fb00f58d210095427800d4
:104ba0008582fb00c82add000502720084027800bd
:104bb0001e027800fc23b9004415210004024300c2
:104bc000f60f20000683620094437800e0c3630080
:104bd00006c37300064a7800c82ade00144390001a
:104be0006043630085427300154298001e02e9008d
:104bf000fc22b900e80242000415210004824200b0
:104c0000144378008682fb00144290000482fb006b
:104c10004822dd0004827200840278001e027800bf
:104c2000fc23b9006415210004024300f60f2000a4
:104c30000683620094437800e0c3630006c37300f8
:104c4000064a7800c82ade001443900060436300df
:104c50008542730015429800149121001442780097
:104c60000482fb0025912100954278008582fb009b
:104c7000c82add0005027200840278001e02780056
:104c8000fc23b9008415210004024300f60f200024
:104c90000683620094437800e0c3630006c3730098
:104ca000064a7800c82ade0014439000604363007f
:104cb0008542730015429800c5d080001e0278001e
:104cc000fc23b900a415210004024300f60f2000c4
:104cd0000683620094437800e0c3630006c3730058
:104ce000064a7800c82ade0014439000604363003f
:104cf00085427300154298001e0fe8001e027800de
:104d0000fc22b900840278000415210004824200cc
:104d1000ee429000054a78007e43900016429800cb
:104d20001e02e900fc22b9008482e800041521007b
:104d300004824200144378008682fb0014429000f3
:104d40000482fb004822dd000482720084027800a5
:104d50001e027800fc23b900241521000402430040
:104d6000f60f20000683620094437800e0c36300de
:104d700006c37300064a7800c82ade001443900078
:104d80006043630085427300154298001e02e900eb
:104d9000fc22b900e4024200041521000482420012
:104da000144378008682fb00144290000482fb00ca
:104db0004822dd0004827200840278001e0278001e
:104dc000fc23b9004415210004024300f60f200023
:104dd0000683620094437800e0c3630006c3730057
:104de000064a7800c82ade0014439000604363003e
:104df00085427300154298001e02e900fc22b900aa
:104e0000e8024200041521000482420014437800a5
:104e10008682fb00144290000482fb004822dd00e1
:104e200004827200840278001e027800fc23b9001c
:104e30006415210004024300f60f2000068362007f
:104e400094437800e0c3630006c37300064a780009
:104e5000c82ade001443900060436300854273005b
:104e6000154298001e02e900fc22b900e802420047
:104e70000415210004824200144378008682fb005e
:104e8000144290000482fb004822dd00048272007c
:104e9000840278001e027800fc23b90084152100ea
:104ea00004024300f60f200006836200944378005a
:104eb000e0c3630006c37300064a7800c82ade0018
:104ec00014439000604363008542730015429800cc
:104ed0001e027800fc22b90084027800a41521008b
:104ee0000482420094427800e0c26200054a7800e1
:104ef00094429000e0c26200154298001e0fe80044
:104f00005491210014427800e24f5200ab003a0065
:104f10001e027800fc22b9008402780004152100ea
:104f200004824200ce429000054a78005e43900021
:104f3000164298001e02e900fc22b900e402420079
:104f40000415210004824200144378008682fb008d
:104f5000144290000482fb004822dd0004827200ab
:104f6000840278001e027800fc23b9002415210079
:104f700004024300f60f2000068362009443780089
:104f8000e0c3630006c37300064a7800c82ade0047
:104f900014439000604363008542730015429800fb
:104fa00044882100144278000482fb0055882100c7
:104fb000954278008582fb00c82add000502720058
:104fc000840278001e027800fc23b90044152100f9
:104fd00004024300f60f2000068362009443780029
:104fe000e0c3630006c37300064a7800c82ade00e7
:104ff000144390006043630085427300154298009b
:105000001e02e900fc22b900e8024200041521005a
:1050100004824200144378008682fb001442900010
:105020000482fb004822dd000482720084027800c2
:105030001e027800fc23b90064152100040243001d
:10504000f60f20000683620094437800e0c36300fb
:1050500006c37300064a7800c82ade001443900095
:105060006043630085427300154298001e02780079
:10507000fc22b900840278008415210004824200d9
:105080009442780060c3620085ccb300854273000f
:10509000054a780094429000e0c2620015429800f0
:1050a000c5d080001e027800fc23b900a4152100a1
:1050b00004024300f60f2000068362009443780048
:1050c000e0c3630006c37300064a7800c82ade0006
:1050d00014439000604363008542730015429800ba
:1050e0001e82e800fc22b900f802420004152100eb
:1050f00004824200144378008682fb001442900030
:105100000482fb004822dd000482720084027800e1
:105110001e027800fc23b90084162100040243001b
:10512000f60f20000683620094437800e0c363001a
:1051300006c37300064a7800c82ade0014439000b4
:105140006043630085427300154298001e82e800a8
:10515000fc22b900fa024200041521000482420038
:10516000144378008682fb00144290000482fb0006
:105170004822dd0004827200840278001e0278005a
:10518000fc23b900a416210004024300f60f2000fe
:105190000683620094437800e0c3630006c3730093
:1051a000064a7800c82ade0014439000604363007a
:1051b0008542730015429800750137001e02780081
:1051c000fc22b90084027800041521000482420008
:1051d000ee429000054a78007e4390001642980007
:1051e0001e02e900fc22b900e4024200041521007d
:1051f00004824200144378008682fb00144290002f
:105200000482fb004822dd000482720084027800e0
:105210001e027800fc23b90024152100040243007b
:10522000f60f20000683620094437800e0c3630019
:1052300006c37300064a7800c82ade0014439000b3
:10524000604363008542730015429800048e21007c
:10525000144278000482fb00158e210095427800ec
:105260008582fb00c82add000502720084027800f6
:105270001e027800fc23b9004415210004024300fb
:10528000f60f20000683620094437800e0c36300b9
:1052900006c37300064a7800c82ade001443900053
:1052a0006043630085427300154298001e02e900c6
:1052b000fc22b900e80242000415210004824200e9
:1052c000144378008682fb00144290000482fb00a5
:1052d0004822dd0004827200840278001e027800f9
:1052e000fc23b9006415210004024300f60f2000de
:1052f0000683620094437800e0c3630006c3730032
:10530000064a7800c82ade00144390006043630018
:1053100085427300154298003491210014427800b0
:105320000482fb0045912100954278008582fb00b4
:10533000c82add0005027200840278001e0278008f
:10534000fc23b9008415210004024300f60f20005d
:105350000683620094437800e0c3630006c37300d1
:10536000064a7800c82ade001443900060436300b8
:105370008542730015429800c5d080001e02780057
:10538000fc23b900a415210004024300f60f2000fd
:105390000683620094437800e0c3630006c3730091
:1053a000064a7800c82ade00144390006043630078
:1053b00085427300154298001e0fe8001e02780017
:1053c000fc22b90084027800041521000482420006
:1053d000ee429000054a78007e4390001642980005
:1053e0001e02e900fc22b9008482e80004152100b5
:1053f00004824200144378008682fb00144290002d
:105400000482fb004822dd000482720084027800de
:105410001e027800fc23b900241521000402430079
:10542000f60f20000683620094437800e0c3630017
:1054300006c37300064a7800c82ade0014439000b1
:105440006043630085427300154298001e02e90024
:10545000fc22b900e402420004152100048242004b
:10546000144378008682fb00144290000482fb0003
:105470004822dd0004827200840278001e02780057
:10548000fc23b9004415210004024300f60f20005c
:105490000683620094437800e0c3630006c3730090
:1054a000064a7800c82ade00144390006043630077
:1054b00085427300154298001e02e900fc22b900e3
:1054c000e8024200041521000482420014437800df
:1054d0008682fb00144290000482fb004822dd001b
:1054e00004827200840278001e027800fc23b90056
:1054f0006415210004024300f60f200006836200b9
:1055000094437800e0c3630006c37300064a780042
:10551000c82ade0014439000604363008542730094
:10552000154298001e02e900fc22b900e802420080
:105530000415210004824200144378008682fb0097
:10554000144290000482fb004822dd0004827200b5
:10555000840278001e027800fc23b9008415210023
:1055600004024300f60f2000068362009443780093
:10557000e0c3630006c37300064a7800c82ade0051
:105580001443900060436300854273001542980005
:105590001e027800fc22b90084027800a4152100c4
:1055a0000482420094427800e0c26200054a78001a
:1055b00094429000e0c26200154298001e0fe8007d
:1055c0001e027800fc22b900840278000415210034
:1055d00004824200ce429000054a78005e4390006b
:1055e000164298001e02e900fc22b900e4024200c3
:1055f0000415210004824200144378008682fb00d7
:10560000144290000482fb004822dd0004827200f4
:10561000840278001e027800fc23b90024152100c2
:1056200004024300f60f20000683620094437800d2
:10563000e0c3630006c37300064a7800c82ade0090
:105640001443900060436300854273001542980044
:1056500044882100144278000482fb005588210010
:10566000954278008582fb00c82add0005027200a1
:10567000840278001e027800fc23b9004415210042
:1056800004024300f60f2000068362009443780072
:10569000e0c3630006c37300064a7800c82ade0030
:1056a00014439000604363008542730015429800e4
:1056b0001e02e900fc22b900e802420004152100a4
:1056c00004824200144378008682fb00144290005a
:1056d0000482fb004822dd0004827200840278000c
:1056e0001e027800fc23b900641521000402430067
:1056f000f60f20000683620094437800e0c3630045
:1057000006c37300064a7800c82ade0014439000de
:105710006043630085427300154298001e027800c2
:10572000fc22b90084027800841521000482420022
:105730009442780060c3620085ccb3008542730058
:10574000054a780094429000e0c262001542980039
:10575000c5d080001e027800fc23b900a4152100ea
:1057600004024300f60f2000068362009443780091
:10577000e0c3630006c37300064a7800c82ade004f
:105780001443900060436300854273001542980003
:105790000002eb00040f78001e027800fc22b90022
:1057a0008402780044212100048242008e4a900045
:1057b000054a78001e4b900016429800448821004c
:1057c000144278000482fb0055882100954278003d
:1057d0008582fb00c82add00050272008402780081
:1057e0001e027800fc23b90064212100040243005a
:1057f000f60f20000683620094437800e0c3630044
:1058000006c37300064a7800c82ade0014439000dd
:10581000604363008542730015429800248e210086
:10582000144278000482fb00358e210095427800f6
:105830008582fb00c82add00050272008402780020
:105840001e027800fc23b9008421210004024300d9
:10585000f60f20000683620094437800e0c36300e3
:1058600006c37300064a7800c82ade00144390007d
:105870006043630085427300154298001e02780061
:10588000fc22b90084027800a42121000482420095
:1058900094427800e0c26200054a78009442900089
:1058a000e0c2620015429800e491210014427800a1
:1058b0000482fb00f5912100954278008582fb006f
:1058c000c82add0005027200840278001e027800fa
:1058d000fc23b900c421210004024300f60f20007c
:1058e0000683620094437800e0c3630006c373003c
:1058f000064a7800c82ade00144390006043630023
:105900008542730015429800d5d080001e027800b1
:10591000fc23b900e421210004024300f60f20001b
:105920000683620094437800e0c3630006c37300fb
:10593000064a7800c82ade001443900060436300e2
:1059400085427300154298001e0fe8001e02780081
:10595000fc22b90084027800442121000482420024
:10596000ce4a9000054a78005e4b9000164298009f
:105970001e02e900fc22b9008482e80044212100d3
:1059800004824200144378008682fb001442900097
:105990000482fb004822dd00048272008402780049
:1059a0001e027800fc23b900642121000402430098
:1059b000f60f20000683620094437800e0c3630082
:1059c00006c37300064a7800c82ade00144390001c
:1059d0006043630085427300154298001e02e9008f
:1059e000fc22b900e402420044212100048242006a
:1059f000144378008682fb00144290000482fb006e
:105a00004822dd0004827200840278001e027800c1
:105a1000fc23b9008421210004024300f60f20007a
:105a20000683620094437800e0c3630006c37300fa
:105a3000064a7800c82ade001443900060436300e1
:105a400085427300154298001e02e900fc22b9004d
:105a5000e8024200442121000482420014437800fd
:105a60008682fb00144290000482fb004822dd0085
:105a700004827200840278001e027800fc23b900c0
:105a8000a421210004024300f60f200006836200d7
:105a900094437800e0c3630006c37300064a7800ad
:105aa000c82ade00144390006043630085427300ff
:105ab000154298001e02e900fc22b900e8024200eb
:105ac0004421210004824200144378008682fb00b6
:105ad000144290000482fb004822dd000482720020
:105ae000840278001e027800fc23b900c421210042
:105af00004024300f60f20000683620094437800fe
:105b0000e0c3630006c37300064a7800c82ade00bb
:105b1000144390006043630085427300154298006f
:105b20001e027800fc22b90084027800e4212100e2
:105b30000482420094427800e0c26200054a780084
:105b400094429000e0c26200154298001e0fe800e7
:105b50001e027800fc22b900840278004421210052
:105b600004824200ce4a9000054a78005e4b9000c5
:105b7000164298001e02e900fc22b900e40242002d
:105b80004421210004824200144378008682fb00f5
:105b9000144290000482fb004822dd00048272005f
:105ba000840278001e027800fc23b90064212100e1
:105bb00004024300f60f200006836200944378003d
